:100000006F70705213000000130000001300000016
:100010001300000013000000130000001300000094
:100020001300000013000000130000001300000084
:08003000130000007300100032
:100038000000000000000000163E00001A3E00000C
:10004800000000006C7C00000000000000000000C0
:100058006E7C0000707C00000000000000000000C2
:10006800B639000000000000740200000000000023
:10007800767C0000787C00007A7C00007C7C0000A4
:100088007E7C0000807C0000827C0000847C000074
:10009800867C0000887C00008A7C00008C7C000044
:1000A8008E7C0000907C0000927C0000947C000014
:1000B800967C0000987C00009A7C00009C7C0000E4
:1000C8009E7C0000A07C0000A27C0000A47C0000B4
:1000D800A67C0000A87C0000AA7C0000AC7C000084
:1000E800AE7C0000B07C0000B27C0000B47C000054
:1000F800B67C0000B87C0000BA7C0000BC7C000024
:10010800BE7C0000C07C0000883E0000C47C00006B
:10011800C67C0000C87C0000CA7C0000CC7C0000C3
:10012800CE7C0000D07C0000D27C0000D47C000093
:10013800D67C0000F45C0000DA7C0000DC7C000067
:10014800DE7C0000E07C0000E27C0000E47C000033
:10015800E67C0000E87C0000EA7C0000EC7C000003
:10016800EE7C0000F07C0000F27C0000F47C0000D3
:10017800F67C0000F87C0000FA7C0000FC7C0000A3
:10018800FE7C0000007D0000027D00000E3F0000A4
:10019800943F0000087D00000A7D00000C7D0000EF
:1001A8000E7D0000107D0000127D0000147D00000F
:1001B800167D0000187D00001A7D00001C7D0000DF
:1001C8001E7D0000207D0000227D0000247D0000AF
:1001D8000000000000000000000000000000000017
:1001E8000000000000000000000000000000000007
:0801F8000000000000000000FF
:1002000073700430828073600430828073750430B0
:10021000828073100530828083A2818403A1020052
:1002200011A0010082427390123492427390023006
:10023000A240B2414242D2426243F243025492543B
:100240002255B2554256D2566257F2570648964842
:100250002649B649464AD64A664BF64B065C965C3A
:10026000265DB65D465ED65E665FF65F0961730029
:1002700020300100197116CA9302000273A0428057
:10028000F322003016C2F322103416C006C40EC684
:1002900012C81ACC1ECE22D026D22AD42ED632D8BC
:1002A00036DA3ADC3EDEC2C0C6C2CAC4CEC6D2C846
:1002B000D6CADACCDECEE2D0E6D2EAD4EED6F2D896
:1002C000F6DAFADCFEDE8A8203A1818116C0EF3005
:1002D000C0670241938281841383418583A3020016
:1002E00023A023000323030023A0620003210300B3
:1002F000924273900230824273901234A240B24113
:100300004242D2426243F243025492542255B255C1
:100310004256D2566257F257064896482649B64981
:10032000464AD64A664BF64B065C965C265DB65D41
:10033000465ED65E665FF65F09617300203000009E
:100340003D432A876373C3029377F700BDEFADE5A2
:10035000937606FF3D8ABA960CC34CC30CC74CC7B4
:100360004107E36BD7FE11E28280B306C3408A06E1
:100370009702000096966780A6002307B700A306A1
:10038000B7002306B700A305B7002305B700A304F1
:10039000B7002304B700A303B7002303B700A302E9
:1003A000B7002302B700A301B7002301B700A300E1
:1003B000B7002300B700828093F5F50F9396850070
:1003C000D58D93960501D58D61B793962700970239
:1003D000000096968682E78086FA9680C1171D8F68
:1003E0003E96E374C3F8A5B73367B500FD530D8B94
:1003F00079E7B7877F7F9387F7F710419441B3720E
:10040000F6003363F600BE92B3E262006397720CAB
:100410006318D6065041D441B372F6003363F60038
:10042000BE92B3E262006398720A631BD604104561
:100430009445B372F6003363F600BE92B3E26200F5
:100440006391720A631ED6025045D445B372F6001A
:100450003363F600BE92B3E26200639A72086311DE
:10046000D60210499449B372F6003363F600BE9287
:10047000B3E26200639372085105D105E30FD6F62B
:100480001317060193970601631CF7001357060123
:1004900093D706013305F7409375F50F91E98280F4
:1004A0004183C1833305F7409375F50F91E1828055
:1004B0001377F70F93F7F70F3305F7408280034662
:1004C000050083C60500050585056313D60065FA9A
:1004D0003305D640828011059105E312D6FE014511
:1004E00082802105A105E31CD6FC014582803105EF
:1004F000B105E316D6FC014582804105C105E31034
:10050000D6FC0145828025C1411106C6AA8799ED16
:1005100037270040130707C058C171651305052030
:10052000EF70006A0145B240410182800947639D36
:10053000E500374700401307074058C171651305B0
:100540000520EF700052F9BF19477D55E39DE5FC8A
:1005500037270040130707807165D8C313050520AE
:10056000EF70605BC1B77D558280FD5729C9A1C975
:1005700001114AC80329450006CE22CC26CA4EC620
:10058000630909002E84B384C5008549631B940068
:100590008147F2406244D2444249B2493E850561F6
:1005A0008280834504004A85EF80E03A9305000489
:1005B0004A85EF80803BE31B35FF0504C1BF3E85C4
:1005C000828019C54841133515003305A04082804B
:1005D0007D558280797126D24AD04ECE52CC06D635
:1005E00022D456CA372A0020A689FD567D577000AE
:1005F0009385C18813058A56EF00304C03A4C1834C
:10060000938AC183E30354FF48449385C188E93B3F
:1006100009E51C481385C18882970040E5B7938798
:100620008183984301E788C3014582807D5582809C
:10063000372500204111930600140D46938581252E
:100640001305855606C6EF00304439ED9387C18304
:10065000D146154693850163138581619CC3DCC334
:10066000EF00F05231E50568B707002037060000BB
:10067000B7D50000A948130808809387074A0D479B
:1006800081461306465D938585BE1385019DEF1057
:10069000306F0DE183A7818385C303A30700630D3A
:1006A0000300B240410102837955B240410182808A
:1006B0007555E5BF7155D5BF7D55C5BF83A78183EE
:1006C00091C703A347006303030002837D55828023
:1006D00083A7818395C3011122CC804706CEAA85CA
:1006E0007D5519C441460A85EFA000210A85029470
:1006F000F2406244056182807D55828083A78183B8
:1007000091C703A307016303030002837D55828021
:10071000797122D42A8426D213858161AE846C0833
:1007200032C606D6EF00B04D324619C57D55B250DF
:100730002254925445618280F2471387C183544307
:100740005CC3C0C784C790CB98C3D4C39CC283A7E3
:100750008183E9DF9C4FF9DBA68522858297C1BFA3
:1007600083A7818391C703A3070263030300028366
:100770007D558280011122CC4AC82A842E890545E4
:10078000814506CE26CA32C436C6EF10D02C22468A
:10079000B24613050439B2853686EF10F0211DE507
:1007A000EF302029AA84CA851305043AEF00E07CC3
:1007B0002A842685EF302028333580003305A04079
:1007C000F2406244D2444249056182807D55CDBFEA
:1007D000011122CC52C40324052A032A452A26CA21
:1007E00056C25AC006CE4AC84EC6AE8A328B814423
:1007F000639E44010149F24062444A85D244424921
:10080000B249224A924A024B056182808329040040
:1008100022894E85EFA0206D2A866367AB00D685BE
:100820004E85EFA0606D61D985042104D1B71D719B
:10083000A2CCD6C2DAC05EDE62DC86CEA6CACAC848
:10084000CEC6D2C466DA6AD86ED62A84B71A010038
:1008500037DB0000B7DB000037DC00000326C433C1
:1008600003258433232004348145D93C014A0149BE
:10087000A94C354D894D7D56FD569305F1012285D4
:10088000D53D75F90327C433832784336374E902A4
:100890008349F101CA979304190023803701032982
:1008A0008433232094342686CA85228515371DC9B2
:1008B000094929A0BA97A38F07FE114983258433DC
:1008C00013850BC1EFA0002B2945EFA0C02E914747
:1008D0006310F90A13058CC1EFA0C0292945EFA0C8
:1008E000802DADBF0327842A05C71C473AC68DC398
:1008F0003E853EC4EFA0205F2A8663EBA40032470A
:10090000A247585F39C7BE854A85EFA0E06339C565
:10091000B71701009385C7814A85EFA0E06229E1FE
:1009200093850A814A85EFA020620DED93058BC067
:100930004A85EFA060610DE9639A99016318AA01E5
:100940006396B40323200434814981444E8A268966
:100950001DB7CA853E85EFA0205A55BF0D49B9BFC6
:100960001549A9BF194999BF1D4989BF0549B9B79B
:100970008947631FF90003260434832584332285C5
:10098000813DE30D05EC5C41E38A07EC8297F9B504
:100990008324842AE38404EC88401DC5D848DC40C5
:1009A000998F9DC38329043463F33701BE8983255E
:1009B00084334E863A95EF903074DC48BE99DC441F
:1009C00023AA34018507DCC48D47631CF9009147D5
:1009D0009CC89C4C1385C401E38207E8EF10807D1E
:1009E000B5BD1547631AE90085479CC89C4CE39741
:1009F00007E61385C402DDB719476314E900894788
:100A0000EDB71D47E31CE9E4CDB7011122CC2A84E0
:100A100003254536B2862E869305002006CE26CACB
:100A2000EFA0B006832544362AC637D5000013054B
:100A3000C5BFEFA020142945EFA0E0178325443659
:100A40009304043726852EC4EF10200C3246A245AD
:100A5000C166FD1613058436093E2685EF10400B4E
:100A6000F2406244D2440145056182804111130580
:100A7000453406C6EF106009B2403335A000330597
:100A8000A0404101828041111305453406C6EF1094
:100A90002008B2403335A0003305A04041018280D8
:100AA000797122D426D24AD04ECE06D6AA892E8972
:100AB000328481447D56FD569305F1004E855D39A3
:100AC00009C92685B250225492540259F24945610F
:100AD00082800347F100B307990085042380E70073
:100AE000E31A94FC2285F9BF29C5411122C426C20C
:100AF0004AC006C63289B684AE872A8491C53E852F
:100B00008145EFF0FF83AA872322240104C41CC07F
:100B10002326040023280400232A0400232C040095
:100B2000232E0402B240224492440249014541016D
:100B300082807D558280011106CE22CC26CA4AC809
:100B40004EC652C456C25AC089ED7D542285F24029
:100B50006244D2444249B249224A924A024B056158
:100B600082809C45FDD3AA84BA8A368AB2892E84B3
:100B7000F53D61FD1309C40181454A85EF10C05D53
:100B800001C526850937D1B785471CCC232604002B
:100B900023280400232A0400138B043723A4842A67
:100BA0005A85EF009076C1665686FD16D28513856C
:100BB0008436653A2A845A85EF0090754E85EF1089
:100BC000F0712E86AA854A85EF10005F11C17D5411
:100BD0004A85EF10C058268523A4042A6D35BDB779
:100BE000397106D622D426D24AD04ECE52CC3AD82B
:100BF0003EDA42DC46DE99E9FD54B25022542685A5
:100C000002599254F249624A216182802A84368ACA
:100C1000B289AE84A13D6DF11389C40281454A8534
:100C2000EF10805301C52285B93DF9B723A6040012
:100C300023A8040023AA040010182324942AD28590
:100C4000228532C6D93301C52324042AE9BF4E8543
:100C5000EF10D0682E86AA854A85EF10E05533350F
:100C6000A000B304A0404A85EF10604F22852324E2
:100C7000042A113D59B7397106D622D426D24AD05A
:100C80004ECE52CC3AD83EDA42DC46DE99E97D546B
:100C90002285B250225492540259F249624A21618B
:100CA00082809C45EDD7AA84368AB2892E847D3B0A
:100CB00079FD1309C40181454A85EF10E04901C55A
:100CC0002685D133E9B785471CCC23260400232889
:100CD0000400232A0400101823A4842AD285268520
:100CE00032C6253301C523A4042AD9BF4E85EF108F
:100CF000F05E2E86AA854A85EF10004C3335A000A1
:100D00003304A0404A85EF108045268523A4042A99
:100D10009D3BBDBF39715AD05ECE2E8BB28B8145C3
:100D20001306003C22DC26DA2A844AD84ED662CC4E
:100D30003AC63EC406DE52D456D266CA6AC8368C5B
:100D4000EFF00FE0A24732479304042A2322F42A4B
:100D50002320E42AA287854905493E85130600071A
:100D60008145EFF0EFDD23003501232A25059307A8
:100D70000507E39497FE8564138504C0EF00B02354
:100D8000AA857D5931C59309043A232EA43A1386C6
:100D900004C04E85112A13050020EF00D02105C1A3
:100DA0002322A43613850480EF00F02029E1232CB0
:100DB000043203254436EF00B022232204360325F3
:100DC000C43B7D59EF00D0214E85232E043A2122C9
:100DD000F25062544A85D2544259B259225A925A18
:100DE000025BF24B624CD24C424D21618280938473
:100DF0000480130A0439232CA432232E9432232096
:100E0000043481455285EF10203525E1930A0437DB
:100E10005685EF00503439E5930C44346685EF0075
:100E2000903315ED130D8436E2856A85EFF0AFED52
:100E30002A891DE13716000081482688DE87094788
:100E4000A2861306E682DA851305042BEF104073A1
:100E500041D16A85EFF0EFF66685EF0010345685D4
:100E6000EF00B0335285EF10802F0325843319C172
:100E7000EF001017232C0432232E043223200434D5
:100E80000DBF411122C42A841305053A06C6AD28B8
:100E900001E9130504392244B24041016F10803149
:100EA000B24022444101828005C5411122C406C6D8
:100EB0002A841305C04489C9854613054400EF0000
:100EC000106B19E185471CC0B24022444101828069
:100ED0001305C044828015C51441411122C406C6C1
:100EE00005472A841305E0446399E600130544008E
:100EF000EF00106A19E123200400B24022444101AE
:100F000082801305C0448280011106CEA307B10080
:100F100011C905469305F1001105EF007077F24005
:100F2000056182801305C044DDBF011122CC06CECD
:100F300026CA4AC84EC652C401440DC5AA84328985
:100F4000AE89EF20102F2A8A014491046309890099
:100F50000546B38589002685EF00907309CD52853B
:100F6000EF20702D2285F2406244D2444249B249BA
:100F7000224A056182800504D1BF09C501461105D9
:100F80006F0070661305C044828079714AD006D61E
:100F900022D426D24ECE52CC56CA014915C52A8437
:100FA000B2892E8AEF20F028AA8A8144110426896A
:100FB0006389340101469305F1002285EF00B06298
:100FC00011CD5685EF203027B25022544A859254D5
:100FD0000259F249624AD24A456182800347F100D0
:100FE000B3079A0085042380E700D1B751CD0111E2
:100FF00026CA06CE22CC4AC84EC652C4AA8419E2DA
:101000005C45DD8DCCC4EF20D022DC40AA89138A58
:10101000440003A90700138407FB130909FB930786
:1010200004056389470383568407DC44785C93F5A1
:101030002600032604088DCDF98F6311F70418C22A
:1010400085452285EF00104683578407918B9DC705
:1010500023A604004E85EF20101EEF102034F2402E
:101060006244D2444249B249224A01450561828024
:10107000858A89C6F98F99C31CC2D9B78327090508
:101080004A84138907FB61BF1305C044828005C1F0
:10109000411122C406C62A844CC51105EF00503BFD
:1010A00085471CC0B240224401454101828013059E
:1010B000C0448280797122D426D24ECE52CC5AC8F6
:1010C0005EC606D64AD056CAAA89AE84328AB68B84
:1010D0003A8B3E84EF100036631D050C638E090CBD
:1010E000630C0A0C93773400F9CB0D476389E70C46
:1010F000EF203014137724002A8983A7C9000DCB71
:10110000E58F639FF40223209A00118819C023A65B
:1011100009004A85EF2030120145B2502254925402
:101120000259F249624AD24A424BB24B456182802F
:101130001377140011C7E58F81C72320FA00F1B798
:10114000B3E76B0199E74A85EF20F00E1305004BDA
:10115000E9B7EF10802D19C54A85EF20D00D130592
:10116000104B65BF03A581845E86DA8693854900AE
:1011700064DD23204509231C8506EF0070364A856F
:10118000EF20700BEF10802183A781842254B2508E
:1011900092540259F249624AD24A424BB24BA85782
:1011A00023AE070623A00708239C070645616F00AE
:1011B000702C1305001995B71305C044B9BF13056A
:1011C000800CA1BF05461DB5011126CA06CE22CC52
:1011D0004AC84EC652C456C25AC09304C0440DC930
:1011E00085C9AA84B68A32842E89138B4400EF20E5
:1011F00050042A8A5A85EF00702615C51385C4004D
:101200002286CA85EF00D048AA845285EF20B0021A
:10121000F240624426854249D244B249224A924A67
:10122000024B0561828083A94400938409FB639586
:101230000A0203A50902CA852286EF90E06B854564
:1012400023A289022685EF00F0255285EF20A07E9B
:101250008144EF10A0146DBF83A90900938909FB95
:1012600093870405E303FBFEA8582286CA85EF9006
:10127000A0682685E0D88545EF00D02283A7090520
:10128000CE84938907FBE9BF411126C206C622C45A
:101290009304C04409CD2A843105EF00502DAA845F
:1012A00019E513054400EF00B01A85471CC0B24091
:1012B00022442685924441018280797122D44AD009
:1012C00052CC56CA5AC85EC606D626D24ECE2A8AF6
:1012D000AE8A3289B68B3A8BEF10C0151304001911
:1012E0000DE51304C04463020A0263800A02EF2082
:1012F0004074AA844A86D6851305CA00EF00B02E32
:101300002A8405E12685EF2000732285B2502254FD
:1013100092540259F249624AD24A424BB24B456159
:101320008280B3E76B0189EB232009002685EF203B
:1013300080701304004BD1BFEF10200F19C5268514
:10134000EF20606F1304104BC9B703A581845E863C
:10135000DA8693054A0023285507EF007018268582
:10136000EF20606DEF10800383A78184A857EF0002
:1013700070102A8459F983A78184F85B2320E9003F
:1013800023A8070623AA070649B7814635BD0111E0
:1013900022CC06CE2A842EC632C436C2EF10800973
:1013A00021EDB2451305C0449DCD93F735001305DB
:1013B000F02B95EB92461305E02B93F7360085E76B
:1013C0002246B387D5002E8701451308F6FF6360D8
:1013D00005032320070085474CC00CC450C810C823
:1013E00054C41CC00145F2406244056182801CC3A4
:1013F00005053E87B697E1BF13050019EDB721C17A
:10140000411122C426C22A8406C6AE84EF2060623F
:101410005C4881EFEF2020621305D02B23A004004D
:10142000B24022449244410182801844FD1798C082
:1014300018435CC818C4EF2000600145D5B71305F8
:10144000C04482805C411105F19B3E958280411130
:1014500022C406C62A84FD3700C1B240224441019D
:101460008280B7270020B72600201387877E138647
:10147000867F23A4077E2322070023240700232638
:10148000070010CF50CF23200702130507069387CC
:10149000877E9386867F1308000223220702BE857B
:1014A000014623A2D50805069105E31C06FF110796
:1014B00093870708E313A7FE82804177698FAA8785
:1014C0001305000219E3C2074145370700FF7D8F6E
:1014D00019E3A2076115370700F07D8F19E3920722
:1014E0007115370700C07D8F19E38A07791563C32B
:1014F00007007D1582805C451445372700201307BF
:10150000877EDCC694C793975500B29793870702EE
:101510008A07BA9703A84700631DA802D4C3B72758
:1015200000209387877F6396F602938685008A065C
:10153000BA96C84285473396C7001346F6FF698EB0
:10154000D0C201EAB397B7000C5393C7F7FFED8FF2
:101550001CD382801DC19387F5FF3E95B305B04033
:10156000E98D1387F5FFB707004001456377F70062
:10157000B1472E8563F3F50031458280011122CCFD
:1015800006CE9307F0072A8463EBA7001354254087
:10159000014588C100C2F24062440561828032C6C2
:1015A0002EC4213F9307A5FF3354F4401344040293
:1015B00065153246A245F1BF011122CC2A8448416B
:1015C00070002C00719906CE553F3246A245228507
:1015D0001D37F240624405618280411122C406C673
:1015E00026C22A8485355C41858B99CBAA84E9374C
:1015F000DC4058402285F19B1107BA975CC0813DC1
:101600002285B2402244924441018280011122CCC1
:101610002A84484170002C00719906CE8537A24675
:10162000B2453727002093975600AE97938707025D
:101630001307877E8A07BA97C84337260020130608
:10164000867F08C450C440C51053C0C38547339536
:10165000D700A1068A06498E10D336975443F2402C
:101660006244B397B700D58F5CC3056182800111D6
:1016700006CE22CC26CA02C402C601E90144228554
:10168000F2406244D244056182809307F0072A84C5
:1016900063F9A7001D3569158547B397A700FD17A6
:1016A0003E94228570002C00D13D2244DD47E3C7E3
:1016B00087FCB7240020130784009386847E0A07E2
:1016C000324536975843FD573395A700798D93845B
:1016D000847E0DE58850050433948700698C59DCBD
:1016E00033058040618D814719C1C13BAA871384AE
:1016F000F7FF9D078A07A697C84322C4B307A040F7
:101700007D8D014619C1553B2A867D1616043294FB
:10171000130404020A042694404032C62DD0A24588
:101720002285D13BA9BF411122C45C4113844500ED
:101730002A945840F19B8D8F0D8BF11706C6D98FD7
:101740005CC05C418D8BCD8F5CC1228509335C41CF
:10175000B24093E727005CC15C40228593E7170005
:101760005CC022444101828029C55841411122C4F4
:1017700006C626C2719B938705012A84636CF70015
:101780005D37AA842285E131DC40268593E7270076
:10179000DCC0AD3D22857D315C41B2409244F59B79
:1017A0005CC15C4013058400F99B5CC0224441018C
:1017B000828001458280B707004063E1A7020111E2
:1017C000914506CE413B2AC65D3509C5B245F2407A
:1017D000056159BFF2400145056182800145828063
:1017E00021C9411122C4130485FF26C2AA8422857F
:1017F00006C6B1395C4193E727005CC15C4093E7C2
:1018000017005CC0898B91CF83A484FF26856D333C
:101810005C40D8402685F19BBA979107DCC005391A
:10182000268422855D3B2244B24092444101F9BBAB
:101830008280011122CC372400208326847E06CEAC
:1018400026CA4AC84EC68D47638DF6061307847EA6
:1018500081471309847E63C0D706E11513773500ED
:10186000F1999307003221E337070040938645FF43
:101870005117930710326368D70293E51500930957
:10188000C5FF0CC1AA844E8551334E85C9368947A0
:101890005CC18327847E138717008A07CA97C4C355
:1018A0002324E47E8147F2406244D2444249B24953
:1018B0003E8505618280110710436307C5008507D7
:1018C00059BF93072032C5B793073032E9BF0111E2
:1018D00006CE2AC62EC47136A2453245F2400561B5
:1018E00089BF5C4D184D011126CA4EC606CE22CCCA
:1018F0004AC804495CC398C3232805002306050091
:1019000003C90406A949630F3901CA852685EF007A
:10191000306323803407F2406244D2444249B249E2
:10192000056182808345450183C714022A84E384CC
:10193000B7FE2685EF00D060230A2401E9BF4111DC
:1019400022C406C62A84713F130544002244B240D3
:1019500091454101E1AE411122C406C62A84EF003F
:10196000702D0DE91305C04415C013054400CD24A6
:10197000A947230AF400930784011CCC5CCC85475B
:1019800023060400232804001CC00145B240224461
:101990004101828013050019D5BF411122C406C63A
:1019A00026C24AC02A84EF00F02831E51305C0445E
:1019B0000DCC184085471305E0446318F702EF206B
:1019C0004007930444002A898D45268585261C48B6
:1019D00099C3228539372685BD2C4A8523200400EA
:1019E000EF206005EF00901B0145B2402244924475
:1019F00002494101828013050019C5BF011122CCA3
:101A00004EC652C406CE26CA4AC82A842E8AB28935
:101A1000EF0050226315050E6306040EEF206001EF
:101A20008347C4002A899DEF83A781841CC803C70C
:101A30001702230AE40005472306E400B44F130706
:101A40008401D8C214CC9386870554CCB8CFEF104C
:101A5000907E0145F2406244D2444249B249224A52
:101A6000056182800848EF00901E15C58347C400B9
:101A70001307F00F6398E7004A85EF10D07B13053A
:101A8000A03EC9BF85074A852306F400EF10B07A4F
:101A90001305903EC1B7B3673A0199E74A85EF1045
:101AA00090791305004B7DB7EF00301819C54A85B2
:101AB000EF1070781305104B71BF83A7818408481D
:101AC00083C517028347150263F4F500EF00504702
:101AD00003A581845286CE869305440011244A854D
:101AE000EF107075EF00900B83A781846244F24081
:101AF000D2444249B249224AA8570561A5AA130512
:101B0000001989BF1305C044B1B7FD557D56FDB519
:101B1000011122CC06CE26CA4AC84EC62A84EF003E
:101B2000701145E91305C04409CCEF1090702A8963
:101B30000848EF00D01109ED4A85EF10D06F13056A
:101B4000803EF2406244D2444249B24905618280FB
:101B50008347C400FD1793F7F70F2306F40099C7D6
:101B60004A85EF10506D1305903EE1BF2285953BED
:101B7000930944004E85DD2011C54A85EF10B06BF6
:101B80000145C1B74E856D2008C883471502AA8458
:101B9000230AF40085472306F400384D9307840197
:101BA0005CC318CC1307850558CC3CCD4E85AD20C1
:101BB00083C71402AA856375F5002685EF005038A7
:101BC00085454E8585224A85EF10F066EF00007D41
:101BD00045BF13050019B5B79C41938707FB1387D1
:101BE00007056314B7002E8739A00346150283C684
:101BF00017026371D602F44B13060505F0CB38C902
:101C000074C990C2834705026CD193E72700230073
:101C1000F5028280BC4BD1B71C416309F5001387E4
:101C200007FB294509C703C517FD82802945828026
:101C30000841130505FB82807C4938495CC398C381
:101C40008347050223220506F59B2300F5028280C7
:101C500008C148C1828008C148C182801C413385C7
:101C6000A740133515008280784934496C51D8C299
:101C700014C39DB785476305F50209479307304BA9
:101C8000630EE5000D479307404B6309E5001147DC
:101C90009307504B6304E5009307204B3E858280F9
:101CA0008147EDBF411122C406C6834705022A843D
:101CB000898B99C32CD5493783470402858B81C70B
:101CC0002285EF00F04983470402918B91E722853A
:101CD0002244B240410181A6B240224441018280A7
:101CE000011136C406CE22CC26CA2A842EC6B2845E
:101CF0002D2EB245232404062285F93DFD57A24628
:101D00006394F400638B960022856244F240A685BA
:101D1000D244368605616F00B037F2406244D24447
:101D2000056182800841130505FBADBF1C414111CF
:101D300022C4804326C24AC0AA8406C62E891385BF
:101D400007FB130404FB930705056398F400B240F6
:101D500022449244024941018280CA85A1373C480D
:101D60002285138407FBC5B711E26DBFC1B7AA87EF
:101D70001305C04489CF81CD0547CCC794CBD0CBC8
:101D800098C323A2070023A4070001458280828014
:101D9000AA870DC5144105471305E0446392E60286
:101DA00023A0070023A2070023A4070023A60700FF
:101DB00023A8070023AA0700014582801305C04419
:101DC0008280411122C406C6014409C92A84EF1049
:101DD0005046004413341400EF10F0452285B24001
:101DE00022444101828025CD011122CC06CE26CA93
:101DF0004AC84EC62A841305C04491CDB2842E89A8
:101E0000EF103043AA8922856D3F09CD4E85EF1032
:101E100090421305D05DF2406244D2444249B24937
:101E2000056182801048835744004C444A85B3873B
:101E3000C702BE95EF80502C99C01C489CC08357A8
:101E4000440058484E858507B3F7E7022312F40093
:101E50001C44FD171CC4EF10103E01456DBF130557
:101E6000C0448280411122C406C626C2014419C959
:101E7000AA84EF10103CDC4880441D8C13341400FD
:101E8000EF10703B2285B24022449244410182808F
:101E90002DC9011122CC06CE26CA2A841305C044BE
:101EA0009DC11C481305E05D639FC7002EC6EF105F
:101EB0005038AA8422857D37B24519C92685EF108E
:101EC00090371305C05DF2406244D24405618280C0
:101ED0001048835764004844B387C7023E95EF809B
:101EE000B02183576400584826858507B3F7E70279
:101EF0002313F4001C4485071CC4EF10D0330145A4
:101F0000D9B71305C044828093575500D1073727AE
:101F10000020130707598A07BA971346F5FF85462D
:101F2000B396C6009043D18E94C38347470563742C
:101F3000F500230AA7048280B727002013870759DA
:101F4000834747058E07BA978843130505FB8280B0
:101F50003727002093070759A946238AD704130778
:101F60000759938607059CC3DCC3A107E39DF6FED2
:101F7000232807048280011122CC26CA4AC84EC6F3
:101F800006CE2A8903451502B727002093840759F6
:101F900093193500CE949840138407596393E40055
:101FA000A537B3073401944313070905F24062448F
:101FB000D8C2232A99042328D90498C3D244424979
:101FC000B24905618280011122CC26CA4AC84EC698
:101FD00006CE2A8903451502B727002093840759A6
:101FE00093193500CE949840138407596393E40005
:101FF000213FB3073401D84393060905F2406244F8
:1020000023289904232AE904D4C314C3D24442499F
:10201000B2490561828083A781840347150283C783
:1020200017026313F70045B7B9B7411122C406C6BA
:1020300026C22A84292125E97C483848034614020F
:10204000B72400205CC398C3138704599317360044
:10205000BA979843938404596311F7029357560033
:10206000D1078A07A69785461347F6FF3397E60000
:1020700094431347F7FF758F98C383C74405639450
:10208000C702B727002001449387075E31A01304DD
:1020900004021374F40F9107884375D9EF10B0252B
:1020A0002295238AA404B2402244924441018280B2
:1020B0003DC5011122CC26CA2A844AC806CE4EC686
:1020C000AE84EF1010170357C4008357E4002A8929
:1020D000631DF700EF10301613058070F240624464
:1020E000D2444249B24905618280930944004E8539
:1020F000EFF0DFB619C98357C4004A858507231658
:10210000F400EF1050130145D1BF268685454E855A
:10211000EFF09FC54A85EF1010124924EDB7130563
:10212000C04482801DC5411106C622C4AE876373B8
:10213000B600B2872316F5002A842317C5001105BF
:10214000EFF01FB185471CC0B24022440145410158
:1021500082801305C044828041667D16E1B739C58F
:10216000144105479307E0446394E604411122C4F7
:102170002A8406C626C24AC093044400EF10700B9E
:102180008D452A892685EFF07FBA2685EFF0BFAC12
:102190004A8523200400EF10100A0924B24022448B
:1021A0008147924402493E85410182809307C044A1
:1021B0003E8582808145EDBD011122CC4EC652C4C0
:1021C00006CE26CA4AC82A842E8AB289A52435EDAD
:1021D00041C0EF1010068357C4002A8999CFFD171C
:1021E0002316F400EF1030050145F2406244D2445A
:1021F0004249B249224A05618280B3673A0191E7B8
:10220000EF1070031305004BCDB7052419C54A859F
:10221000EF1070021305104BC9BF03A581845286CD
:10222000CE8693054400EFF0BFAB4A85EF10B000B7
:10223000B52283A781846244F240D2444249B24924
:10224000224AA85705616FF0FFA21305001971BF5C
:102250001305C04459BF011122CC26CA4AC84EC634
:1022600006CEAA842E84EF0010052A89AE89EF00DD
:102270009004B30725413335F500B3853541898D89
:10228000E3E785FE6314B400E3E397FEF2406244A3
:10229000D2444249B2490561828001A003A7018569
:1022A0008547631BF70083C7C1849306900F63E5DE
:1022B000F60085072386F184828003A70185854780
:1022C0006316F704411122C406C6EF10807683C757
:1022D000C1842A8491E72244B24041016F10A07565
:1022E000FD1793F7F70F2386F184F5F783C78185F0
:1022F000FDF3EFF07FC423AAA18483A78184631434
:10230000F5002285C9BFEF108073E5BF828083C7C7
:10231000C18413050019A9E303A7018585471305A7
:10232000401F631BF702411122C403C7818506C603
:102330009307900F1305802563ECE700EF10606FA3
:1023400083C781858507238CF184EF10C06E01451A
:10235000B2402244410182808280411122C483A77D
:10236000018526C206C685441305501F638D97005C
:10237000EFF09FBC23AAA18423A4A18423A8918465
:10238000EF10206C0145B24022449244410182800A
:1023900003A501857D1513351500828003A70185EE
:1023A0008547631FF70283C7C18403C78185D98F1F
:1023B00085EB411106C622C4EF10A0672A84EFF016
:1023C000BFB723AAA18483A781846318F50022855F
:1023D0002244B24041016F100066EF100066C5BF95
:1023E000828083C7C184130500199DEF03A701856F
:1023F00085471305401F6319F702411122C483C7A3
:10240000818506C61305506A81CFEF10806283C7AD
:102410008185FD17238CF184EF10E0614137014580
:10242000B240224441018280828003C581853335D8
:10243000A000828003C5C1843335A0008280B737F5
:102440000020938707471D8D13351500828083A7D1
:1024500081843385A74013351500828003A801834A
:1024600083A7C18237260000B7D50000373500208A
:102470008148254781461306A6299385C5C21305C1
:102480000547FDA8411106C6EF10E05DEFF05FAC17
:1024900037350020A1651305854FEFF04FC319E5CF
:1024A000753F09E5B24041016F00007FB240410134
:1024B0008280011122CC4AC82A844EC606CE26CA82
:1024C000EF1020573C4C13098405AA89631BF908B7
:1024D0008347040281E72285EFF03FB5834704027A
:1024E000858B99C32285AD2983470402898B81C7D7
:1024F0002285EFF06FF41C5C58584E855CC398C37E
:102500009307C4025CD41CD8930744035CD81CDC3A
:10251000930784043CC47CC4930704053CC87CC86E
:10252000A9472300F406A147232C2405232E2405C4
:102530002300F40223220400232404062322040699
:102540002326040623280406232A0406EF10A04E9F
:10255000B135F2406244D2444249B2490145056175
:1025600082808443138587FEA11493078501E301CC
:10257000F9F6EFF0CFBC9C4C2685938487FEF5B727
:10258000011122CC26CA4AC84EC652C456C25AC0ED
:1025900006CE2A842E8B3289B68ABA84BE89428AB4
:1025A000513D631D050E1305C04471C46305090C3C
:1025B0006383090C9307F0071305407763FD470B0E
:1025C000A5476394F40C22859D3D71C19307C40215
:1025D0005CD41CD8930784043CC47CC493070405D2
:1025E0003CC87CC8930784053CCC7CCCA94723001D
:1025F000F406B707002083A6072513074403232406
:102600000406232204062326040623280406232A7C
:102610000406D8C223A8E72454D83726000093869E
:10262000072585475CC0528714DC1306C66FCE862B
:10263000D6854A85EF1080463D46DA8508C0A3005E
:102640009402232C2401232E540123223403232417
:10265000440313058400EF80F00CEF10803DAA8442
:10266000230004022285EFF01F962685EF10A03C80
:10267000EFF01FD205E1F2406244D2444249B24930
:10268000224A924A024B05618280E3F197F41305D6
:10269000F076D5B7EFF09FD00145F1BF13050019D3
:1026A000D9BF411122C406C62A84EFF0BFD815ED68
:1026B00019E003A481842285EFF07FD90DE1584011
:1026C00085471305E0446314F7022285EFF03FD7F6
:1026D0001DE122852244B24041016FF09FDDEFF001
:1026E000DFD471DD1305406A19A013050019B2404B
:1026F0002244410182801305D076D5BF014555B7EC
:10270000411106C622C426C2EFF0DFD20DE5EF105C
:102710004032AA8403A58184EFF03F9103A5818410
:10272000EFF07F8A2685EF1000312244B2409244B8
:1027300041016FF0BFC6B240224492444101828001
:10274000011122CC4EC606CE26CA4AC852C456C271
:102750002A84AE89EFF01FCE61E11305C04415C095
:10276000A1471305F07663EE3701EF10802C834705
:102770001402AA8A63903703EF10E02BEFF01FC218
:102780000145F2406244D2444249B249224A924A47
:1027900005618280244C130A8405631F9A004E89C8
:1027A0008347040213F7270021C3A30024032285D3
:1027B000EFF08FCB5685C9B7A114294993878401BF
:1027C0006317FA00E37D39FD23003407D1BF138579
:1027D0004400EFF06FC4AA876373A900CA87844CD2
:1027E00013F9F70FA114D9BF13F7170001C7A300FE
:1027F0002403C9B7E1F32285EFF03F832285A300CC
:102800002403EFF0DFC409C52285EFF0CFF65DB7F2
:102810002285EFF04FFB79BF130500199DB7011119
:1028200022CC26CA06CE4AC84EC62A84AE84EFF011
:102830007FC09307001901EDEFF03FBF9307406A97
:1028400019E5B367940081EFEFF09FEB8147F24009
:102850006244D2444249B2493E8505618280FD57B7
:102860006316F40093075006E38384FEEF10601CA8
:10287000AA8903A58184A2852686192803A58184B7
:10288000EFF0AFFA4E85EF10001BEFF03FB17DBFC8
:10289000011122CC2EC62A8432C406CEEF10601954
:1028A00083A70181B2452246938787FB2CC070C065
:1028B0008146014713830181138E870463136E06DB
:1028C000B388D540B3BE15013308E6403308D8417C
:1028D000232014052322040563016E02B385B6404C
:1028E000B3B6B600118F158FB443F043B695B3B6A7
:1028F000D50032973697ACC3F8C3F84793068404E3
:10290000F4C72324C40578C414C3EF10C01283474E
:102910000402F24093E717002300F40262440561C9
:10292000828083A8070483AE4704B69833B8D800E2
:10293000BA9E7698E36606F96314C800E3E215F9D7
:10294000639A150163180601034F140283CE170220
:10295000E368DFF7BC47C6864287938787FBA9BF3A
:10296000411122C406C62A84EF10A00C3C44130770
:1029700084046388E704138787FB21C713870181D9
:102980006381E704344083284404F9553383D540F8
:1029900003A6C7FF33B8650093C5F8FFB3850541AB
:1029A00003A787FF63EDC5026314B6006369E30202
:1029B000BA9633B7E6004696329723ACD7FE23AEDD
:1029C000E7FE7844D8C31CC3EF10E0068347040237
:1029D000B240F99B2300F4022244410182807956DF
:1029E000FD5623ACC7FE23AED7FEE1BF011122CCBA
:1029F00026CA2A842EC606CE4AC8EF10800383A7B3
:102A0000018683A64186B24533868700B337F60038
:102A1000AE96B69723A2F18683A7018123A0C18633
:102A200093840181639997006244F240D244424901
:102A300005616F10400003A7C7FF2A8983A687FF9F
:102A4000138587FB63EFE5026314B700636BD40261
:102A500080438146014723ACD7FE23AEE7FE130433
:102A600084FB93078504638897023C417841D98FA2
:102A70009DE38945EFF00FA33C442285138487FB37
:102A8000CDB733848640B3B686000D8F158F23AC47
:102A900087FE23AEE7FE4A8541BF411106C6EFF02F
:102AA0003F8F19C5054581459137B240410105A2C7
:102AB000B24041018280411106C622C426C2EF0005
:102AC000507703A4018683A44186EF00D076228547
:102AD000B2402244A6859244410182808145828091
:102AE00081456FF0DFD3411122C406C62A84EF006E
:102AF0005074B70700201387070010484C44144750
:102B0000D0C1138746FF0CC2631F870098423E86E0
:102B10006305D700930647FF81EE7D57FD572320BD
:102B2000E6002322F6002244B24041016F00B0705B
:102B30005047144B23A0C70023A2D700EDB7411183
:102B400022C406C62A84EF00D06E1C4C03A6018660
:102B5000584C83A641863E96B337F6003697B706A3
:102B600000203E97938706009C47B705002010CCB5
:102B700058CCD11713830600938585009388C7002E
:102B8000639AB80203A807019305C4008CCB2326DF
:102B90001401232804012320B800832783006396AF
:102BA000F50023A0C60023A2E6002244B240410162
:102BB0006F00706803A8C701E36607FD6316E800AD
:102BC00003A88701E36006FDDC47D11745BF01116B
:102BD00022CC26CA370400200327440083A741865D
:102BE00006CE4AC84EC652C456C263EEE708631802
:102BF000F7000327040083A7018663E6E708EFF0E8
:102C00000FF1130404001C44B709002093898900C4
:102C100003A90700138447FF094A51198D4A9307F6
:102C2000C400639C37016244F240D2444249B24935
:102C3000224A924A05616FF0CFFA584C83A7418629
:102C4000E3E3E7FE6317F700184C83A70186E3EC84
:102C5000E7FC2285EFF03FE98357040363924703C3
:102C600018545C54228518CC5CCCEFF05FED5C40CE
:102C700008444A8482978327C900138947FF45B7D0
:102C8000232A5403EDB7F2406244D2444249B24988
:102C9000224A924A0561828001458280411126C202
:102CA000AA8437D50000130545C306C622C4EF80A9
:102CB000200137D40000130504C4EF80600037D52D
:102CC0000000A6851305C5C7EF70D06A37D5000090
:102CD00093850404130585C8EF70D069130504C4F7
:102CE0002244B240924441016F70907D55711306A9
:102CF00060068145281086C7A2C5A6C3CAC14EDF9B
:102D000052DD56DB5AD95ED762D566D36AD16ECF13
:102D1000EFD00FE30945EF00903E63590500AA8507
:102D200037D50000130545CBEF70D06437DA0000CB
:102D3000B7DA0000B7FC0020D28B568C938D8CC77D
:102D400037D600000148E1470147FD46130686CE0D
:102D50009305500A0145EF10007CB7D5000037D528
:102D600000009385C5CF130505D1EF00F03129464A
:102D700093050AD22810EF703038130600049385AB
:102D8000CAD213053103EF80E019B7D500006546BC
:102D9000938505D4C818EF70303685452810EFD0DC
:102DA000FF91B5654146938585BD2808EF70D03405
:102DB00041462C080A85EF7030340A85EFD05F91C8
:102DC0006309051237D500001305C5D5EF70506FA4
:102DD0004808EFD0FF98FD576300F502524785473A
:102DE000630EF710B7D50000938545CA37D50000AC
:102DF000130505D9EF7010583724002037D600008E
:102E00001306C6D99305A0081307CCD293860BD21C
:102E1000130584A4EF70B06E373600001306C6C9E0
:102E20008145130584A4EFD0BF8E630E050C37D502
:102E30000000130585DBEF70B0683724002013060F
:102E4000A0088145130544ADEFD08FCF37D60000E1
:102E50001307CCD293860BD2130686DE9305A00807
:102E6000130544ADEF70B06937D600000148E14763
:102E700001479306007E130646E09305500A01457C
:102E800037CB0020EF102069B724002013094BED49
:102E900037DD0000B7290020130600108145138597
:102EA0008484EFD0EFC91305800CEFF07FC3835803
:102EB0006900835749000357290083564BED37D6E5
:102EC0000000130686E1930500104688138584846C
:102ED000EF70F062138684848145130544ADEFD012
:102EE000FF811DC537D50000130545EAEF70505D21
:102EF00081BD37D50000130545D7C9BDB7D5000042
:102F0000938585C9E5B537D50000130505DD25B7DF
:102F100013054DECEF70D05A1305800CEFF05FBC39
:102F200013060010814513858994EFD06FC1039774
:102F30002D0083968CC737D60000130686EE9305C6
:102F4000001013858994EF70905B138689948145F6
:102F5000130544ADEFD08FFA01C937D50000130532
:102F600045F5EF70F0550DBF37D50000130585F717
:102F7000CDBF411106C6EFF07FD71D71B7D6000057
:102F80002AC62EC49386460C01468145080886CE83
:102F9000EFD09FB5B2472247B7D6000037B5002023
:102FA0000C089388C7041388B7009386860D130610
:102FB000007D13058550EFD01FCC0255F6407115EA
:102FC0003335A0003305A040256182801D71B7D63E
:102FD00000002AC62EC432C29386061401468145DB
:102FE000080886CEEFD05FB01248A2473247B7D666
:102FF0000000056637B500200C08938606151306F9
:1030000086BB13058550EFD01FC70255F6407115DA
:103010003335A0003305A040256182801D71B7D6ED
:1030200000002AC62EC49386061D01468145080865
:1030300086CEEFD07FABA2473247B7D6000037B578
:1030400000200C089386061E1306007D130585508C
:10305000EFD07FC20255F64071153335A00033051D
:10306000A040256182801D71B7D600002AC69386D4
:10307000861F01468145080886CEEFD0FFA632475D
:10308000B7D6000037B500200C08938686201306BB
:10309000007D13058550EFD01FBE0255F640711517
:1030A0003335A0003305A040256182801D71B7D65D
:1030B00000002AC62EC493860628014681450808CA
:1030C00086CEEFD07FA2A2473247B7D6000037B5F1
:1030D00000200C08938606291306007D13058550F1
:1030E000EFD07FB90255F64071153335A000330596
:1030F000A040256182805971B7D60000A2D4CAD001
:103100002A849386C60F0146814508080969A6D21C
:10311000CECED2CCD6CA86D6AD44EFD0FF9CB7D99E
:1031200000001309097137BA0020914AFD1499E88B
:103130007D55B650265496540659F649664AD64AE5
:10314000656182808347D4008348C40003288400DB
:103150003EC018405C409386C9104A860C0813058F
:103160008A50EFD05FB182576388570181451305BC
:10317000803EEFF0CFEA5DBF014565BF5D718146DE
:10318000014681450A8586C6EFD01F96B7D6000056
:1031900037B500208A859386C6121306803E130534
:1031A0008550EFD0FFA34245B6407D153335A000D2
:1031B0003305A040616182801D712AC681460146A7
:1031C0008145080886CEEFD03F923247B7D600003F
:1031D00037B500200C089386060B1306803E1305B6
:1031E0008550EFD0FF9F0255F6407D153335A00086
:1031F0003305A040256182805D718146014681458D
:103200000A8586C6EFD05F8EB7D6000037B500209E
:103210008A859386462E1306007D13058550EFD0D0
:103220003F9C4245B6407D153335A0003305A04094
:10323000616182801D71B7D600009386C616A2CC4C
:103240002AC632842EC401468145080886CEA6CA05
:10325000EFD09F89B7D500009385C5072285EF7011
:1032600090462285EF703048A2473247B7D600001B
:10327000B7B400201308E5FF938606171306803EB7
:103280000C0813858450EFD01F9F025791477D553E
:10329000631EF702B7D600009386C6180146814523
:1032A0000808EFD07F842285EF70F04305662A87F7
:1032B000A286130686BB0C0813858450EFD0BF8707
:1032C000025571153335A0003305A040F640664421
:1032D000D64425618280357122CD814613060004D3
:1032E0008C082A84080806CF26CBEFD0EFFFB7D68C
:1032F000000037B500209386C6191306803E0C08DF
:1033000013058550EFD0DF8D825485476388F40024
:103310007D55FA406A44DA440D6182804245B7D552
:1033200000009385051BEF7030427DD1B7D50000BA
:1033300070009385051CEF70F027324501E52320CE
:103340000400C1BFE31695FC08C00145D9B735712B
:1033500026CBB7C4002022CD05462A84814513859B
:10336000448E06CF02C202C423160100EFE09FDBA9
:1033700049E5FD557D561385448EEFE0FFE3B7D652
:10338000000093868623130600048C080808EFD0FB
:10339000AFF5B7D6000037B5002093864624130654
:1033A000007D0C0813058550EFD0FF8C0257914724
:1033B0000145631FF702B7D500001307040154004D
:1033C0002286938545258808EF70D01E01478147E6
:1033D000A94650003A960346060009CAB387D702A9
:1033E0000507938707FDB297E315D7FE5CC4014537
:1033F000FA406A44DA440D6182807D55D5BF397147
:1034000026DAB72400204AD8130600148145138514
:10341000844037B9002022DC4ED652D456D25AD03E
:103420005ECE06DE0144EFC0BFF1CA89930A2002D6
:10343000130BC002930BF003138A844005469305D7
:10344000F10013058950EFD0AFE585476310F50A09
:103450008347F100E38457FF638A6701E3C08BFE73
:1034600033078A002300F7000504C9BF372900206D
:103470009307000413098940631CF402A30F090297
:103480000144930AC002294A05469305F1001385B9
:103490008950EFD0EFE08547631AF5048347F100C8
:1034A000638C570133044403938707FD3E94E9BFBF
:1034B0004A9423000400E9B79307001063F48700DF
:1034C000130400100904228693050904138589500A
:1034D000EFD00FDD631CA400372500201306001475
:1034E0009385844013058556EFD03FEAF25062542D
:1034F000D2544259B259225A925A025BF24B21617C
:103500008280797137B5002035466C0013058550EF
:1035100006D6EFD0EFD8B5476310F502B7D5000057
:103520009385852A6800EF70302219C537C50020C1
:103530001305458EEFE01FC8B25045618280797156
:1035400026D2B7B4002022D44AD04ECE52CC06D6D2
:1035500056CA5AC80144268A9309C0022949054619
:103560009305F10013858450EFD08FD38547631105
:10357000F5068347F10063973707930A0008B729D8
:10358000002037CB0020A28463F48A009304000853
:10359000C204C1802686938509B613058A50EFD0F0
:1035A0002FD02A89631695022A86938509B61305BA
:1035B0008B8CEFD09F97635DA000330424414204BD
:1035C000418071F037B500201305854FEFE09FBEB5
:1035D000B250225492540259F249624AD24A424BA2
:1035E0004561828033042403938707FD3E9442049F
:1035F0004180B5B71D71A2CC37C4002081451305A9
:10360000448F86CEEFD0BFA811C57D55F6406644E5
:10361000256182808146014681450808EFD0CFCCE4
:10362000B7D6000037B500209386062D1306007D1F
:103630000C0813058550EFD0AFDA02578547E31623
:10364000F7FC9547FD567D5770008D451305448F57
:10365000EFD05FA65DF932457D153335A000330507
:10366000A0406DB71D71A6CAB7C40020A2CCCAC8BD
:103670002E842A892E86AA851385848C86CECEC672
:10368000EFD09F8209C97D55F6406644D64446492D
:10369000B64925618280B7B900200546814513856A
:1036A000894FEFE03FA865F18146014681450A85D3
:1036B000EFD08FC3B7D6000037B50020228793869E
:1036C00006221306C0128A8513058550EFD04FD10C
:1036D00042478547E319F7FAFD557D561385894F13
:1036E000EFE09FAD2286CA851385848CEFD0FF89D9
:1036F00061BF411122C437B50020372400201306D2
:103700007002930504BE1305855006C626C2EFD08D
:103710002FB993077002631BF502B7D5000093859C
:10372000852B930404BE130504BEA3830402EF702B
:10373000B001B7C70020854511E189452244B24058
:1037400092441385478F41016FD0DFA7B2402244D6
:1037500092444101828037D500001D71130585F91F
:1037600086CEA2CCA6CACAC8CEC6D2C4EF70405577
:10377000B7D60000938606FC014681450A85056997
:10378000EFD08FB6AD44B7D900001309893837B4EC
:103790000020114AFD1491E437D5000013050508F7
:1037A000A9A0938689FC4A868A8513058450EFD0A8
:1037B0008FCCC247E39047FF8146014681450A8589
:1037C000EFD08FB2B7D60000938686071306803EEF
:1037D0008A8513058450EFD0AFC042478547630AFE
:1037E000F70037D50000130585FDEF70604D7D555E
:1037F00061A08146014681450A85EFD0EFAEAD4418
:1038000037D900008549FD1491E437D50000130530
:10381000C505E1BF930649FF1306803E8A8513055F
:103820008450EFD0EFBBC247E39F37FD814601468E
:1038300081450A85EFD04FABAD44B7D900000549AB
:1038400031A80147938649001306803E8A851305F7
:103850008450EFD0EFB8C24763892701FD14F5F01B
:1038600037D500001305450149B737D500001305CA
:103870004503EF70E0440145F6406644D6444649AE
:10388000B649264A256182801D71A6CACAC8CEC61D
:103890002A89AE898146014681450A859D64A2CC6C
:1038A000D2C4D6C2DAC086CE2D44EFD0EFA337DA29
:1038B000000093840453B7BA0020054B7D1401EC3B
:1038C0007D55F6406644D6444649B649264A964A4E
:1038D000064B25618280CE874A8793068A09268611
:1038E0008A8513858A50EFD0AFAFC24763876701DF
:1038F0001305007DEFF0CF9ED1B70145D9B737074B
:103900000020AA8637260020B7D5000037B5002052
:103910004111914713070701130686C09385052CB3
:103920001305855006C6EFD0EFBE01ED3705002028
:1039300013050503EFC0BFCE09E5B24041016FC0DA
:103940003FCFB2407D554101828037F700E01C43F4
:10395000860785831CC3828037F700E01C43B706C7
:103960000080D58F1CC382806FF01FFFB7F700E087
:1039700023A0070023A20700814694C70147D8C7A8
:103980001306F5FF90CB8146D4CB3D4798C3828088
:103990001375F50FB7E700E02386A7408280B7E7ED
:1039A00000E041572387E740056723A0E710116730
:1039B00023A0E71082805D7182E686E48AE28EE0D1
:1039C00012FE16FC1AFA1EF82AF62EF432F236F01F
:1039D0003AEE3EEC42EA46E872E676E47AE27EE0CF
:1039E0008A8203A1818116C0EFE09F9A19C9EFE096
:1039F000FF8AB7F700E023A20700EFF00F8AEFE09D
:103A0000DF8B02413660A660166186617272E272D7
:103A10005273C2733275A275127682767267E2674C
:103A20005268C268326EA26E126F826F616173005B
:103A300020306FC0AFFD6FC0CFFD6FF0FFF16FF0B2
:103A4000BFF2411106C6EFC02FFD411122C42A84E6
:103A50001305000F06C6EFF0BFF322852244B240E3
:103A600041016FF0BFF0138781811C43411106C6ED
:103A7000F117F19B1CC3B707002003A6872483A678
:103A8000C72403A501828145EF50600423A2A184CD
:103A9000EFF0BFFBB24041016FF07FF03697719BB2
:103AA000B7E8EAAC2A8E130847F8130507F88546ED
:103AB0002943938808D0930E0002B3C76602110809
:103AC00033EF660292078506B3E7E701B3E7170114
:103AD000232EF8FEE393D6FF8E872326F7F8A167FF
:103AE000938707882324B7FA2324C7F82322F7F8FB
:103AF0002320C7F982804177698FAA87014519E39E
:103B0000C2074145370700FF7D8F19E3A207210552
:103B1000370700F07D8F19E392071105370700C0C2
:103B20007D8F19E38A07090563C6070099C3050558
:103B300082800905828039718545714506DE22DC67
:103B400026DAEF40B02E854513050060EF40102EB9
:103B50003165EF40D0193715014085444C001305FD
:103B600005C02312910002C6EF4020769307C003E0
:103B70004C0037150140372401402312F10002C6E2
:103B8000EF40A07413050440EF40C02285473ECAB1
:103B90003ECC0C08B7070E00130504403ECE2302AE
:103BA000910202C802D0EF40A025854513050440CC
:103BB000EF40802A814513050440EF40403B130548
:103BC0000440EF40602A930404402685EF40602AB9
:103BD0006DFD1305044037240140EF40002A930493
:103BE00004402685EF40002A6DFD13050440EF4098
:103BF00080392394A186854513050440EF40203782
:103C0000F2506254D25421618280011122CC3724B7
:103C100001409D460546A1451305044006CE26CA2F
:103C20004AC84EC6EF400028854513050440EF40C2
:103C3000E0259304044089452685EF40A0326303C4
:103C4000051A13050440EF40603137C900202314E2
:103C5000A9EC9D46130504400546B145EF4080247C
:103C600013050440854537240140EF40202293048A
:103C7000044089452685EF40E02E630A05161305AA
:103C80000440EF40A02D930789EC2391A7009D46A7
:103C9000130504400546B545EF40C0201305044018
:103CA000854537C40020B7240140EF40201E13048F
:103CB00084EC9389044089454E85EF40A02A630D2A
:103CC000051213850440EF4060292312A4009D468D
:103CD000138504400546B945EF40C01C13850440D8
:103CE0008545B7240140EF40601A93890440894517
:103CF0004E85EF4020276306051013850440EF40F2
:103D0000E0252313A4009D46138504400546BD45C8
:103D1000EF404019138504408545B7240140EF402A
:103D2000E0169389044089454E85EF40A023630F38
:103D3000050C13850440EF406022AA892314A400D7
:103D4000035589EC37D90000B7C40020EF60E03A92
:103D5000032689338326C933EF50D031EF6000301A
:103D6000239AA4EC03552400938444EDEF60E038DB
:103D7000032689338326C933EF50D02FEF60002EFE
:103D80002391A40003554400EF60203703268933B4
:103D90008326C933EF50102EEF60402C2392A400ED
:103DA00003556400EF606035032689338326C933E9
:103DB000EF50502CEF60802A2393A4004E85EF60D3
:103DC000C033032689338326C933EF50B02AEF600E
:103DD000E028F24062442394A400D2444249B2490C
:103DE0000561828081450545EFE07FA3A9B5814546
:103DF0000545EFE0DFA2B5BD81450545EFE03FA2F7
:103E00005DBD81450545EFE09FA1D5B581450545DF
:103E1000EFE0FFA009BF7300203037D500005D71CF
:103E20001305053482E686E48AE28EE012FE16FC73
:103E30001AFA1EF82AF62EF432F236F03AEE3EEC7A
:103E400042EA46E872E676E47AE27EE0EF605067A6
:103E5000EF40D046AA8537D500001305C534EF6082
:103E60007051EF401046AA8537D500001305C535BF
:103E7000EF605050EF405045AA8537D5000013053C
:103E8000C536EF60304F01A01D71A2CE374400400F
:103E9000930550521305044082E686E48AE28EE0E0
:103EA00012FE16FC1AFA1EF82AF62EF432F236F03A
:103EB0003AEE3EEC42EA46E872E676E47AE27EE0EA
:103EC000EF40702B09CD13050440EF407029937526
:103ED000F50F37B5002013058550EFC09FFA7644E3
:103EE0003660A660166186617272E2725273C273A6
:103EF0003275A275127682767267E2675268C2687E
:103F0000326EA26E126F826F2561730020301D71B8
:103F1000A2CE37240040930550521305048082E658
:103F200086E48AE28EE012FE16FC1AFA1EF82AF6E1
:103F30002EF432F236F03AEE3EEC42EA46E872E611
:103F400076E47AE27EE0EF40102309CD1305048089
:103F5000EF4010219375F50F37C5002013058590AC
:103F6000EFC03FF276443660A660166186617272D9
:103F7000E2725273C2733275A275127682767267DC
:103F8000E2675268C268326EA26E126F826F25615C
:103F9000730020301D71A2CE37240040930550528B
:103FA000130504C082E686E48AE28EE012FE16FC67
:103FB0001AFA1EF82AF62EF432F236F03AEE3EECF9
:103FC00042EA46E872E676E47AE27EE0EF40B01A32
:103FD00009CD130504C0EF40B0189375F50F37B540
:103FE000002013058550EFC0DFE976443660A660F7
:103FF000166186617272E2725273C2733275A27573
:10400000127682767267E2675268C268326EA26E7A
:10401000126F826F256173002030411122C48565C3
:1040200037140140130504C09385058006C6EF4090
:104030000037130504C093050040EF40403622448A
:10404000B240114541016F4070190111854521456C
:1040500006CEEF40A05D8567938707C02312F1006D
:1040600037150140D1473EC64C008D47130505C0AA
:104070003EC4EF408025EFF05FFAF2400561828098
:10408000411122C426C237140140856493850480FF
:10409000130504C006C6EF408030930500401305A9
:1040A00004C0EF40C02F1145EF40501393850480AA
:1040B000130504C0EF40E02E1145EF403012130508
:1040C00004C093050040EF40C02D2244B24092440A
:1040D000114541016F409010411122C426C237148E
:1040E0000140856493850480130504C006C6EF4033
:1040F000402B93050040130504C0EF40402A1145B2
:10410000EF40D00D130504C02244B24093850480D3
:10411000924441016F40A028011122CC4EC63714B1
:104120000140856926CA4AC852C456C206CE2A89A9
:10413000814493890980130404C09D4A214A05459E
:10414000EFE01F9A93178901E187CE85228563DE10
:104150000704EF40C0241145EF405008930500408C
:104160002285EF40C0231145EF40500793050040E2
:104170002285EF40002363965401CE852285EF40CF
:10418000002285040609114593F4F40F1379F90F01
:10419000EF40D004E39544FBF2406244D2444249EC
:1041A000B249224A924A05618280EF40801F65B77A
:1041B000411122C426C237140140856493850480CE
:1041C000130504C006C6EF40801D1145EF401001E5
:1041D00093050040130504C0EF40601C1145EF40FB
:1041E000E07F93850480130504C0EF40201AAA8461
:1041F00093050040130504C0EF40A01A1145EF409D
:10420000E07DB240224433359000924441018280E7
:10421000411122C426C2371401408564938504806D
:10422000130504C006C6EF40C0171145EF40007BE0
:1042300093050040130504C0EF4060161145EF40A0
:10424000E07993050040130504C0EF408015114547
:10425000EF40C078130504C02244B2409385048027
:10426000924441016F40A013411122C48565371467
:10427000014093850580130504C006C6EF40201257
:104280001145EF40A07593050040130504C0EF40B1
:1042900000111145EF408074130504C093050040E0
:1042A000EF4020102244B240114541016F4000739D
:1042B00001114AC84EC637190140856922CC26CA69
:1042C00052C406CE2A8AA1440144130909C0938925
:1042D00009800545EFE0DF80930500404A85EF4007
:1042E000000C1145EF40806F0604CE854A8513749B
:1042F000F40FEF40A00901C505041374F40F9305F2
:1043000000404A85EF40E009FD14114593F4F40F95
:10431000EF40C06CDDFC631D0A00EFF0FFF4228566
:10432000F2406244D2444249B249224A0561828045
:10433000EFF01FEEEDB701114AC84EC63689B289BB
:10434000FD167D16C2064206C182418222CC52C4AD
:1043500056C206CE26CA2A8A2E84BA8A9D2363664E
:104360002403F2406244D2444249B249224A924A6A
:104370000561828085045685C204E529C180E3EB8E
:1043800034FF050442044180D9BFD284CDBF41111E
:1043900022C4AE8632842A8606C62523228522447C
:1043A000B2404101F9A15971CAD013D917003AD2CC
:1043B00013777900A2D436C632849396070113D6B8
:1043C00047003337E0003297C182DAC83E8BB387AB
:1043D000E6021306F5FF1387F5FFBA964A96C20662
:1043E00042064182C182A6D2CECEDEC6E2C4E6C279
:1043F000EAC06EDEAA893ECA86D6D2CCD6CAAE84C0
:1044000042D4C121130604FE1376F60F93176600FB
:10441000130700033ED0B307E6023147B96B356C92
:10442000B56C4E8D814D0144938B4BDE130C4C7F4C
:104430003ECE931746003ECCB307E602938C0C3871
:104440003EC8BD67938747FB3ED6D24713960D0102
:1044500041826361F602B650265496540659F649D5
:10446000664AD64A464BB64B264C964C064DF25DF4
:104470006561828031466319CB02C2473386B7013A
:104480006696834A0600014AA25733D64A41058AF6
:10449000A1EB29C632450504E92E1374F40F3376D7
:1044A00024032DE601448DA041466317CB00E2476B
:1044B0003386FD006296F1B761466317CB00F24781
:1044C0003386FD005E9675BF13060002E315CBF838
:1044D00082573386FD00B2573E9665B7125565BFC9
:1044E00011C63246A6856A85EFF07FEA93061D0065
:1044F000139D0601135D0D0133063D41631826012E
:104500008504C204C1804E8D850D81B7050AA1477F
:10451000E31CFAF6D5BF797122D426D24AD04ECE0A
:1045200052CC56CA5AC85EC606D62A842E8AB2848F
:10453000B68A3A8BC28B3E8993D9170003C6040012
:1045400001EEB250225492540259F249624AD24AC0
:10455000424BB24B4561828022854E945E88CA8769
:104560005A87D686D2854204EFF0FFE34180850466
:10457000F1B75D7152DC56DA3E8A938AF6FF9357A3
:104580001800A2C4A6C2CAC04EDE5AD85ED662D4F3
:1045900066D26AD06ECE86C62A8D2E89328CBA89B2
:1045A000C28B3EC693FCFA0F814D81441304F00F79
:1045B000294B63918C02B640264496440649F25931
:1045C000625AD25A425BB25B225C925C025DF24D4F
:1045D00061618280668785477D171377F70F6310C7
:1045E0008704B357FC02B3F7670313F6F70F85ECA4
:1045F00063DB5D0385EB0148DE875287CE861306B9
:1046000000026A85CA85EFF01FDAB247FD1C850DEE
:104610003E9D420D135D0D0193FCFC0F59BFB38706
:1046200067035DBF85440148DE875287CE86130647
:104630000603C1BF39716EC6BE8DB7D7000087A70C
:10464000C7374AD822DC5375F51026DA52D456D231
:104650005AD0531915C05ECE62CC420966CA6AC8E8
:1046600006DE4ED62A8AAE8AB284368BBA8B1359AE
:1046700009010144130DF00F294C93DC1D00636107
:104680009402F2506254D2544259B259225A925A68
:10469000025BF24B624CD24C424DB24D21618280A2
:1046A0009386F4FF338786401377F70F85477D178E
:1046B0001377F70F631FA705B357F9021385E4FFBC
:1046C000B3F987036315A40213F4F60F0148EE87CC
:1046D0005E87DA861306E002D685850493F4F40F2C
:1046E0003385AC02529542054181EFF0DFCB338533
:1046F0008C020148EE875E87DA8613860903D68529
:1047000005041374F40F529542054181EFF0BFC9BF
:10471000BDB7B387870361BF011152C456C2368A41
:10472000B28AFD167D16AE962A96C2064206C18250
:10473000418222CC26CA5AC006CE4AC84EC6BA8486
:10474000131B1A00BD2A0144631E5403F240624445
:10475000D2444249B249224A924A024B05618280C0
:1047600003C5090005094209192203C51900135997
:1047700009018909ED28E31549FF05044204418038
:10478000DA94D9B7A6890149FDB70111854513050A
:10479000000606CE22CC26CA4AC802C237290140EA
:1047A00002C402C6EF3090688D47C1440D444C00EE
:1047B000130509802312F10026C622C4EF30F03021
:1047C0000546130509808D45EF30F03D22C43714AE
:1047D0000140AD474C00130504402312F10026C6EA
:1047E000EF30B02E1305044001468545EF30B03B55
:1047F000130504400546A945EF30F03AF240624403
:10480000D24442490561828001114AC84EC6372907
:104810000140B719014022CC26CA06CEAA84214401
:104820001309098093890940014689454A85EF307B
:10483000903793978401E187054663C307000146DB
:1048400089454E85EF3030367D14054689454A85C9
:1048500086041374F40FEF30103593F4F40F69F4F9
:10486000F2406244D2444249B249056182806FF00D
:10487000BFF9411122C42A84218106C6EFF0DFF876
:104880001375F40F2244B24041016FF0FFF741115C
:1048900022C43724014026C20146AA848545130557
:1048A000048006C6EF3030302685EFF0FFF51305A3
:1048B00004802244B24092440546854541016F3050
:1048C000902E011122CC2A841305A00206CE36C2F6
:1048D0002EC632C4EFF0BFFB2285EFF09FF92246CF
:1048E0003285EFF01FF91305B002EFF05FFAB24521
:1048F0002E85EFF01FF892463685EFF09FF7624461
:10490000F2401305C00205616FF07FF8411106C641
:1049100022C4EFF09FE7371401400146A14513057B
:104920000440EF30502813054006EF40800B054649
:10493000A14513050440EF30102713054006EF4052
:10494000400A0146854513050440EF30D025130584
:104950004006EF4000094545EFF07FF3130580075F
:10496000EF40200813056003EFF07FF20145EFF000
:10497000BFE91305A003EFF09FF11545EFF0DFE865
:104980001305200BEFF0BFF03145EFF0FFE73145A5
:10499000EFF09FE70145EFF03FE713053003EFF03D
:1049A000BFE613053003EFF03FE61305700BEFF0A1
:1049B0001FEE13055003EFF03FE51305B00BEFF0CA
:1049C0001FED13052003EFF03FE41305200CEFF07B
:1049D0001FEC0545EFF05FE31305300CEFF03FEB04
:1049E0005545EFF07FE21305400CEFF05FEA130549
:1049F0000002EFF07FE11305600CEFF05FE93D4549
:104A0000EFF09FE01305000DEFF07FE81305400A7B
:104A1000EFF09FDF1305100AEFF01FDF1305000E04
:104A2000EFF0FFE61305000DEFF01FDE2145EFF07C
:104A3000BFDD3945EFF05FDD2545EFF0FFDC2545B3
:104A4000EFF09FDC1545EFF03FDC13051003EFF0AE
:104A5000BFDB13053003EFF03FDB13058004EFF0FD
:104A6000BFDA5D45EFF05FDA5145EFF0FFD955450C
:104A7000EFF09FD913051003EFF01FD91305400382
:104A8000EFF09FD81305100EEFF07FE01305000D37
:104A9000EFF09FD72145EFF03FD73945EFF0DFD654
:104AA0002545EFF07FD62545EFF01FD65545EFF0B1
:104AB000BFD513051003EFF03FD513053003EFF01A
:104AC000BFD413058004EFF03FD45D45EFF0DFD392
:104AD0005145EFF07FD35545EFF01FD31305100379
:104AE000EFF09FD213054003EFF01FD21305100221
:104AF000EFF0FFD92244B2401305900241016FF05C
:104B00001FD9011185451305400406CE22CC26CAC3
:104B100002C202C402C6EF3070313724014093074D
:104B2000C0032312F1008D44C1474C0013050480DB
:104B30003EC626C4EF306079130504809145EF30FE
:104B4000100613050480A145EF307005130504809D
:104B5000C145EF30D0041305048093050002EF3007
:104B6000100493073010371501402312F1004C0058
:104B7000930780041305058026C43EC6EF30E07419
:104B8000F2406244D24405618280411122C437144C
:104B9000014085451305048006C626C2EF30007F1C
:104BA000AA84894513050480EF30407EE98C930583
:104BB00000101305048093F4F40FEF30207D658D11
:104BC00039E93D45EF30F061854513050480EF304C
:104BD000E07BAA84894513050480EF30207BE98CB3
:104BE000930500101305048093F4F40FEF30007A5E
:104BF000658D15E113050480EF30E079137715001A
:104C0000AA87054511CB13F72700094511C793F76C
:104C100007100D4591C30145B24022449244410121
:104C20008280011122CC37160100416401489307AC
:104C3000000201479306F4FF1306464C81450145E7
:104C400006CE26CA4AC84EC6EFF0FF8C37160100C2
:104C50000148C14701479306F4FF1306864D9305AB
:104C600080020145EFF03F8B414881471307F4FF75
:104C70008D461306000F9305800213050003EFF025
:104C80005F8FB71401001386044E0148C1470147E6
:104C90009306F4FF9305800213050005EFF0BF872C
:104CA000414881471307F4FF8D461306000F930513
:104CB000800213050008EFF0DF8B1386044E0148D5
:104CC000C14701479306F4FF9305800213050005D1
:104CD000EFF07F84371601000148C1470147930672
:104CE000F4FF1306864E930560040145EFF0BF8282
:104CF000530500F0C14701479306F4FF11469305A1
:104D0000600413050008EFF0FF92930480074569E3
:104D10009309000F014422851304840242041307FF
:104D200049849306800213068002A6854180EFF035
:104D3000BF9EE31234FF93848402C204C180E39BCC
:104D400084FC6244F240D2444249B2493715010022
:104D50001305C54F05616F50B076411122C437F479
:104D60000020930704EA06C683C7670505471304B6
:104D700004EA6385E706A1CF09476386E7060D4786
:104D80006388E7068345C402371501001305855F74
:104D9000EF50505E835544053715010013054561FA
:104DA000EF50505D6C443C4437150100B205D1838F
:104DB000DD8D13054562EF50F05B2C482244B24074
:104DC000371501001305C56341016F50B05A3715FF
:104DD00001001305C559EF50B06E6DB737150100CE
:104DE0001305455BCDBF371501001305C55CE5B75D
:104DF000371501001305455EF9BF3971130520030E
:104E000006DE22DC26DA4AD84ED6EF30903DEF207F
:104E1000300085679387D70E3E95420541819147C3
:104E200063EAA714C167938747770A053E951C413B
:104E300082873715010013054565EF5070683715F7
:104E400001001305C569EF50B06769468145480008
:104E5000B7140100EF20D00801446949A6895C001D
:104E6000A29783C507001385046C0504EF5090508A
:104E7000E31724FF371401001305446CEF5050640E
:104E8000371501001305856CEF5090630145EF2045
:104E9000007F1305401FEF30D03437150100130594
:104EA000056EEF50F061694681454800EF205003E0
:104EB000814469495C00A69783C507001385096C86
:104EC0008504EF50304BE39724FF1305446CEF50FB
:104ED000305F1305401FEF30D03037150100130548
:104EE000856FEF50F05D4564694681451305848206
:104EF000EF20F0151305401FEF30B02E69468145B5
:104F00004800EF20E07D371501004C0013050571C6
:104F1000EF50504669464C0013058482EF50701BD9
:104F2000C1660148C1470147FD1631C93716010066
:104F300013068671930500034145EFF0CFDDF25073
:104F40006254D2544259B25921618280371501000E
:104F500013050566DDB5371501001305C566F1BDFE
:104F60003715010013058567C9BD37150100130505
:104F70004568E1B537150100130545697DBD371654
:104F80000100130686727DB7011122CC06CE26CA17
:104F90004AC84EC652C456C237040100EF108059A9
:104FA00059EDEFF09FDB3705010013058579EF50D0
:104FB0003051B7F70020938707EAE047BC47370531
:104FC00001003204D1835D8C935514001305457A9A
:104FD000EF50503A37D9002081471306892713072D
:104FE0000020B386C7002380F6008507E39BE7FE19
:104FF00093542400370A01000144B7C90020B70ABE
:10500000010063978404C1663716010041450148D9
:10501000C1470147FD161306868193050005EFF091
:105020008FCF6244F240D2444249B249224A924A66
:10503000371501001305058205616F50704813058F
:105040008478EF50F0471305803EEF309019B9B7E0
:105050000546A28513058927EF20003611C5A285D4
:1050600013058A7BEF5010310546A285138509EEA2
:10507000EF20202B11C5A2851385CA7CEF50902FFD
:1050800013060020938509EE13058927EF5070045D
:1050900029CD37050100A2851305057EEF50902D1F
:1050A0004164370601009306F4FF0148C1470147F8
:1050B0001306867F930500044145EFF0CFC59306A4
:1050C000F4FF6244F240D2444249B249224A924A31
:1050D000371601000148C147014713068680930532
:1050E0000005414505616FF00FC3050419BF41116B
:1050F00006C622C426C2EF30500C71651305052088
:10510000EF30F01083A5018237150100130505511A
:10511000EF505026EFF0FF9EEFF04FFFEF20003AE8
:10512000B715010037150100938505521305855207
:10513000EF50502401479306000F1306000F8145DE
:105140000145EFF04F9FC166371601000148E14766
:105150000147938606801306865481451545EFF076
:105160008FBBEFD02FB20564B7C7002037360000E1
:10517000B715010037D500208148130804809387B4
:10518000070E05478146130626F79385C555130577
:105190008596EFD0EFBEB7E7002037560000B71571
:1051A000010037D500208148130804809387874782
:1051B000054781461306C659938505571305051FF4
:1051C000EFD00FBCEFD06F993715010013050558CC
:1051D000EF50102F1384A1868347040093F7F70F35
:1051E0008DC383470400094793F7F70F6380E702F5
:1051F0000D47638BE70205476394E700EFF07FA25A
:1052000001A0EFF09F982300A400E9B7014793069F
:10521000000F1306000F81450145EFF0CF91EFF02D
:10522000DFBDEFF07FD6E9BF01479306000F1306FD
:10523000000F81450145EFF00F90D9B7011126CA43
:10524000AA842EC606CE22CC4AC832843689860469
:10525000EFE01FE313F5E40FEFE01FECEFE05FF585
:10526000B24519C9EFE05FE705442285F240624488
:10527000D2444249056182802E85EFE0FFE9EFE0EC
:105280003FF3EFE0FFDF13E514001375F50FEFE0D8
:10529000BFE8EFE0FFF1854401E4EFE0FFE3F1B7A1
:1052A0000145630394000545EFF08F807D142300D2
:1052B000A9001374F40F0509C5B70111740009465C
:1052C000930510041305800606CEEFF03FF7034563
:1052D000C1008347D10022055D8D42054185EF4025
:1052E000D061B727010003A6878183A6C781EF405D
:1052F0006058B727010003A6078283A64782EF30D4
:105300009036EF409066B7D7000087A7C737F240C6
:105310005375F5100561531505C04205418582801E
:10532000011122CC26CA4AC8AE842A8932843400AC
:1053300019469305B0031305800606CEEFF01FF063
:105340000DE98347810003479100A207D98F2310FD
:10535000F9008347A1000347B100A207D98F23902A
:10536000F4008347C1000347D100A207D98F23105F
:10537000F400F2406244D244424905618280011146
:1053800006CE22CC26CA2E84AA84EFE07FCF130556
:10539000000DEFE07FD8EFE0BFE109C9EFE0DFD318
:1053A0000545F2406244D244056182802685EFE0E3
:1053B000BFD6EFE0FFDF2285EFE01FD6EFE05FDF33
:1053C0002AC669FDEFE05FD13245E1BF9315350094
:1053D00093F5850F6D456FF09FFA9315350093F5A2
:1053E000850F71456FF0BFF99307B00B854563E5F5
:1053F000A70293071006894563E0A702930790026E
:105400008D4563EBA700CD47914563E7A700A5470E
:10541000954563E3A700994569456FF05FF6411133
:1054200006C622C4114791476363E500AA873E85FB
:105430001317050141839307803E63F4E7001305CA
:10544000803E1314050141809305803EB3C585025B
:105450006545FD1593F5F50FEFF07FF21355140038
:105460002244B24041016FF03FF8011106CE22CC38
:105470002A84EFE0FFC01305000DEFE0FFC9EFE065
:105480003FD32285EFE05FC9EFE09FD2EFE05FBF3F
:105490001305100DEFE05FC8EFE09FD10145EFE08D
:1054A0003FE12AC6EFE05FC3F24062443245056146
:1054B000828001118545054506CE22CCEF300017CC
:1054C00085452145EF308016856793870780231235
:1054D000F10037140140C1473EC64C008D4713050B
:1054E00004C03EC4EF20705E3705300085451305CB
:1054F0000520EF20F06BA165130504C0EF20706A52
:10550000EFE0BFB4930500081305B006EFF03FE7E6
:10551000814513054006EFD08FB081451305B006D5
:10552000EFF0FFE50D45EFF07FEA0145EFF0FFEA10
:1055300013052003EFF0BFEE814513058003EFF064
:105540001FE481451305A006EFF07FE381451305B5
:105550003002EFF0DFE29305000813057003EFF06F
:105560001FE213055007EFF05FF013078006854731
:105570006311E50285451305B006EFF05FE0814554
:105580001305C006EFF0BFDF13052003EFF03FE97E
:105590008147F24062443E850561828037160100F2
:1055A00039710148E1470147FD46130686739305AB
:1055B000800C014506DE22DC26DA4AD84ED652D4CB
:1055C00056D25AD05ECE23000100230201002304EC
:1055D0000100EFE05FF4EF30403EEFF09FEDEFE0D1
:1055E0008FD5371601000148E1470147FD461306F4
:1055F00006759305800C014537F90020B7C90020D6
:10560000EFE07FF1B71B0100130489C7371B0100CE
:10561000B71A0100371A0100938449EDEFE0EFDE7D
:1056200013868B760148E1470147FD469305800CC0
:105630000145EFE05FEEEFF05FC82316A4000148DC
:10564000E1470147FD461306CB779305800C0145E2
:10565000EFE07FEC1306E1006C001305A100EFF012
:105660003FCC8317A1001307C0080148B3C7E70266
:1056700013864A79FD469305800C0145231CF9C623
:105680008317C100B3C7E7022311F4008317E100B9
:10569000B3C7E70201472312F400E147EFE0BFE799
:1056A0000316C4009307400693058A7AB366F60290
:1056B00028003346F602EF50806B0148E14701476E
:1056C0003000FD46F9450145EFE0FFE48316240074
:1056D000031689C7B71501009385057C0A85EF502D
:1056E00000690148E14701470A86FD4693057003BA
:1056F0000145EFE05FE283D6240003D649EDB715FC
:1057000001009385457D4800EF5060660148C14720
:1057100050000147FD46930580070145EFE0BFDFDC
:1057200003D7840083D6640003D64400B715010074
:105730009385857E4800EF50806350000148C14743
:105740000147FD46930510090145EFE0DFDC3726F0
:1057500001000148E1470147FD4613060680930515
:10576000800C0145EFE03FDB81451545EFD02F8BE5
:1057700075B5378701405C4393F707F05D8D48C3EB
:10578000828083C8B18683A7C186B725002093860F
:105790008555231AF50483D706009842230B150577
:1057A00013988700A1833368F8009357870113F695
:1057B000F70F8987BD8BA300F500DC4241832312DC
:1057C000050113D80701135366001378F80F0D8AEB
:1057D000A301E50013D787012301C5001207135663
:1057E0004800518F13D687002313E5001377F60F77
:1057F0002300650013537700A3046500135366402C
:1058000013731300230565001353564013731300DD
:10581000A305650013534640137313001378F80073
:105820002306650023040501A306050005439446ED
:1058300093858555637513010D436396682213D7CD
:1058400086019378F70F8A0713D3680093F7C73F51
:10585000B3E7670037030400130303C02A06337657
:1058600066000563130303C0337666000D87D18F8E
:105870001D8B13D60601230AE5001377F60F158357
:10588000230BE500135726401D8BA30BE50013D710
:10589000860093F878001377F70F0606A30A150120
:1058A000198A9358770033661601230CC500854882
:1058B00009063396C8001CC9850733980801B388C8
:1058C000C70223280505B327F6021356F841B3870C
:1058D000070333061603B2973386080333B8080369
:1058E00030C5C2977CC593576740858BA30CF500E4
:1058F000060793F7F60F93D677001377E707558FD0
:10590000230DE500D84593F7F707A30DF50093574E
:10591000870193D67700230ED50093D657408D8A02
:10592000A30ED50093D627409D8A230FD50093560A
:10593000070113F6F60F8A0793556600B18BCD8FDA
:105940009586A30FF500858A935787002300D5021B
:10595000058A93F6F70F2301C50213D67600A3013B
:10596000C50213D66740058A2302C50213D65740E5
:10597000058AA302C50213D64740058A2303C50240
:1059800037260020130686548D8A2304D50214423C
:1059900089878D8BA303F5021377F70F93D78601C1
:1059A0002306F502058393D70601A304E50293F7C6
:1059B000F70F13D786001377F70FA207D98F231796
:1059C000F5025C42E206416813D787001377F70FB0
:1059D000558F93D68701C206558F93D607017D1840
:1059E000A206B3F60601558F144618D9230AF5020C
:1059F000584693D78601A30AF5021396860093D7DB
:105A0000060133780601E20713568701B3E7070161
:105A1000D18FA2063706FF00F18ED58F0346C5034E
:105A20001CDD9357070193F6F70F9182D18E230E59
:105A3000D5028566938606F0A207F58F93568700F8
:105A400093F6F60F8545D58F1377F70F2305B5022B
:105A5000231FF502A300050205832300E504A3002C
:105A6000B504014582800946E39FC8E613D7860145
:105A700013D606011376F60F2207518FC207370699
:105A80003F00F18FD98F1CC9850713D6D700CE07E9
:105A900013D786003CC5930700201377F70F70C516
:105AA0003CC991B5411122C426C206C64164FD54C9
:105AB0007D14631C94001305F05FEF20904D0145A9
:105AC000B240224492444101828013050008EF2035
:105AD000704B79DD6DF00D45E5B7411106C622C466
