:020000040800F2
:1000000020B90020A1010008A16000084F440008A9
:100010009D600008D1150008DD6D0008000000009B
:10002000000000000000000000000000196500084A
:10003000D5150008000000004F0200081B650008ED
:10004000BB010008BB010008BB010008BB010008A0
:10005000BB010008BB010008BB010008D715000860
:10006000E1150008EB150008BB010008BB01000802
:10007000BB010008BB010008BB010008BB01000870
:10008000BB010008BB010008BB010008BB01000860
:10009000BB010008BB010008BB010008BB01000850
:1000A000BB010008BB010008BB010008BB01000840
:1000B000BB0100080000000000000000BB010008B8
:1000C000BB010008BB010008BB010008BB01000820
:1000D000BB010008BB010008BD6D0008CD6D000824
:1000E000BB010008BB010008000000000000000088
:1000F0000000000000000000000000000000000000
:1001000000000000BB01000800000000BB01000867
:100110000000000000000000BB010008BB01000857
:10012000BB010008BB010008BB010008BB010008BF
:10013000BB010008000000000000000000000000FB
:10014000BB010008BB010008BB0100080000000063
:10015000BB010008BB010008A55C0008BB0100084A
:10016000BB010008BB010008BB0100080000000043
:10017000BB010008BB0100080000000000000000F7
:10018000BB010008BB010008BB010008DFF80CD070
:1001900001F028F80048004775C5000820B9002084
:1001A0000648804706480047FEE7FEE7FEE7FEE711
:1001B000FEE7FEE7FEE7FEE7FEE7FEE71166000862
:1001C0008D01000872B6704762B67047EFF3108079
:1001D00072B6704780F310887047B0FA80F07047AD
:1001E00072B64EF62250CEF2000040F2FF01C0F28D
:1001F0000001017029480068006880F3088840F217
:100200004800C2F2000040F24C01C2F200010A684C
:100210000260106880F30988EFF3148040F0020058
:1002200080F31488BFF36F8FBDE8F00F01BC0FBCE3
:10023000BDE8005006BC62B6084719484FF080512F
:100240000160704716484FF080510160704772B6E8
:10025000EFF309801EF0100F08BF20ED108A40F860
:1002600004ED20E9F00F40F24805C2F200052E68C7
:10027000306040F24C01C2F200010A682A60106846
:10028000B0E8F00F50F804EB1EF0100F08BF00F0BC
:1002900009B880F3098862B67047000008ED00E0F5
:1002A00004ED00E0B0EC088AB0EC08CAFFF7F1BF3B
:1002B0002DE9F05F0546002092469B46884606469B
:1002C000814640241BE0284641464746224600F02E
:1002D000A8FD53465A46C01A914110D311461846FC
:1002E000224600F08FFD2D1A67EB01084F4622468B
:1002F0000120002100F086FD17EB00094E41201E71
:10030000A4F10104DFDC484631462A46434600F0AA
:1003100000B830BCBDE8C09F0649074A0868504392
:1003200043F23902104408604008704701490860F0
:1003300070470000B40100206D4EC64110B5431A4D
:10034000934209D28318881803E010F8011D03F8BE
:10035000011D521EF9D210BD40EA01039B0703D0D4
:1003600009E008C9121F08C0042AFAD203E011F8F4
:10037000013B00F8013B521EF9D210BDD2B201E0A0
:1003800000F8012B491EFBD270470022F6E710B59A
:1003900013460A4604461946FFF7F0FF204610BDF3
:1003A00030B505462A460B4612F8010B13F8014BEF
:1003B00008B1A042F8D01CB1002802D06D1CF1E7B2
:1003C000284630BD10B5044604E00B7800F8013B28
:1003D00003B1491C521EF8D2204610BDCAB2401EBD
:1003E00010F8011F8A4202D00029F9D1002070477D
:1003F000421C10F8011B0029FBD1801A704710B570
:10040000002200E0521C835C8C5CA34201D1002BD3
:10041000F8D1D8B2E1B2401A10BD10B5044600E0E0
:10042000401C0378002BFBD100E0401C521E04D37B
:1004300011F8013B0370002BF7D100210170204619
:1004400010BD30B505460020034600E05B1C93421A
:1004500005D2EC5CC85C201A01D1002CF6D130BD6D
:100460000246C9B200E0401C0378002BFBD102E039
:1004700003788B4203D0401E9042F9D2002070478F
:100480000FB400B58DB010A909900B9000914FF0FA
:10049000FF300A9000200C90054806900548079010
:1004A0006A4609A80F9900F0EFFC0DB05DF814FB47
:1004B000A50E0008C30E00082DE9FF4F1C4681B0B1
:1004C0000021D4E9016791464FF0FF358A468846FE
:1004D000A1696D1C02988847216A834688470028D5
:1004E000F6D1BBF1FF3F0CD026F4C066002F1ADD19
:1004F000700615D5BBF12B0F0AD0BBF12D0F0FD114
:1005000004E04FF0FF3005B000F081B846F480669B
:10051000A1696D1C029888477F1E8346002F02DD6B
:10052000BBF1300F03D0B9F1000F2AD025E0A1694B
:100530006D1C46F400767F1E029888478346002F84
:1005400005DDBBF1780F06D0BBF1580F03D0B9F130
:10055000000F10D011E0B9F1000F02D0B9F1100F67
:100560000BD1A1696D1C26F400767F1E0298884786
:100570008346102000E0082081464FEAE970009091
:1005800017E00A20F8E74346AAFB092803FB098085
:10059000DDF800C07F1E0AFB0C0112EB0B0A41EBD9
:1005A000EB78A16946F4007605F1010502988847C9
:1005B0008346002F06DD4946584600F050FC5FEAAE
:1005C000000BE0D5E16902988847B00502D46FF0CE
:1005D000010098E7F00718D1700610D57005514654
:1005E00005D50023D1EB030163EB080200E042468E
:1005F0002068031D23600068C0E9001205E0206840
:10060000011D21600068C0E900A828467BE730BCD6
:10061000BDE8C08F2DE9FF5F1D464FF0FF3BD5E9D8
:10062000014691465F464FF00008A9697F1C01987A
:100630008847296A824688470028F6D1BAF1FF3FE9
:100640000CD024F4C064002E19DD600614D5BAF174
:100650002B0F09D0BAF12D0F0ED103E0584604B08C
:1006600000F07EB844F48064A9697F1C0198884733
:10067000761E8246002E02DDBAF1300F03D0B9F1AA
:10068000000F26D032E0A969761E44F400747F1C66
:10069000019888478246002E05DDBAF1780F06D012
:1006A000BAF1580F03D0B9F1000F10D01EE0B9F124
:1006B000000F02D0B9F1100F18D1A969761E24F4E9
:1006C00000747F1C019888478246102002E00820B1
:1006D00000E00A20814609E008FB0908A969761EA6
:1006E00044F400747F1C019888478246002E05DD83
:1006F0004946504600F0B3FB0028EDDAE96901985D
:100700008847A00502D46FF00100A8E7E00725D1D3
:10071000600613D5600502D5C8F1000000E0404630
:1007200029680A1D2A600968220501D5087015E0AC
:10073000220701D5088011E008600FE02868011D3C
:1007400029600068210502D580F8008006E02107B5
:1007500002D5A0F8008001E0C0F8008038467EE7AE
:1007600030BCBDE8C09F2DE9FF5FD2E901A74FF083
:100770000008916999461446DDF838B0464601985C
:100780008847054659EA0B0005D009E0A169761CA7
:10079000019888470546216A284688470028F5D1F0
:1007A000681C03D05FEACA7005D015E04FF0FF3037
:1007B00004B000F048B82068011D2160D0F8008026
:1007C0000AE05FEACA7001D108F8015BA169761CF2
:1007D0007F1E019888470546002F1ADD681C18D037
:1007E000B9F1000F0DD0E81705EBD060421120F0F1
:1007F0001F0059F822102A1A012090400142E0D12E
:1008000007E0BBF1000FDCD1216A284688470028A9
:10081000D7D0E16901988847BBF1000F07D1002EBE
:1008200005DD5FEACA7002D1002188F80010A068D7
:10083000B84203DDBBF1000F03D017B16FF0010028
:10084000B6E73046B4E730BCBDE8C09F2DE9FF4FA6
:10085000087883B09946FF2805D0491C2D2804D07C
:100860000024002008E000200BE00124F9E700EB61
:10087000800003EB4000491C0B78FF2BF7D104B13B
:10088000404200230293147819461D462D2C01D0B6
:100890002B2C04D1521C2D2C13D000240294AA46D8
:1008A0001478FF2C0FD00A25A3FB057801FB0581E6
:1008B0004FF0000C03FB0C11521CE3194AEB010131
:1008C000EEE70124EAE7814453EA010002D019F57A
:1008D000C87F06DA03980021C0E9001107B000F0D4
:1008E00065B90025AE4E2F46DFF8B882184600F0F5
:1008F0003CFCCDE90001B9F1000002DAC9F10004C5
:1009000000E004460023A74A1AEB030B42EB045A0B
:1009100012E0E00707D02A4633463846414600F049
:1009200048F9074688462A4633461046194600F0DD
:1009300040F905460E466410002CEAD1DDE90001BD
:10094000B9F1000F5A46534606DA00F0A7F93A46C5
:10095000434600F0A3F905E000F02BF93A46434680
:1009600000F027F9029A0AB181F00041039AC2E926
:100970000001B3E72DE9FF4F1F468DB0D7E90146CF
:100980004FF0FF382E2045464FF000090B90B96913
:100990006D1C0E988847396A824688470028F6D130
:1009A000BAF1FF3F0AD024F4D064002E11DDBAF171
:1009B0002B0F08D0BAF12D0F0BD102E0404611B039
:1009C0008DE744F48064B9696D1C0E9888478246AF
:1009D000761E6946600501D52D2000E02B208DF89C
:1009E000000001F1010B0DF1200809E0B9696D1C4F
:1009F0000E98884782460F9844F40074761E05606E
:100A0000002E02DDBAF1300FF0D00B998A453ED1AD
:100A100044F0800406E00F99681CA9F1010944F430
:100A200000740860B9696D1C761E0E98884782466E
:100A30003028F0D02BE00B998A4505D1200603D44D
:100A400044F08004761E18E0504607F0E5F908B33C
:100A50000DF11301761E44F400748B4508D2AAF1FF
:100A600030000BF8010B200607D5A9F1010003E0C7
:100A7000200602D409F101008146A00502D50F9994
:100A8000681C0860B9696D1C0E9888478246002E64
:100A9000D1DC53E0002E51DDBAF1650F02D0BAF17E
:100AA000450F4BD1A00549D5B9696D1C24F440749C
:100AB000761E0E9888478246002E0CDD2B2804D027
:100AC000BAF12D0F07D144F48074B9696D1C0E98EA
:100AD00088478246761EE00501D52D2100E02B21B6
:100AE00008F8011BCDF82C8021E00DF12901761EBC
:100AF00044F4007488450CD2AAF1300010F0FF00D5
:100B000088F8000002D10B99884509D908F101083D
:100B100006E0E00501D5244801E042F20F7081466D
:100B2000B9696D1C0E98884782460F980560002EA3
:100B300004DD504607F070F90028D6D1F9690E9807
:100B40008847FF208BF8000088F8000000200690FE
:100B500007904B466A4608A906A8FFF777FEA0054E
:100B600002D46FF001002AE714F0240F0AD0E00746
:100B700014D1DDE906123868031D3B600068C0E946
:100B800000120BE0DDE9060100F00AF90146E0077A
:100B900004D13868021D3A600068016028460EE7FB
:100BA000000014400000F03FF1D8FFFF30BCBDE86A
:100BB000C08F2DE9FE4F81EA030404F0004421F0C8
:100BC000004100944FF0000B23F0004350EA010471
:100BD0005ED052EA03045BD0C3F30A54C1F30A5552
:100BE0002C44A4F2F3340194A0FB0254C1F313018A
:100BF00041F48011C3F3130343F4801301FB024457
:100C000000FB034E840A970A44EA815447EA83575B
:100C1000A4FB076802958D0A05FB07854FEA932C14
:100C200004FB0C542705029D4FEA065847EA163785
:100C3000B5EB08056EEB070C870E920E47EA81179D
:100C400042EA8312A7FB0201B6EB0B0164EB00043E
:100C50002B0D43EA0C335E1844EB1C50DA46514628
:100C6000E7FB0201C5F313044FEA0B3343EA1453C5
:100C70004FEA0432019C43EA0603A4F10C040294F7
:100C8000009CCDE900B400F073F903B000F003B8A4
:100C900000200146F9E730BCBDE8C08F2DE9F04DDA
:100CA00081EA030404F0004B21F0004514464FF0A4
:100CB000000A23F0004150EA050220D054EA010264
:100CC0001DD0C5F30A570246C5F31303C1F3130041
:100CD000C1F30A5640F4801543F48013A7EB0608CD
:100CE000101BD64608F2FD3873EB050002D308F15D
:100CF000010801E092185B41B8F1000F03DA00200F
:100D00000146BDE8F08D00204FF480110646844670
:100D10000EE0171B73EB050705D3121B63EB0503EE
:100D200006434CEA010C49084FEA300092185B4137
:100D300050EA0107EDD152EA030012D082EA040022
:100D400083EA0501084305D0101BAB4106D20122FE
:100D5000002306E000224FF0004302E06FF00102A2
:100D600053101AEB06004CEB085110EB0A0041EB54
:100D70000B01BDE8F04D00F0ECB800F0004230F09F
:100D800000400AD0C10D01F56071C0F3160042EABF
:100D90000151C208400711437047002001467047C7
:100DA00001F0004330B421F0004150EA010206D0C6
:100DB0000A0DA2F56072C1F31301002A02DC30BCF7
:100DC00000207047440F44EAC104C100E01830BC61
:100DD00000EBC25000F086B830B50B46014600204B
:100DE0002022012409E021FA02F59D4205D303FAED
:100DF00002F5491B04FA02F52844151EA2F101026E
:100E0000F1DC30BD202A04DB203A00FA02F1002098
:100E100070479140C2F1200320FA03F31943904038
:100E20007047202A04DB203A21FA02F000217047A3
:100E300021FA02F3D040C2F1200291400843194642
:100E40007047000000487047A8DF010810B504464D
:100E5000FFF7F8FF0068005D00F0010010BD3A28C0
:100E600000D2303820F02002412A01D3A2F137000D
:100E7000884201D34FF0FF307047000002681144F0
:100E80001378016018467047D160044951610449E4
:100E9000116200211161114600F0C8B97D0E0008F1
:100EA0004D0E0008426842B1016811F8013B23B1C0
:100EB000521EC0E90012184670470121C160881E09
:100EC000704742685AB1C368016843B983688B426E
:100ED00005D0491E521CC0E90012002070474FF097
:100EE000FF3070470029A8BF7047401C490008BF69
:100EF00020F00100704710B4B0FA80FC00FA0CF04A
:100F000050EA010404BF10BC704749B1CCF1200481
:100F100021FA04F411FA0CF118BF0121214308430E
:100F2000A3EB0C01CB1D4FEA00614FEA102042BF3A
:100F3000002010BC704700EBC35010440029A4BF30
:100F400010BC7047401C490008BF20F0010010BCD5
:100F5000704710B5141E73F1000408DA401C41F10B
:100F6000000192185B411A4301D120F0010010BD2D
:100F70002DE9F04D92469B4611B1B1FA81F202E0A3
:100F8000B0FA80F220329046FFF73CFF04460F464D
:100F900040EA0A0041EA0B0153465A46084313D07F
:100FA000114653EA010019D0C8F140025046FFF73C
:100FB00038FF05460E46504659464246FFF722FF87
:100FC000084305D0012004E020463946BDE8F08DF5
:100FD0000020054346EAE0762C4337430A98630530
:100FE000E40AA0EB08000022FD0A44EA47540A3054
:100FF00002D500200146E9E7010510196941DDE944
:10100000084500196941BDE8F04DA2E72DE9FE4F02
:10101000804681EA0300C00F0C46009021F0004199
:1010200023F00045B8EB0200A94105D24046214615
:1010300090461C460B46024623F00040104347D022
:10104000270DC7F30A00C3F30A510290401A01901A
:1010500040286BDAC3F3130040F4801B00989246DB
:1010600020B10023D2EB030A63EB0B0B0198594626
:10107000C0F140025046FFF7C5FE06460D465046F9
:101080005946019A00F0C0F810EB080061410024B5
:1010900087EA115284EAE7731A4340D0009A62B398
:1010A000019A012A4FEA075215DC001B61EB02018D
:1010B0004FF0004202EA0752CDE90042001C41F520
:1010C000801132462B46FFF753FF03B000F045B8BE
:1010D00040462146F9E7001B61EB0201001C41F587
:1010E000801300185B412018A2F5001747EB03019D
:1010F00040EAD570B6196D4111E06D084FEA360629
:1011000045EAC0754FEA0752001B61EB0201001C63
:1011100041F5801149084FEA30000019514132462B
:101120002B4603B000F01CB8FFF713BF0098012254
:1011300040000023D0EB020263EBE07300982146ED
:101140004FEAE074B8EB000061EB0401E9E783F0DB
:1011500000435BE781F0004158E730BCBDE8C08F39
:1011600030BCBDE8C04FFFF7DFBF0EB540F23342E1
:1011700002920022CDE900221346FFF7F9FE03B0E8
:1011800000BDC1F30A52C1F3130140F2FF3341F431
:1011900080119A4202DA00200146704740F2334340
:1011A0009A42A2F2334202DC5242FFF73ABEFFF704
:1011B00029BE000030B5041E71F1000404DB4FF0BD
:1011C0000044404264EB0101141E73F1000405DB8E
:1011D0001C464FF00043524263EB0403994208BFA0
:1011E000904230BD064C074D06E0E06840F0010338
:1011F00094E8070098471034AC42F6D3FEF7CAFFD4
:1012000048E7010868E70108202A06DBCB17203AE7
:1012100041FA02F043EAE07306E041FA02F3D040FB
:10122000C2F1200291400843194670472DE9F34F5F
:101230008BB04FF0000801F10C000C464FF0010B91
:1012400046460DF1080A0190626901210198904714
:10125000051E2DD0252D2CD0216A8847C0B162698A
:10126000012101989047216A88470028F7D1411E43
:1012700062690198904700E0761CA1690B98884745
:10128000216A88470028F7D1E1690B988847DBE796
:10129000A1690B9888470746A84201D1761CD3E77D
:1012A000E1690B9888477F1C02D1B8F1000F6FD01D
:1012B00046E1002762693D463946019890472A2851
:1012C00004D162690121019890470125DFF88492D9
:1012D0006269012101989047A0F130010A290AD2E0
:1012E0004F45E5DC07EB870100EB4107303FDFD4DA
:1012F00045F01005ECE7E90601D46FF000476C28D3
:101300000AD04C2814D0682815D06A280DD074282B
:101310001CD07A281AD01DE06269012101989047FB
:101320006C2802D045F0040514E045F002050DE0FC
:1013300045F020050AE0626901210198904768287C
:1013400002D045F0080505E045F400656269012119
:1013500001989047C4E9015765283DD019DC582809
:101360007AD00CDC452837D004DC252826D041284B
:1013700031D131E046282FD047282CD12CE05B28F2
:1013800077D0612828D063287CD0642823D15AE004
:10139000D0E06F2848D008DC66281DD067281BD015
:1013A000692821D06E2816D127E0702845D07328EF
:1013B00068D0752847D078280DD14DE0A1690B98E9
:1013C0008847054625283FF469AFE1690B988847AF
:1013D0006D1C3FF46AAFB3E023466A466FF001002C
:1013E0000B99FFF7C7FA9EE045F040006060A80740
:1013F00023464FF0000236D43EE0E8077FF447AFC3
:101400002068011D21600068290501D506701BE7D1
:10141000290701D5068017E7A90703D5F117C0E909
:10142000006111E706600FE745F040006060A80723
:1014300023464FF0080216D41EE040F60E0125EABE
:101440000100606016E045F040006060A807234698
:101450004FF00A0207D40FE045F040006060A80793
:1014600008D5234610226FF001000B99FFF724F8EE
:1014700059E007E0234610226FF001000B99FFF7B7
:10148000C9F850E04FF000094F464B46632802D0A0
:101490005B2806D040E0E80601D40120A0600127C7
:1014A0003AE062690121019890475E2805D14FF02A
:1014B00001096269494601989047216939B90021BB
:1014C0000A46534643F82120491C0829FADBB0B3E9
:1014D000216969B9C11700EBD16253110AEB83018D
:1014E00022F01F02821A01200B68904003430B6018
:1014F00062690121019890475D28E8D1B9F1000F98
:1015000009D00020514651F82020D24341F8202034
:10151000401C0828F7DB02AB224600976FF0010061
:101520000B99FFF720F900280CDA401C08D1BBF119
:10153000000F05D04FF0FF300DB000F00DB8FFE701
:101540004046F9E7E90701D108F1010806444FF0E8
:10155000000B79E6CCCCCC0C30BCBDE8C08F70B5AC
:101560008C1810F8015B15F0070301D110F8013B4E
:101570002A1106D110F8012B03E010F8016B01F8D5
:10158000016B5B1EF9D12B0705D40023521E0DD42D
:1015900001F8013BFAE710F8013BCB1A921C03E07B
:1015A00013F8015B01F8015B521EF9D5A142D8D3B3
:1015B000002070BD1CB501200190FF20012301AA6D
:1015C00046210090014800F0EBFE1CBDB414002041
:1015D00000BFFEE7704710B5022000F0B5FC10BD5B
:1015E00010B5042000F0B0FC10BD10B5082000F0CC
:1015F000ABFC10BD704700002DE9F84F05460C46C6
:101600004FF0000A00200090FE49E068884200D0B8
:1016100000E000BF00BF95F85000012802D1022071
:1016200000F050BA012085F8500000BF286804F08F
:101630000FFB002872D1606805281AD8606802285C
:1016400006D0032807D0042808D005280DD108E0CB
:101650000C2060600CE01220606009E018206060DF
:1016600006E04FF48070606002E00620606000BF1A
:1016700000BF2968D4E9002001F1300CC0F3012B30
:101680000CEB8B03D3F800C000F01F0E4FF01F0BC4
:101690000BFA0EFB2CEA0B0C00F01F0BC2F3846E4E
:1016A0000EFA0BFE4CEA0E0CC3F800C000BF28680F
:1016B00004F0CEFA8146286804F0BBFA8046B9F1FE
:1016C000000F2AD1B8F1000FFBD1A2682168286869
:1016D00004F0C3FA60692968C968C1F3C10149000F
:1016E00000FA01F72069042819D0286822682169C6
:1016F00000F1600C0CEB8103D3F800C0DFF808B3F5
:101700000CEA0B0C02F0F84B4BF0004B4BEA070BCA
:101710004CEA0B0CC3F800C000BFA8E0B8E1002100
:10172000286804F07DFAC0F3120030B9002128685F
:1017300004F076FAC0F3846007E00021286804F022
:101740006FFA90FAA0F0B0FA80F02168C1F31201AC
:1017500019B92168C1F3846104E0216891FAA1F10B
:10176000B1FA81F1884204D100221146286804F0C0
:101770008EFA0121286804F053FAC0F3120030B940
:101780000121286804F04CFAC0F3846007E00121CD
:10179000286804F045FA90FAA0F0B0FA80F02168C9
:1017A000C1F3120119B92168C1F3846104E0216811
:1017B00091FAA1F1B1FA81F1884204D1002201210C
:1017C000286804F064FA0221286804F029FAC0F3BA
:1017D000120030B90221286804F022FAC0F38460B4
:1017E00007E00221286804F01BFA90FAA0F0B0FA92
:1017F00080F02168C1F3120119B92168C1F3846135
:1018000004E0216891FAA1F1B1FA81F1884204D192
:1018100000220221286804F03AFA0321286804F023
:10182000FFF9C0F3120030B90321286804F0F8F979
:10183000C0F3846007E00321286804F0F1F990FA0E
:10184000A0F0B0FA80F02168C1F3120119B9216843
:10185000C1F3846104E0216891FAA1F1B1FA81F148
:10186000884204D100220321286804F010FA286875
:1018700004F0E4F9002870D12868E2682168D0F803
:10188000B0C0C1F312032CEA030C02F0180B5F4B3B
:1018900023FA0BF30B404CEA030CC0F8B0C000BFB6
:1018A0005849E068884258D12368C3F312031BB932
:1018B0002368C3F3846304E0236893FAA3F3B3FAC1
:1018C00083F35B1C03F01F03092B3ED82368C3F38B
:1018D00012031BB92368C3F3846304E0236893FAFB
:1018E000A3F3B3FA83F35B1C03F01F034FF0010C67
:1018F0000CFA03FC2368C3F312031BB92368C3F378
:10190000846304E0236893FAA3F3B3FA83F35B1CC4
:1019100003F01F034CEA836C2368C3F312031BB963
:101920002368C3F3846304E0236893FAA3F3B3FA50
:1019300083F35B1C03F01F0303EB43034FF0000B27
:101940004BEA03534CEA03033FE02368C3F312035B
:1019500023B92368C3F3846305E03BE0236893FA6B
:10196000A3F3B3FA83F35B1C03F01F034FF0010CE6
:101970000CFA03FC2368C3F312031BB92368C3F3F7
:10198000846304E0236893FAA3F3B3FA83F35B1C44
:1019900003F01F034CEA836C2368C3F312031BB9E3
:1019A0002368C3F3846304E0236893FAA3F3B3FAD0
:1019B00083F35B1C03F01F030A3B03EB43034FF06D
:1019C000007B4BEA03534CEA03031946A2682868DC
:1019D00004F043F90E492068084078B300BF0D4871
:1019E000806800F0E07600BF0B49206888422DD166
:1019F00006F4000050BB0949286888424ED146F4DD
:101A000000010DE000007F4000F0FF03FFFF070032
:101A10000000088000030450000052C7000004507A
:101A2000224804F02EF9224800682249B0FBF1F068
:101A3000401C00EB40008000009003E016E000989E
:101A4000401E009000980028F9D127E01A4920682C
:101A500088420CD106F0807048B91849286888423D
:101A60001CD146F08071114804F00BF916E01449BE
:101A70002068884212D106F4800078B90F4928689E
:101A800088420BD146F48001084804F0FAF805E0DA
:101A9000686D40F0200068654FF0010A00BF00202B
:101AA00085F8500000BF5046BAE50000000304501E
:101AB00034000020400D0300000084CB00000450DF
:101AC0000100008018BCBDE8E08F00002DE9F8435C
:101AD00004464FF000090020009014B90120BDE831
:101AE000F883206920B12020005D012800D100BFCB
:101AF000606D30B9204600F0E9F80020A06584F858
:101B0000500020688168C1F3407131B1206881685C
:101B1000674A1140816000BF00BF206804F093F85D
:101B2000B0B920688168634A114041F080518160FA
:101B300000BF614800686149B0FBF1F0401C400003
:101B4000009002E00098401E009000980028F9D113
:101B5000206804F078F848B9606D40F010006065C6
:101B6000A06D40F00100A0654FF00109206804F06D
:101B70006FF80646606D00F0100000287ED1002E40
:101B8000FCD1606D20F4807040F002006065206838
:101B900004F054F868B94A4804F050F848B960684D
:101BA0004849896821F47C110143464A916000BF8D
:101BB00000BF607E616B41EA4030E1680843A16884
:101BC00008432021095D40EA01452020005D0128ED
:101BD00003D1A08C401E45EA4045A06A28B1208D63
:101BE00000F47070E16A084305432068C068364914
:101BF000084028432168C860206804F029F880461E
:101C0000206804F016F80746B8F1000F2CD127BB66
:101C1000207E002141EA803194F8300041EA4005FD
:101C20002068C06844F20201884328432168C860E4
:101C300094F83800012811D1E06B40F00101206CCC
:101C40000843616C0843A16C08432168096940F2AC
:101C5000FC72914308432168086105E0206800692F
:101C600020F0010021680861206901280BD120685B
:101C7000006B20F00F00E169491E00E010E008430E
:101C80002168086305E02068006B20F00F002168E0
:101C90000863606D20F0020040F00100606505E01F
:101CA000606D40F0100060654FF00109484616E78E
:101CB000C0FFFF5FC0FFFF7F34000020400D030026
:101CC000000004500003045007C0F0FF10B586B0B8
:101CD0000446142101A8FEF758FB154920688842E4
:101CE00024D100BF1348C06C40F400501149C864AF
:101CF0000846C06C00F40050009000BF00BF00BF59
:101D00000846C06C40F00400C8640846C06C00F08F
:101D10000400009000BF00BF042001900B2002903F
:101D20000020039001A9044800F01CF906B010BD82
:101D30000000045000100240000800480146002244
:101D400091F82500022808D00420C86300BF0020B5
:101D500081F8240000BF012070470868006820F067
:101D60000E000B6818600868006820F001000B681E
:101D7000186091F8440000F01C03012098400B6C9F
:101D80005860012081F8250000BF002081F8240060
:101D900000BF1046E0E770B50446002594F8250022
:101DA000022803D00420E063012520E020680068B9
:101DB00020F00E00216808602068006820F0010013
:101DC0002168086094F8440000F01C01012088405C
:101DD000216C4860012084F8250000BF002084F8B1
:101DE000240000BFA06B10B12046A16B8847284695
:101DF00070BD000070B5044600F000FA06462546A6
:101E0000681C10B104480078054400BF00F0F6F9E2
:101E1000801BA842FAD370BD3000002010B50446E4
:101E200014B120460DF0F7F910BD0000F0B50B46D7
:101E3000002176E001258D4005EA0302002A6FD0DB
:101E40003A4D8E0855F826408D072E0F0F25B540C8
:101E50002C40B0F1904F01D1002514E0344DA84240
:101E600001D101250FE0334DA84201D102250AE03E
:101E7000314DA84201D1032505E0304DA84201D1E2
:101E8000042500E007258E07360FB540A54221D175
:101E90002B4D2D6895432A4E3560351D2D68954391
:101EA000361D3560351D2D689543361D3560351D51
:101EB0002D689543361D35608D072E0F0F2505FAC9
:101EC00006F41A4D8E0855F82650A543174E8F0874
:101ED00046F8275005684F000326BE40354305608D
:101EE000CE0800F1200555F826504E07F70E0F26B4
:101EF000BE40B543CF0800F1200646F8275085685C
:101F00004F000326BE40B5438560466801258D40DD
:101F1000AE434660C5684F000326BE40B543C5606A
:101F2000491C23FA01F5002D84D1F0BD08000140C1
:101F30000004004800080048000C00480010004859
:101F4000000401407047000010B5044604480068D2
:101F5000204020B1024804602046FFF7F3FF10BD87
:101F60001404014078B503460022CBE001269640D8
:101F70000D6805EA0604002C72D04D68012D08D0CA
:101F80004D68022D05D04D68112D02D04D68122DDF
:101F900013D1986856000325B540A8435600CD6874
:101FA000B54028439860586801259540A8430D79AD
:101FB000C5F30015954028435860D868560003259E
:101FC000B540A84356008D68B5402843D8604D6899
:101FD000022D02D04D68122D13D1D60803F1200531
:101FE00055F826005507EE0E0F25B540A8435607B5
:101FF000F60E0D69B5402843D60803F1200545F8D3
:102000002600186856000325B540A8430D7905F051
:1020100003055600B540284318604D6805F080550B
:10202000B5F1805F6DD100BF394D2D6E45F00105D2
:10203000374E356635462D6E05F00105009500BF1B
:1020400000BF4FEAB635960855F8260095072E0FC3
:102050000F25B540A843B3F1904F02D1002515E0FC
:102060004FE02C4DAB4201D101250FE02A4DAB4290
:1020700001D102250AE0294DAB4201D1032505E03B
:10208000274DAB4201D1042500E007259607360F06
:10209000B5402843234D960845F82600224D286870
:1020A000A0434D6805F48035B5F5803F00D120434D
:1020B0001D4D28602D1D2868A0434D6805F400358E
:1020C000B5F5003F00D12043174D2D1D28602D1D73
:1020D0002868A0434D6805F48015B5F5801F00D130
:1020E0002043114D083528602D1D2868A0434D68F8
:1020F00005F40015B5F5001F00D120430A4D0C353D
:102100002860521C0D68D540002D7FF42FAF78BD9C
:10211000001002400004004800080048000C00487D
:102120000010004808000140000401400AB181612C
:1021300000E0816270470000FEB5044600BF64B94C
:1021400019A01CA101239422CDE90104009120498A
:1021500020480EF075FB2048FEBD00BF26464FF418
:1021600082713046FEF711F90A221C49304609F007
:1021700086FB054630221A4906F10B0009F07FFB69
:1021800005434022174906F18D0009F078FB05430D
:1021900045B115A00123B2220D4900900D480EF063
:1021A0004FFB0D4D2846D7E76465765F696E666F15
:1021B00000000000496E76616C6964206172677589
:1021C0006D656E742C202573203D20257000000065
:1021D00021DA010878E1010815FCFFFF2901002040
:1021E000340100206501002047657420646576692C
:1021F000636520696E666F20657272000148006831
:102200007047000028000020024692F84100202874
:102210002DD100BF92F84000012801D10220704763
:10222000012082F8400000BF242082F8410010689D
:10223000006820F00100136818601068006820F43E
:1022400080501368186010680068084313681860AD
:102250001068006840F0010013681860202082F8C0
:10226000410000BF002082F8400000BFD7E70220F5
:10227000D5E710B502460B4692F8410020282AD136
:1022800000BF92F84000012801D1022010BD0120BA
:1022900082F8400000BF242082F8410010680068E6
:1022A00020F00100146820601068016821F470615A
:1022B00041EA0321106801601068006840F00100E5
:1022C00014682060202082F8410000BF002082F8BE
:1022D000400000BFDAE70220D8E7000010B504464E
:1022E0000CB9012010BD94F8410028B9002084F8F1
:1022F0004000204600F004F9242084F841002068C2
:10230000006820F0010021680860606820F07060BB
:10231000216808612068806820F400402168886096
:10232000E068012805D1A06840F400402168886079
:1023300004E0A06840F4044021688860E068022856
:1023400002D1800221684860206840681349084330
:10235000216848602068C06820F400402168C86097
:10236000D4E904010843A16940EA01202168C8605A
:10237000D4E907010843216808602068006840F03C
:1023800001002168086000206064202084F841007A
:102390000020206384F8420000BFA3E70080000211
:1023A0002DE9F8430446894616461F46DDF820808D
:1023B00094F84100202871D100BF94F84000012812
:1023C00002D10220BDE8F883012084F8400000BF5C
:1023D000FFF714FF054619230122D103204600957B
:1023E00002F0B2F808B10120ECE7212084F84100A6
:1023F000102084F842000020606466626785606394
:10240000608DFF280BD9FF2020853B48009094F871
:102410002820C3024946204602F07CF80AE0608D7D
:1024200020853548009094F828200303494620462B
:1024300002F070F83FE02A464146204602F0DEF8FE
:1024400008B10120BEE7606A007821688862606A8E
:10245000401C6062608D401E6085208D401E20857E
:10246000608D40B3208D30BB434600228021204642
:10247000009502F069F808B10120A3E7608DFF28FC
:102480000DD9FF2020850020009094F828204FF0DF
:1024900080734946204602F03DF80CE02AE0608D4A
:1024A00020850020009094F828204FF000734946C2
:1024B000204602F02FF8608D0028BCD12A46414604
:1024C000204602F070F808B101207BE72020216847
:1024D000C861206840680949084021684860202098
:1024E00084F84100002084F8420000BF84F84000D6
:1024F00000BF67E7022065E70020008000E800FEDB
:1025000010B586B00446142101A8FDF73EFF184916
:102510002068884229D100BF1648C06C40F00200F4
:102520001449C8640846C06C00F00200009000BF67
:1025300000BFC020019012200290012003900320D0
:1025400004900420059001A90B48FFF70BFD00BF84
:102550000848806D40F40010064988650846806D83
:1025600000F40010009000BF00BF06B010BD0000D6
:102570000054004000100240000400480348006876
:102580000349097808440149086070472800002081
:102590003000002010B50024032000F013F90020C3
:1025A00000F008F808B1012401E000F035F82046F9
:1025B00010BD000070B50446002511480078D8B160
:1025C0000F4800784FF47A71B1FBF0F00D490968BB
:1025D000B1FBF0F6304601F09BFA58B9102C07D247
:1025E00000222146501E00F0ABF80748046004E0CA
:1025F000012502E0012500E00125284670BD00000C
:1026000030000020340000202C00002010B50446CB
:1026100020460CF0E8FD10BD08B500BF0D48006E67
:1026200040F001000B4908660846006E00F001000A
:10263000009000BF00BF00BF0846806D40F0805092
:1026400088650846806D00F08050009000BF00BF94
:1026500008BD00000010024070B52020FFF7D6FF33
:1026600005460DB9002070BD28460CF04BFE04460F
:1026700024B12846FFF7D2FB0020F4E72846F2E712
:1026800070B5044604B970BD20460CF06AFE0546DC
:102690002046FFF7C3FB00BFF5E770B5054605B957
:1026A00070BD28460CF0ACFE044624B140F2E9307F
:1026B000844200D0F4E700BFF2E770B5054605B9E3
:1026C00070BD28460CF03CFF044624B140F2E930CE
:1026D000844200D0F4E700BFF2E7000010B50146E5
:1026E0000846002817DB00F01F0301229A400B4B1D
:1026F000440943F8242000BF00BF00BFBFF34F8F41
:1027000000BF00BF00BF00BF00BF00BFBFF36F8F9F
:1027100000BF00BF00BF00BF10BD000080E100E0AF
:1027200001460846002809DB00F01F0301229A40F9
:1027300043099B0003F1E023C3F8002100BF704769
:102740002DE9F05F80460D461646002704F08EFB0B
:10275000074639462A46334601F00700C0F1070A0A
:10276000BAF1040F02D94FF0040A01E0C0F1070AE0
:10277000D14600F1040ABAF1070F02D24FF0000A65
:1027800001E0A0F1030AD4464FF0010A0AFA09FA5F
:10279000AAF1010A0AEA020A0AFA0CFA4FF0010B3E
:1027A0000BFA0CFBABF1010B0BEA030B4AEA0B042F
:1027B0002146404604F062FB00F000B830BCBDE8A2
:1027C000C09F000000BF00F00702064B19684FF6DB
:1027D000FF031940044B0B4343EA0221014B1960EC
:1027E00000BF70470CED00E00000FA050246B2F5AC
:1027F000007F2AD11D48006800F4C060B0F5007F5A
:1028000032D01A48006820F4C06040F40070174BC2
:1028100018601748006832235843164BB0FBF3F09A
:10282000411C00E0491E1148406900F48060B0F589
:10283000806F01D10029F5D10C48406900F4806017
:10284000B0F5806F10D1032070470848006800F48D
:10285000C060B0F5806F07D00448006820F4C06005
:1028600040F48060014B18600020EDE700700040EC
:102870003400002040420F000248006800F4C060AD
:1028800070470000007000400348006840F480700A
:102890000149086070470000007000400FB408B59F
:1028A00003A800900099029804F0C2FA002000905A
:1028B0000248002000BF01B05DF814FBB001002009
:1028C0000348006840F004000149086070470000B8
:1028D000001002402DE9F84304460025A846208850
:1028E00000F40060B0F5006F26D1606C68B1B0F5FF
:1028F000000F03D0B0F5400F0ED10CE0D548C068F2
:1029000040F48030D349C86008E00021201D03F066
:10291000C9FB054602E001E0012500BF00BF55B933
:10292000CC488830006820F44000616C0843C949F5
:10293000C1F8880000E0A846206800F40030B0F537
:10294000003F75D14FF00009C248806D012121EA96
:10295000107078B100BFBF48806D40F08050BD4915
:1029600088650846806D00F08050009000BF00BF71
:102970004FF00109B848006840F48070B64908601B
:10298000FFF73CFC074606E0FFF738FCC01B0228B7
:1029900001D9032505E0B048006800F480700028E4
:1029A000F2D000BF7DBBAB489030006800F44076A9
:1029B000CEB1A06DB04216D0A6489030006820F489
:1029C0004076A448D0F8900040F48030A149C1F886
:1029D00090000846D0F8900020F48030C1F89000B4
:1029E0000846C0F8906006F00100A8B1FFF706FCA9
:1029F000074609E0FFF702FCC01B41F2883188421C
:102A000002D9032507E016E092489030006800F0F4
:102A100002000028EED000BF5DB98E4890300068FB
:102A200020F44070A16D08438A49C1F8900003E08A
:102A30000CE0A84600E0A846B9F1010F05D1854891
:102A4000806D20F080508349886500BF207800F0B9
:102A5000010048B17F488830006820F00300216AF7
:102A600008437C49C1F88800207800F00200022861
:102A700009D178488830006820F00C00616A08436A
:102A80007449C1F88800207800F00400042809D1B6
:102A900070488830006820F03000A16A08436D4912
:102AA000C1F88800207800F02000202809D169486A
:102AB0008830006820F44060E16A08436549C1F845
:102AC0008800208800F40070B0F5007F09D16148CB
:102AD0008830006820F44020E16B08435D49C1F86C
:102AE0008800208800F48060B0F5806F09D15948D3
:102AF0008830006820F44010216C08435549C1F823
:102B00008800207800F04000402809D151488830E2
:102B1000006820F44050216B08434E49C1F88800FA
:102B2000207800F08000802809D14A488830006869
:102B300020F44040616B08434649C1F88800208872
:102B400000F48070B0F5807F09D142488830006879
:102B500020F44030A16B08433E49C1F8880020684A
:102B600000F40020B0F5002F1FD13A4888300068EB
:102B700020F04060A16C0843364988310860A06CA1
:102B8000B0F1006F06D13348C06840F4801031497D
:102B9000C8600AE0A06CB0F1806F06D10121201D51
:102BA00003F080FA054605B1A846206800F48020AD
:102BB000B0F5802F1FD127488830006820F0406092
:102BC000E16C0843234988310860E06CB0F1006F84
:102BD00006D12048C06840F480101E49C8600AE051
:102BE000E06CB0F1806F06D10121201D03F05AFA8C
:102BF000054605B1A846208800F48040B0F5804F16
:102C000014D114488830006820F04050216D0843EA
:102C1000104988310860206DB0F1805F06D1022133
:102C2000201D03F03FFA054605B1A846208800F4B0
:102C30000040B0F5004F09D106488830006820F008
:102C40008040616D08430349C1F888004046BDE8F3
:102C5000F883000000100240007000402DE9F041B0
:102C600004460D4614B90120BDE8F08155480068BE
:102C700000F00700A8420ED25248006820F007007A
:102C80002843504908600846006800F00700A84241
:102C900001D00120E8E7207800F00100002840D0B2
:102CA0006068032806D14848006800F00070D8B971
:102CB0000120D9E76068022806D14348006800F483
:102CC000003088B90120CFE7606830B93E4800681D
:102CD00000F0020040B90120C6E73B48006800F45C
:102CE000806008B90120BFE73748806820F0030002
:102CF0006168084334498860FFF780FA064608E0B7
:102D0000FFF77CFA801B41F28831884201D9032009
:102D1000AAE72D48806800F00C006168B0EB810FD5
:102D2000EED1207800F00200022807D12648806802
:102D300020F0F000A168084323498860214800681A
:102D400000F00700A8420ED91E48006820F00700D6
:102D500028431C4908600846006800F00700A842A4
:102D600001D0012080E7207800F00400042807D17A
:102D70001548806820F4E060E168084312498860E3
:102D8000207800F00800082808D10F48806820F457
:102D90006050216940EAC1000B49886000F046F8A4
:102DA00009498968C1F30311084A515C01F01F0108
:102DB000C8400749086007480068FFF7FBFB074663
:102DC000384651E70020024000100240948C010870
:102DD000340000202C0000200148006870470000EB
:102DE0003400002000B5FFF7F7FF05498968C1F3FB
:102DF0000221044A515C01F01F01C84000BD0000DF
:102E000000100240A48C010800B5FFF7E5FF05495A
:102E10008968C1F3C221044A515C01F01F01C84016
:102E200000BD000000100240A48C0108F0B5002392
:102E30000020DFF8D4C0DCF808C00CF00C01DFF88B
:102E4000C8C0DCF80CC00CF0030719B10C291ED166
:102E5000012F1CD1DFF8B0C0DCF800C00CF0080C6A
:102E6000BCF1000F06D1DFF8A0C0DCF894C0CCF3B1
:102E7000032305E0DFF890C0DCF800C0CCF30313B7
:102E8000DFF888C05CF8233041B9184606E0042911
:102E900001D11F4802E0082900D11E480C2932D177
:102EA000DFF864C0DCF80CC00CF00304012C09D07E
:102EB000022C02D0032C04D101E0154A04E0154A8B
:102EC00002E000BF1A4600BF00BFDFF83CC0DCF8DC
:102ED0000CC0CCF3021C0CF10106DFF82CC0DCF8AE
:102EE0000CC0CCF3062C0CFB02FCBCFBF6F2DFF8AA
:102EF00018C0DCF80CC0CCF3416C0CF1010C4FEAAB
:102F00004C05B2FBF5F0F0BD00100240AC8C01089E
:102F10000024F40000127A002DE9F843044614B9A5
:102F20000120BDE8F883F948806800F00C06F748F6
:102F3000C06800F00307207800F01000102877D157
:102F40001EB10C2E76D1012F74D1F048006800F02C
:102F5000020018B1A06908B90120E2E7EB48216A34
:102F6000006800F0080020B1E848006800F0F000B8
:102F700005E0E6489430006800F470600009814282
:102F80001FD9206A03F052F908B10120C9E700BF38
:102F9000DE48006840F00800DC4908600846006828
:102FA00020F0F000216A0843D849086000BF0846B5
:102FB000406820F47F40E16940EA0120D34948603D
:102FC0001FE000BFD148006840F00800CF4908600A
:102FD0000846006820F0F000216A0843CB490860E9
:102FE00000BF0846406820F47F40E16940EA0120C4
:102FF000C64948602EB9206A03F018F908B10120CB
:103000008FE7FFF713FFC1498968C1F30311C04A75
:10301000515C01F01F01C840BE490860BE4800680D
:10302000FFF7C8FA8046B8F1000F4ED0404678E767
:103030004BE0FFE7A06980B3B448006840F00100AE
:10304000B2490860FFF7DAF8054606E0FFF7D6F860
:10305000401B022801D9032063E7AC48006800F058
:1030600002000028F2D000BFA848006840F0080025
:10307000A64908600846006820F0F000216A08436D
:10308000A249086000BF0846406820F47F40E1691B
:1030900040EA01209D49486017E0FFE79B4800682F
:1030A00020F0010099490860FFF7A8F8054606E0FE
:1030B000FFF7A4F8401B022801D9032031E7934809
:1030C000006800F002000028F2D1207800F0010032
:1030D00000285CD0082E03D00C2E0AD1032F08D173
:1030E0008A48006800F4003088B3606878BB01202B
:1030F00017E700BF6068B0F5803F06D183480068DD
:1031000040F48030814908601AE06068B0F5A02F73
:103110000BD17E48006840F480207C490860084656
:10312000006840F4803008600AE07848006820F4C5
:103130008030764908600846006820F480200860E6
:1031400000BF606890B1FFF759F8054607E01EE040
:10315000FFF754F8401B642801D90320E1E66B48CF
:10316000006800F400300028F2D010E0FFF746F8C5
:10317000054606E0FFF742F8401B642801D903200A
:10318000CFE66248006800F400300028F2D12078D1
:1031900000F00200022852D1042E03D00C2E14D1CC
:1031A000022F12D15948006800F4806018B1E0681D
:1031B00008B90120B5E65548406820F0F850217C58
:1031C00040EA01605149486039E0E06800B34F4887
:1031D000006840F480704D490860FFF70FF805461D
:1031E00006E0FFF70BF8401B022801D9032098E600
:1031F0004648006800F480600028F2D043484068E8
:1032000020F0F850217C40EA01604049486016E017
:103210003E48006820F480703C490860FEF7EEFFED
:10322000054606E0FEF7EAFF401B022801D903200D
:1032300077E63648006800F480600028F2D12078F4
:1032400000F00800082836D16069D0B12F489430CA
:10325000006840F001002D49C1F89400FEF7CEFF50
:10326000054606E0FEF7CAFF401B022801D90320ED
:1032700057E626489430006800F002000028F1D09C
:1032800019E022489430006820F001001F49C1F87D
:103290009400FEF7B3FF054606E0FEF7AFFF401BC4
:1032A000022801D903203CE618489430006800F059
:1032B00002000028F1D1207800F00400042872D127
:1032C0004FF000091148806D00F0805078B900BFC0
:1032D0000E48806D40F080500C4988650846806D2E
:1032E00000F08050009000BF00BF4FF001090B4874
:1032F000006800F4807000BB0848006840F48070EB
:1033000006490860FEF77AFF054610E0001002400B
:10331000948C0108340000202C0000200070004034
:10332000FEF76CFF401B022801D90320F9E5D048C5
:10333000006800F480700028F2D000BFA068012867
:1033400008D1CC48006840F00100CA499039C1F862
:10335000900021E0A06805280FD1C648006840F021
:103360000400C4499039C1F890000846D0F8900094
:1033700040F00100C1F890000EE0BE48006820F067
:103380000100BC499039C1F890000846D0F890007F
:1033900020F00400C1F8900000BFA068A0B1FEF7C3
:1033A0002DFF054609E02EE0FEF728FF401B41F205
:1033B0008831884201D90320B3E5AE48006800F0A7
:1033C00002000028F0D012E0FEF718FF054608E0E2
:1033D000FEF714FF401B41F28831884201D90320D7
:1033E0009FE5A448006800F002000028F0D1B9F180
:1033F000010F07D19F489038806D20F080509D4983
:103400009039886500BF207800F02000202838D14E
:10341000606AD8B197480830006840F001009549CB
:103420009039C1F89800FEF7E9FE054606E0FEF780
:10343000E5FE401B022801D9032072E58D480830C3
:10344000006800F002000028F1D01AE08948083036
:10345000006820F0010087499039C1F89800FEF714
:10346000CDFE054606E0FEF7C9FE401B022801D945
:10347000032056E57F480830006800F0020000286D
:10348000F1D1A06A00287DD0A06A02287BD17948BA
:103490009038C76807F00301E06A814225D107F040
:1034A0007001206B401EB1EB001F1ED107F4FE41DE
:1034B000606BB1EB002F18D107F078413820005D28
:1034C000B1EBC06F11D107F4C001A08F0122C2EB94
:1034D0005000B1EB405F08D107F0C0614020005DB3
:1034E000C2EB5000B1EB406F66D00C2E62D0614849
:1034F0009038006800F0806008B1012011E55D4857
:103500009038006820F080705A4990390860FEF7C2
:1035100075FE054606E0FEF771FE401B022801D944
:103520000320FEE453489038006800F00070002843
:10353000F1D1D4E90B10401E41EA0011606B41EA61
:103540000021A08F0122C2EB500041EA40514020EF
:10355000005DC2EB500041EA40613820005D41EA65
:10356000C06044499039C968434A11400843414901
:103570009039C8600846006840F0807008600846CE
:10358000C06801E05BE03DE040F08070C860FEF79D
:1035900035FE054606E0FEF731FE401B022801D944
:1035A0000320BEE433489038006800F00070002823
:1035B000F1D05AE00120B4E42E489038006800F0C1
:1035C0000070E0BB2B489038006840F080702949BB
:1035D000903908600846C06840F08070C860FEF707
:1035E0000DFE054606E0FEF709FE401B022801D944
:1035F000032096E41F489038006800F0007000280F
:10360000F1D032E00C2E2ED01A489038006820F00D
:1036100080701849903908600846006800F0006022
:1036200020B90846C06820F00300C86011489038EF
:10363000C068124908400F499039C86000E014E0A2
:10364000FEF7DCFD054606E0FEF7D8FD401B02282C
:1036500001D9032065E407489038006800F0007045
:103660000028F1D101E001205BE4002059E40000D2
:1036700000700040901002408C809D01FFFFEEFE24
:1036800070B504460CB9012070BD606A38B9606835
:10369000B0F5827F00D105E00021E16102E0002168
:1036A000216161610021A16294F85D0028B90020C8
:1036B00084F85C00204600F05BF8022084F85D008E
:1036C0002068006820F0400021680860E068B0F5DC
:1036D000E06F01D9002501E04FF48055E068B0F5B6
:1036E000706F05D0E068B0F5E06F01D00021A162F5
:1036F000A08800F48270218901F404410843217CF0
:1037000001F002010843217D01F001010843218BF2
:1037100001F400710843217F01F0380108432021A2
:10372000095D01F080010843218D01F40051084337
:10373000216808600421A06901EA104094F824106F
:1037400001F01001084394F8341001F00801084317
:10375000A18901F47061084305F480510843216890
:10376000486000202066012084F85D0000208BE77F
:1037700010B586B00446142101A8FCF706FE624984
:10378000206888422BD100BF6048006E40F4805012
:103790005E4908660846006E00F48050009000BF45
:1037A00000BF00BF0846C06C40F00100C864084676
:1037B000C06C00F00100009000BF00BF41F2520059
:1037C0000190022002900020039003200490052025
:1037D000059001A94FF09040FEF7C4FB92E04C49E0
:1037E0002068884245D100BF4848806D40F4804041
:1037F000464988650846806D00F48040009000BF0F
:1038000000BF00BF0846C06C40F00400C864084612
:10381000C06C00F00400009000BF00BF00BF08466D
:10382000C06C40F00200C8640846C06C00F00200A2
:10383000009000BF00BF08200190022002900020ED
:103840000390032004900520059001A93148FEF75C
:1038500089FB4FF400500190022002900020039059
:10386000032004900520059001A92B48FEF77AFB60
:1038700048E02A492068884244D100BF2348806D2F
:1038800040F40040214988650846806D00F40040FE
:10389000009000BF00BF00BF0846C06C40F00400AD
:1038A000C8640846C06C00F00400009000BF00BF70
:1038B00000BF0846C06C40F00200C8640846C06CF7
:1038C00000F00200009000BF00BF4FF44060019084
:1038D000022002900020039003200490062005900F
:1038E00001A90C48FEF73EFB202001900220029027
:1038F00000200390032004900620059001A90648AB
:10390000FEF730FB06B010BD003001400010024051
:10391000003800400008004800040048003C004017
:103920002DE9F84F0446884616461D464FF0000A1A
:1039300000BF94F85C00012802D1022000F0E5B835
:10394000012084F85C0000BFFEF758FC0746B14632
:1039500094F85D00012802D04FF0020ACBE0B8F1E4
:10396000000F00D016B94FF0010AC4E0032084F81C
:103970005D0000202066C4F83880A687E6872064B2
:10398000A4F84400A4F846002065E064A068B0F5FF
:10399000004F0BD12068006820F0400021680860CB
:1039A0002068006840F48040216808602068006852
:1039B00000F04000402805D02068006840F040003A
:1039C00021680860E068B0F5E06F2FD9606810B139
:1039D000B9F1010F09D1A06B00882168C860A06B04
:1039E000801CA063E08F401EE0871BE02068806899
:1039F00000F0020002280AD1A06B00882168C8608C
:103A0000A06B801CA063E08F401EE0870AE0FEF7F9
:103A1000F5FBC01BA84201D3681C00B915B94FF0D3
:103A2000030A68E0E08F0028E0D14AE0606810B146
:103A3000B9F1010F17D1E08F01280AD9A06B0088D6
:103A40002168C860A06B801CA063E08F801EE087A7
:103A500009E0A06B007821680873A06B401CA0638C
:103A6000E08F401EE08729E02068806800F00200B7
:103A7000022818D1E08F01280AD9A06B008821689C
:103A8000C860A06B801CA063E08F801EE08715E0FB
:103A9000A06B007821680873A06B401CA063E08FC6
:103AA000401EE0870AE0FEF7A9FBC01BA84201D335
:103AB000681C00B915B94FF0030A1CE0E08F00281C
:103AC000D2D13A462946204602F0FEFB08B120201A
:103AD0002066A06850B900BF002000902068C06830
:103AE000009020688068009000BF00BF206E08B181
:103AF0004FF0010A00BF012084F85D0000BF0020E4
:103B000084F85C0000BF504618E718BCBDE8E08FA1
:103B100070B504462546681EB0F1807F01D30120B0
:103B20000FE0681E4FF0E02148610F214FF0FF3099
:103B300003F0A4F900204FF0E0218861072008611C
:103B4000002070BD0FB4F8B504460D4609A80090DA
:103B500029462046009B089A03F072F90646002089
:103B600000903046F8BC5DF814FB0000F0B589B059
:103B700005460E460024202201A928460BF0FEFE31
:103B80000746002F02DA084809B0F0BD002231468E
:103B900001A80BF0C9FE0446002C02DA0248401EC0
:103BA000F2E72046F0E70000A6FDFFFF10B504464F
:103BB00020460BF0A5FE002010BD00002DE9F047C7
:103BC00005460E4617469846DDF8209043463A468D
:103BD000314628460BF0EAFE0446002C02DA05487E
:103BE000BDE8F08714B96FF41870F9E7C9F8004020
:103BF0000020F5E7A2FDFFFF2DE9F04705460E4640
:103C000017469946DDF8208000243A46314628467A
:103C10000BF0F8FE0446002C03DA044CA012BDE8B9
:103C2000F087C8F800400020F9E70000A1FDFFFF81
:103C30002DE9F042044689464FF47A7109FB01F7F9
:103C40000CF092F80546E8192060BDE8F0822DE9F5
:103C5000F0420446894648460BF0C3FA05460CF08C
:103C600083F8074678192060BDE8F082002070478D
:103C70000020704770B504460CF076F805460E46F5
:103C80002068281A76F1000101D3012070BD0020C0
:103C9000FCE72DE9F04106460CF066F804460D46B7
:103CA0003068201A75F1000102D30020BDE8F081D0
:103CB0000CF05AF804460D4600213068021B61EBF7
:103CC00005014FF47A73D01841F10001471E61F1EC
:103CD00000011A4600233846FCF7EAFAE6E7704787
:103CE000704710B504460CB9012010BD2420A06710
:103CF0002068006820F00100216808600020216829
:103D000008602168486021688860204600F0A8F9B2
:103D10000020C4F88000A067E067206600BF84F838
:103D2000740000BF00BFE0E7704700002DE9F047D6
:103D300004462068C569206806682068876840F6E0
:103D40000F0005EA0009B9F1000F0CD105F02000C1
:103D500048B106F0200030B1606E10B12046616EAF
:103D60008847BDE8F087B9F1000F7DD007F001006A
:103D700018B99C4830400028F7D005F0010058B130
:103D800006F4807040B1012021680862D4F88000F8
:103D900040F00100C4F8800005F0020058B107F0BF
:103DA000010040B1022021680862D4F8800040F090
:103DB0000400C4F8800005F0040058B107F00100C9
:103DC00040B1042021680862D4F8800040F002006D
:103DD000C4F8800005F0080070B106F0200010B9AA
:103DE00007F0010040B1082021680862D4F8800083
:103DF00040F00800C4F8800005F4006060B106F0EF
:103E0000806048B14FF4006021680862D4F88000F7
:103E100040F02000C4F88000D4F8800090B305F092
:103E2000200038B106F0200020B1606E10B12046AD
:103E3000616E8847D4F880A02068806800F0400058
:103E4000402802D00AF0280028B3204602F0C9FC1E
:103E50002068806800F04000402818D12068806801
:103E600020F04000216800E01CE08860206F50B125
:103E70005D48216F8863206FFDF78DFF10B1206FC3
:103E8000816B88470DE02046FFF74EFF09E0204692
:103E9000FFF74AFF05E02046FFF746FF0020C4F881
:103EA00080005EE7206E012876D105F01000002822
:103EB00072D006F0100000286ED010202168086231
:103EC0002068806800F0400040283CD1206F0068E6
:103ED00040681FFA80F8B8F1000F33D0B4F85800EA
:103EE00040452FDDA4F85A80206F0068006800F07C
:103EF0002000F0B92068006820F480702168086014
:103F00002068806820F0010021688860206880684F
:103F100020F04000216888602020E06700202066B3
:103F20002068006820F0100021680860206FFDF70D
:103F300005FFB4F85800B4F85A20801A81B2204620
:103F4000FFF7CDFE0DE734F8580F6188401A1FFACD
:103F500080F86088583CE8B1B8F1000F1AD02068AA
:103F6000006820F49070216808602068806820F064
:103F70000100216888602020E067002020666066DC
:103F80002068006820F01000216808604146204643
:103F9000FFF7A5FEE5E6FFE705F4801050B107F452
:103FA000800038B14FF48010216808622046FFF786
:103FB00097FED6E605F0800040B106F0800028B1FB
:103FC000A06E10B12046A16E8847CAE605F04000F9
:103FD00030B106F0400018B1204602F01DFCC0E6EA
:103FE00000BFBEE620010004CB67000810B5044600
:103FF0000CB9012010BDA06900B100E000BFA06FA6
:1040000028B9002084F87400204600F07FF82420AE
:10401000A0672068006820F0010021680860204641
:1040200002F094FC012800D1E4E7606A10B1204658
:1040300002F016FB2068406820F490402168486038
:104040002068806820F02A00216888602068006865
:1040500040F0010021680860204602F07DFBC9E7BE
:1040600010B504462349206888420DD12248C06D0E
:1040700020F001002049C86503212048FDF7D6FE45
:104080004620FEF72BFB34E01D49206888420CD106
:104090001948006E20F48040174908664FF4C0614B
:1040A0004FF09040FDF7C2FE23E016492068884299
:1040B0000ED11148806D20F400300F4988650C2125
:1040C0004FF09040FDF7B2FE2620FEF707FB10E010
:1040D0000D49206888420CD10748806D20F480206B
:1040E0000549886530210548FDF7A0FE2720FEF729
:1040F000F5FA10BD008000400010024000080048A2
:1041000000380140004400400048004010B586B02F
:104110000446142101A8FCF738F96A49206888424E
:1041200031D100BF6848C06D40F001006649C865E4
:104130000846C06D00F00100009000BF00BF00BF46
:104140000846C06C40F00400C8640846C06C00F02B
:104150000400009000BF00BF0320019002200290E5
:1041600000200390032004900820059001A95748DF
:10417000FDF7F8FE002211464620FEF7E1FA462040
:10418000FEF7CEFA9BE05249206888422BD100BF4F
:104190004D48006E40F480404B4908660846006E6A
:1041A00000F48040009000BF00BF00BF0846C06C14
:1041B00040F00100C8640846C06C00F001000090A7
:1041C00000BF00BF4FF4C0600190022002900020A9
:1041D0000390032004900720059001A94FF0904020
:1041E000FDF7C0FE6BE03B492068884232D100BF3A
:1041F0003548806D40F40030334988650846806D4D
:1042000000F40030009000BF00BF00BF0846C06C43
:1042100040F00100C8640846C06C00F00100009046
:1042200000BF00BF0C2001900220029000200390EC
:10423000032004900720059001A94FF09040FDF75E
:1042400091FE002211462620FEF77AFA2620FEF77C
:1042500067FA34E020492068884230D100BF1A480C
:10426000806D40F48020184988650846806D00F410
:104270008020009000BF00BF00BF0846C06C40F027
:104280000400C8640846C06C00F00400009000BF41
:1042900000BF3020019002200290002003900320F4
:1042A00004900720059001A90848FDF75BFE002255
:1042B00011462720FEF744FA2720FEF731FA06B010
:1042C00010BD0000008000400010024000080048BF
:1042D00000380140004400400048004070B50446EA
:1042E0000D461646E06F202825D105B10EB90120F4
:1042F00070BD00BF94F87400012801D10220F7E7D7
:10430000012084F8740000BF002020660B4920685B
:1043100088420AD02068406800F4000028B1206874
:10432000006840F0806021680860324629462046D7
:1043300002F08AFCDCE70220DAE70000008000409F
:1043400010B5044607492068884209D10122064970
:104350000648FFF7C3FF0448017805480AF046FC09
:1043600010BD00000080004000000020401200202E
:10437000B8AB00202DE9F84F04460E461746994683
:10438000A06F20285DD106B117B9012000F05BB8FD
:1043900000BF94F87400012801D10220F6E7012043
:1043A00084F8740000BF0020503420632120A062F4
:1043B000FDF724FF824627806780503CA068B0F557
:1043C000805F04D1206910B90025B04602E035466F
:1043D0004FF0000800BF002084F8740000BF1DE00B
:1043E0005346002280212046CDF8009002F08AFC3E
:1043F00008B10320CAE745B9B8F80000C0F30800C7
:104400002168088508F1020803E0287821680885FA
:104410006D1CB4F85200401EA4F85200B4F85200CB
:104420000028DDD15346002240212046CDF80090DF
:1044300002F068FC08B10320A8E72020A067002054
:10444000A4E70220A2E718BCBDE8E08F704700BFD8
:10445000FEE701688969C1F3400111B100210268DA
:1044600091620168896901F0010129B901688969CE
:1044700041F00101026891617047000070B5044687
:104480000D46164620688069C0F3001000283DD014
:1044900017E0681CA8B1FDF7B1FE801BA84200D848
:1044A0007DB9606C40F020006064202084F84100F9
:1044B000002084F8420000BF84F8400000BF0120C3
:1044C00070BD20688069C0F340100028E1D0102042
:1044D0002168C86120202168C8612046FFF7B9FF24
:1044E000206840680A49084021684860606C40F0D4
:1044F00004006064202084F84100002084F8420019
:1045000000BF84F8400000BF0120D9E70020D7E7B2
:1045100000E800FEF0B5059C05686D684FF4806604
:1045200006EA545666F0FC2646F4C046B543C1F38D
:1045300009064FF47F0707EA02473E431E4326431E
:10454000354306687560F0BD2DE9F04104460E461E
:1045500017461D46DDF8188019E0681CB8B1FDF754
:104560004DFEA0EB0800A84200D885B9606C40F071
:1045700020006064202084F84100002084F842007C
:1045800000BF84F8400000BF0120BDE8F081206832
:1045900080693040B04201D1012000E00020B842E3
:1045A000DBD00020F1E770B504460D4616461DE04D
:1045B000324629462046FFF761FF08B1012070BD51
:1045C000FDF71CFE801BA84200D87DB9606C40F04E
:1045D00020006064202084F84100002084F842001C
:1045E00000BF84F8400000BF0120E8E72068806930
:1045F000C0F340100028DBD00020E0E770B504468F
:104600000D4616461FE0324629462046FFF736FF84
:1046100008B1012070BD681CA8B1FDF7EFFD801B3B
:10462000A84200D87DB9606C40F020006064202072
:1046300084F84100002084F8420000BF84F8400064
:1046400000BF0120E6E720688069C0F34000002831
:10465000D9D00020DEE70FB4FEB504460D4616465D
:104660000CA807C88DE807003246294620460B9B58
:1046700006F0A6FDFEBC5DF814FB00003EB5044646
:1046800000BF5CB90DA00FA101234A22CDE90104AE
:104690000091134913480CF0D3F83EBD00BF002130
:1046A000204607F0D1F80121204607F0CDF802217D
:1046B000204607F0C9F800BFEFE70000636C6965AA
:1046C0006E740000496E76616C6964206172677572
:1046D0006D656E742C202573203D20257000000030
:1046E00068DD0108C4E401080FB4FEB504460D46B8
:1046F000164600BF74B915A016A10123B522CDE955
:10470000010400911A491B480CF09AF81A48FEBCA3
:104710005DF814FB00BF00BF65B918A00DA101230F
:10472000B622CDE901050091114912480CF088F834
:104730001148ECE700BFDDE90C01CDE9000132468C
:10474000294620460B9B06F073FEE0E7636C696523
:104750006E740000496E76616C69642061726775E1
:104760006D656E742C202573203D2025700000009F
:1047700033DE0108C4E4010816FCFFFF6275660021
:104780000FB470B58CB00446189E00BF7CB913A05E
:1047900014A101232B22CDE90104009118491948E5
:1047A0000CF04EF818480CB070BC5DF814FB00BF5C
:1047B00000250B96142211A906A8FBF7BFFD1422B1
:1047C00007A96846FBF7BAFD104A00212046069B60
:1047D00006F0DAFF05432846E5E70000636C6965EB
:1047E0006E740000496E76616C6964206172677551
:1047F0006D656E742C202573203D2025700000000F
:1048000052DD0108C4E4010816FCFFFF95B400085E
:1048100070B586B005460C46164600BF6DB917A0A8
:1048200018A101239022CDE9010500911C491D48E2
:104830000CF006F81C4806B070BD00BF00BF64B99C
:104840001AA010A101239122CDE90104009114497D
:1048500014480BF0F5FF1448EDE700BF002003906B
:104860000490059003A807C833468DE80700224648
:104870000321284606F066FEDDE70000636C6965EB
:104880006E740000496E76616C69642061726775B0
:104890006D656E742C202573203D2025700000006E
:1048A000E7DD0108C4E4010816FCFFFF627566003D
:1048B000F0B587B005460C4616461F4600BF6DB9D9
:1048C00017A019A10123A322CDE9010500911D49DB
:1048D0001D480BF0B5FF1D4807B0F0BD00BF00BF7D
:1048E00064B91BA010A10123A422CDE90104009109
:1048F000144915480BF0A4FF1448EDE700BF0497D6
:10490000DDE90C01CDE9050104A807C833468DE8AF
:10491000070022460421284606F014FEDCE70000CA
:10492000636C69656E740000496E76616C69642021
:10493000617267756D656E742C202573203D20258E
:10494000700000000DDE0108C4E4010816FCFFFF42
:104950006275660070B586B005460C46164600BF07
:104960006DB917A018A101236D22CDE901050091B1
:104970001C491D480BF064FF1C4806B070BD00BF09
:1049800000BF64B91AA010A101236E22CDE9010471
:104990000091144914480BF053FF1448EDE700BF91
:1049A000002003900490059003A807C833468DE8C3
:1049B000070022460221284606F0C4FDDDE700007C
:1049C000636C69656E740000496E76616C69642081
:1049D000617267756D656E742C202573203D2025EE
:1049E00070000000A0DD0108C4E4010816FCFFFF10
:1049F00062756600F0B587B005460C4616461F4640
:104A000000BF6DB915A017A101235C22CDE90105F6
:104A100000911B491B480BF013FF1B4807B0F0BD6A
:104A200000BF00BF64B919A00EA101235D22CDE92A
:104A300001040091124913480BF002FF1248EDE700
:104A400000BF049704A807C833468DE80700224634
:104A50000021284606F076FDE0E70000636C6965FA
:104A60006E740000496E76616C69642061726775CE
:104A70006D656E742C202573203D2025700000008C
:104A800080DD0108C4E4010816FCFFFF62756600C2
:104A9000FEB5044600BF6CB97BA07DA101234FF495
:104AA0009572CDE901040091804981480BF0C8FE60
:104AB0000020FEBD00BF00BF206870B97DA174A2B8
:104AC00020680123CDE90021029040F22B127749A2
:104AD00077480BF0B5FE0020EBE700BF00BF206871
:104AE00070B979A16AA220680123CDE90021029062
:104AF0004FF496726D496E480BF0A2FE0020D8E785
:104B00002068FBF775FC70B96FA177A220680123BC
:104B1000CDE9002102904FF49672644964480BF08D
:104B20008FFE0020C5E700BF00BF20680B3078B9BA
:104B300020680B3073A156A20123CDE90021029019
:104B400040F22D1259495A480BF07AFE0020B0E786
:104B5000216801F10B00FBF74BFC78B920680B30A2
:104B600068A161A20123CDE90021029040F22D123B
:104B70004E494F480BF064FE00209AE700BF00BF8B
:104B800020688D3078B920688D3067A140A201235C
:104B9000CDE9002102904FF49972444944480BF04A
:104BA0004FFE002085E7216801F18D00FBF720FC16
:104BB00078B920688D305CA14BA20123CDE900219A
:104BC00002904FF49972394939480BF039FE0020B0
:104BD0006FE700BF0025002642F21420FDF716FD06
:104BE000064656B959A001234FF49E722F490090F2
:104BF0002F480BF025FE00205BE72146304605F0EC
:104C0000EFF8054655B158A001234FF4A17227498A
:104C1000CDE9000526480BF013FE2DE0A07D08B974
:104C2000304646E70021304608F05EF90546A5B15A
:104C300042F2C400304418B142F2C400304400E0F3
:104C40004FA051A101234FF4A672CDE901050091B7
:104C5000164917480BF0F4FD0EE042F2C400304450
:104C600052A103234FF4A872CDE900100F49104858
:104C70000BF0E6FD30461CE7304605F06BF8304699
:104C8000FDF7CCF8002014E7706172616D730000CD
:104C9000496E76616C696420617267756D656E74CA
:104CA0002C202573203D202570000000BDDA01086E
:104CB000E0E10108706172616D732D3E6465766993
:104CC00063655F696E666F00706172616D732D3E22
:104CD0006465766963655F696E666F2D3E70726F9D
:104CE000647563745F696400496E76616C69642001
:104CF000617267756D656E742C202573203D2027C9
:104D000025732700706172616D732D3E646576694D
:104D100063655F696E666F2D3E6465766963655F86
:104D20006E616D6500000000706172616D732D3EF3
:104D30006465766963655F696E666F2D3E6465764E
:104D40006963655F73656372657400006D616C6CA7
:104D50006F63204D515454436C69656E74206661D5
:104D6000696C6564000000006D71747420696E697F
:104D700074206661696C65643A2025640000000057
:104D80006E756C6C000000006D71747420636F6E42
:104D90006E65637420776974682069643A202573AE
:104DA000206661696C65643A202564006D717474D5
:104DB00020636F6E6E656374207769746820696420
:104DC0003A202573207375636365737300000000D8
:104DD000FEB5044600BF206870B91AA11BA2206866
:104DE0000123CDE90021029040F26F121E491F48B5
:104DF0000BF026FD1E48FEBD00BF2568284608F0C2
:104E0000C3F806465EB142F27C002844016942F2D2
:104E10007C00284488470021284609F031F92846BB
:104E200004F098FF2068FCF7F9FF0020206011A033
:104E300003234FF4BF720C4900900C480BF000FDA7
:104E40003046D8E72A636C69656E7400496E7661F6
:104E50006C696420617267756D656E742C202573B2
:104E6000203D202570000000E1DA0108E0E10108A2
:104E700016FCFFFF6D7174742072656C656173655B
:104E8000210000003EB5044600BF6CB908A00AA18D
:104E9000012340F24D22CDE9010400910D490E4855
:104EA0000BF0CEFC00203EBD00BF25462868FAE787
:104EB000636C69656E740000496E76616C6964208C
:104EC000617267756D656E742C202573203D2025F9
:104ED0007000000091DB0108E0E10108FEB5054625
:104EE0000C4600BF6DB91CA01DA101234FF4FA723E
:104EF000CDE901050091214921480BF0A1FC0020DA
:104F0000FEBD00BF00BF6CB91EA015A1012340F279
:104F1000F512CDE901040091184919480BF090FCF5
:104F20000020EDE72046FBF763FA68B915A019A148
:104F3000012340F2F512CDE9010400910F49104818
:104F40000BF07EFC0020DBE700BF2E4621463046FA
:104F500008F0D2F9D4E70000636C69656E74000054
:104F6000496E76616C696420617267756D656E74F7
:104F70002C202573203D2025700000003ADB01081D
:104F8000E0E10108746F7069635F66696C74657253
:104F900000000000496E76616C696420617267757B
:104FA0006D656E742C202573203D20272573270006
:104FB000FEB505460C46164600BF6DB933A035A1B7
:104FC000012340F29B12CDE901050091384939488F
:104FD0000BF036FC3848FEBD00BF00BF6EB937A0ED
:104FE0002CA101234FF4CE72CDE901060091304986
:104FF00030480BF025FC3048EDE700BF00BF6CB92E
:1050000030A024A1012340F29D12CDE901040091BA
:10501000274928480BF014FC2748DCE72046FBF71B
:10502000E7F968B927A02AA1012340F29D12CDE932
:10503000010400911E491F480BF002FC1E48CAE7FC
:1050400000BF2F46284607F0D3F810B96FF066006E
:10505000C1E72046FBF7CCF9802802D96FF0890020
:10506000B9E7307802280BD120A001234FF4D57284
:105070000F4900900F480BF0E3FB6FF07700AAE7B1
:1050800032462146384608F0B1F9A4E7636C6965F9
:105090006E740000496E76616C6964206172677598
:1050A0006D656E742C202573203D20257000000056
:1050B00001DB0108E0E1010816FCFFFF706172618D
:1050C0006D730000746F7069635F6E616D650000E1
:1050D000496E76616C696420617267756D656E7486
:1050E0002C202573203D202725732700516F533234
:1050F000206973206E6F7420737570706F727465A1
:10510000642063757272656E746C7900FEB5054635
:105110000C46164600BF6DB935A037A1012340F2F9
:10512000BB12CDE9010500913A493B480BF088FBE1
:105130003A48FEBD00BF00BF6EB939A02EA10123C1
:105140004FF4DE72CDE901060091324932480BF08E
:1051500077FB3248EDE700BF00BF6CB932A026A153
:10516000012340F2BD12CDE90104009129492A48EA
:105170000BF066FB2948DCE72046FBF739F968B9F4
:1051800029A02DA1012340F2BD12CDE90104009117
:10519000204921480BF054FB2048CAE700BF2F46A6
:1051A000284607F025F830B942F21D00C05D10B95D
:1051B0006FF06600BDE72046FBF71AF9802802D998
:1051C0006FF08900B5E7307802280BD121A00123C8
:1051D0004FF4E5720F4900900F480BF031FB6FF070
:1051E0007700A6E732462146384608F067FAA0E77E
:1051F000636C69656E740000496E76616C69642049
:10520000617267756D656E742C202573203D2025B5
:105210007000000012DB0108E0E1010816FCFFFF4E
:10522000706172616D730000746F7069635F6669AD
:105230006C74657200000000496E76616C696420D0
:10524000617267756D656E742C202573203D202773
:1052500025732700516F5332206973206E6F7420BD
:10526000737570706F727465642063757272656EA9
:10527000746C79002DE9FE4305460E46144600BFC6
:1052800075B945A046A1012340F21522CDE90105DB
:1052900000914A494A480BF0D3FA4A4800F0C0B896
:1052A00000BF00BF6CB948A03DA1012340F2162207
:1052B000CDE901040091414941480BF0C1FA414850
:1052C000ECE700BF00BF6EB941A035A1012340F259
:1052D0001722CDE901060091384939480BF0B0FAA0
:1052E0003848DBE73046FBF783F868B938A03CA1C3
:1052F000012340F21722CDE9010600912F493048E1
:105300000BF09EFA2F48C9E700BFA9464D464FF45F
:10531000FA71D9F80800B0FBF1F831462846FFF7DA
:10532000DDFD30B1206910B1D4E9030188470020C8
:10533000B4E7224631462846FFF7E8FE0746002F2D
:105340000BDA2EA0012340F229221C498DE88101AD
:105350001B480BF075FA3846A0E705E04FF4FA71E8
:10536000284600F0DBF80746B8F10000A8F1010874
:1053700007DB002F05DB31462846FFF7AFFD00288D
:10538000ECD031462846FFF7A9FD08B1002085E79B
:105390006FF47A7082E70000636C69656E740000D8
:1053A000496E76616C696420617267756D656E74B3
:1053B0002C202573203D20257000000065DB0108AE
:1053C000E0E1010816FCFFFF706172616D7300007F
:1053D000746F7069635F66696C74657200000000C9
:1053E000496E76616C696420617267756D656E7473
:1053F0002C202573203D202725732700746F7069AA
:105400006320737562736372696265206661696C9B
:1054100065643A2025642C20636E743A202564006C
:1054200006BCBDE8F8830000FEB505460C4600BF8B
:105430006DB923A024A101234FF4ED72CDE901053C
:105440000091284928480BF0FBF92848FEBD00BF11
:1054500000BF6CB926A01CA1012340F2DB12CDE9EC
:10546000010400911F4920480BF0EAF91F48EDE7BD
:105470002046FAF7BDFF68B91DA021A1012340F223
:10548000DB12CDE901040091164917480BF0D8F959
:105490001648DBE700BF2E46284606F0A9FE10B9E5
:1054A0006FF06600D2E72046FAF7A2FF802802D903
:1054B0006FF08900CAE72146304608F0B9F9C5E720
:1054C000636C69656E740000496E76616C69642076
:1054D000617267756D656E742C202573203D2025E3
:1054E0007000000025DB0108E0E1010816FCFFFF69
:1054F000746F7069635F66696C74657200000000A8
:10550000496E76616C696420617267756D656E7451
:105510002C202573203D202725732700FEB5044647
:105520000E4600BF6CB90AA00BA101234FF4C6724E
:10553000CDE9010400910F490F480BF081F90F48A4
:10554000FEBD00BF25463146284608F07BFAF7E746
:10555000636C69656E740000496E76616C696420E5
:10556000617267756D656E742C202573203D202552
:1055700070000000F2DA0108E0E1010816FCFFFF0C
:105580002DE9F04104460D4616461F462A2000F03C
:105590002BFB201200F036FBE0B200F033FB3012A0
:1055A00000F030FBF0B200F02DFB2B2000F01CFBD4
:1055B000281200F027FBE8B200F024FB381200F0BC
:1055C00021FBF8B200F01EFB2C2000F00DFBBDE823
:1055D000F0810000F8B505460020009028128DF8F3
:1055E0000000E8B28DF80100EF231A4600210846BA
:1055F000FFF7C6FF00240DE09DF800000F4901F8F9
:1056000014009DF80100012101EB44010B4A5054A4
:10561000601C84B2B4F5107FEEDB01224021084803
:10562000FCF784FD002606E04FF49061034800F08B
:1056300047F9701C86B2642EF6DBF8BDCA1700204D
:105640000008004800B587B0142102A8FAF79DFEB3
:1056500000BF3048C06C40F004002E49C8640846C2
:10566000C06C00F00400019000BF00BF00BF0846FE
:10567000C06C40F08000C8640846C06C00F0800038
:10568000019000BF00BF00BF0846C06C40F00200A0
:10569000C8640846C06C00F00200019000BF00BF63
:1056A00000224FF400411C48FCF740FD0022C021BD
:1056B0001A48FCF73BFD4FF4004002900120039094
:1056C00000200490059002A91348FCF74BFCC02071
:1056D00002900120039000200490059002A90F4839
:1056E000FCF740FC00224FF400410B48FCF71EFD84
:1056F000002280210948FCF719FD6420FCF77AFBA1
:10570000012280210548FCF711FD00F00FFC07B0D5
:1057100000BD0000001002400004004800080048DE
:1057200010B5FFF78FFF7820FCF764FB112000F025
:105730005BFA7820FCF75EFB362000F055FA00207B
:1057400000F060FA3A2000F04FFA652000F05AFAB3
:10575000B22000F049FA0C2000F054FA0C2000F0BE
:1057600051FA002000F04EFA332000F04BFA3320BB
:1057700000F048FAB72000F037FA722000F042FA41
:10578000BB2000F031FA3D2000F03CFAC02000F0D0
:105790002BFA2C2000F036FAC22000F025FA012066
:1057A00000F030FAC32000F01FFA192000F02AFAA6
:1057B000C42000F019FA202000F024FAC62000F0DE
:1057C00013FA0F2000F01EFAD02000F00DFAA420EA
:1057D00000F018FAA12000F015FAE02000F004FA19
:1057E000D02000F00FFA042000F00CFA0D2000F099
:1057F00009FA112000F006FA132000F003FA2B201A
:1058000000F000FA3F2000F0FDF9542000F0FAF912
:105810004C2000F0F7F9182000F0F4F90D2000F00A
:10582000F1F90B2000F0EEF91F2000F0EBF9232036
:1058300000F0E8F9E12000F0D7F9D02000F0E2F91B
:10584000042000F0DFF90C2000F0DCF9112000F05A
:10585000D9F9132000F0D6F92C2000F0D3F93F201D
:1058600000F0D0F9442000F0CDF9512000F0CAF941
:105870002F2000F0C7F91F2000F0C4F91F2000F00E
:10588000C1F9202000F0BEF9232000F0BBF921204F
:1058900000F0AAF9292000F0A7F9EF231A46002109
:1058A0000846FFF76DFE4FF6FF70FFF793FE0122EB
:1058B000D1030248FCF73AFC10BD00000004004888
:1058C00070B504460D462946204600F017FE70BD0F
:1058D0002DE9FF4F83B081468A461646119C00256C
:1058E0000027A846AB460020029004EBD471491073
:1058F000C1F1F001494503DBC4F1F001514502DA81
:1059000007B000F0E3B804EBD47009EB6000401E70
:1059100082B20AEB0400401E83B25146484601940D
:10592000FFF72EFEA6F12000C6B2102C01D0202CCD
:1059300049D12046E31704EB5373DB1021464FEAAD
:10594000E47C04EB5C7C4FEAEC0CA4EBCC0CBCF1EB
:10595000000F02D04FF0010C01E04FF0000C634447
:10596000224604EBD27C4FEA6C0C03FB0CF303F0F1
:10597000FF0B002524E0102C05D1504800EB061049
:1059800010F8058008E0202C05D14D4800EBC6102A
:1059900010F8058000E0B3E700270EE008F0800073
:1059A00018B1109800F00AF902E0069800F006F924
:1059B0004FEA48604FEA10687F1C082FEEDB6D1C31
:1059C0005D45D8DB77E00C2C3FD12046E31704EB94
:1059D0005373DB1021464FEAE47C04EB5C7C4FEA16
:1059E000EC0CA4EBCC0CBCF1000F02D04FF0010C7E
:1059F00001E04FF0000C6344224604EBD27C4FEAF6
:105A00006C0C03FB0CF303F0FF0B00251AE006EB14
:105A100046002C4901EB800010F8058000270EE0BD
:105A200008F0800018B1109800F0C8F802E006985D
:105A300000F0C4F84FEA48604FEA10687F1C062F58
:105A4000EEDB6D1C5D45E2DB35E0182C32D1200128
:105A5000C11700EB5171C1F3C70B002527E006EB1E
:105A60004600194901EB001010F80580284605EBA7
:105A7000D0714910A5EB410111B90820029001E055
:105A80000420029000270EE008F0800018B1109862
:105A900000F094F802E0069800F090F84FEA4860B1
:105AA0004FEA10687F1C02988742EDDB6D1C5D4554
:105AB000D5DB00E024E700BF22E700005091010899
:105AC00010A90108DC8C01084097010830BCBDE832
:105AD000C08F2DE9FC4706460F4614469846DDE97F
