:020000040800F2
:1000000028C10020A1010008A15E000803480008E3
:100010009D5E000891130008AD6F0008000000000D
:10002000000000000000000000000000196300084C
:1000300095130008000000004F0200081B63000831
:10004000BB010008BB010008BB010008BB010008A0
:10005000BB010008BB010008BB01000897130008A2
:10006000A1130008AB130008BB010008BB01000886
:10007000BB010008BB010008BB010008BB01000870
:10008000BB010008BB010008BB010008BB01000860
:10009000BB010008BB010008BB010008BB01000850
:1000A000BB010008BB010008BB010008BB01000840
:1000B000BB0100080000000000000000BB010008B8
:1000C000BB010008BB010008BB010008BB01000820
:1000D000BB010008BB0100088D6F00089D6F000880
:1000E000BB010008BB010008000000000000000088
:1000F0000000000000000000000000000000000000
:1001000000000000BB01000800000000BB01000867
:100110000000000000000000BB010008BB01000857
:10012000BB010008BB010008BB010008BB010008BF
:10013000BB010008000000000000000000000000FB
:10014000BB010008BB010008BB0100080000000063
:10015000BB010008BB01000889500008BB01000872
:10016000BB010008BB010008BB0100080000000043
:10017000BB010008BB0100080000000000000000F7
:10018000BB010008BB010008BB010008DFF80CD070
:1001900000F018FF004800472193000828C1002004
:1001A0000648804706480047FEE7FEE7FEE7FEE711
:1001B000FEE7FEE7FEE7FEE7FEE7FEE71164000864
:1001C0008D01000872B6704762B67047EFF3108079
:1001D00072B6704780F310887047B0FA80F07047AD
:1001E00072B64EF62250CEF2000040F2FF01C0F28D
:1001F0000001017029480068006880F3088840F217
:100200003800C2F2000040F23C01C2F200010A686C
:100210000260106880F30988EFF3148040F0020058
:1002200080F31488BFF36F8FBDE8F00F01BC0FBCE3
:10023000BDE8005006BC62B6084719484FF080512F
:100240000160704716484FF080510160704772B6E8
:10025000EFF309801EF0100F08BF20ED108A40F860
:1002600004ED20E9F00F40F23805C2F200052E68D7
:10027000306040F23C01C2F200010A682A60106856
:10028000B0E8F00F50F804EB1EF0100F08BF00F0BC
:1002900009B880F3098862B67047000008ED00E0F5
:1002A00004ED00E0B0EC088AB0EC08CAFFF7F1BF3B
:1002B0002DE9F05F0546002092469B46884606469B
:1002C000814640241BE0284641464746224600F02E
:1002D0007EFC53465A46C01A914110D31146184627
:1002E000224600F065FC2D1A67EB01084F462246B6
:1002F0000120002100F05CFC17EB00094E41201E9C
:10030000A4F10104DFDC484631462A46434600F0AA
:1003100000B830BCBDE8C09FA0F14101192900D848
:100320002030704740EA01039B0703D009E008C969
:10033000121F08C0042AFAD203E011F8013B00F8AA
:10034000013B521EF9D27047D2B201E000F8012BF6
:10035000491EFBD270470022F6E710B513460A4645
:1003600004461946FFF7F0FF204610BD30B505469C
:100370002A460B4612F8010B13F8014B08B1A042B4
:10038000F8D01CB1002802D06D1CF1E7284630BD22
:1003900010B5044604E00B7800F8013B03B1491C9A
:1003A000521EF8D2204610BD421C10F8011B002935
:1003B000FBD1801A704710B5002200E0521C835C0C
:1003C0008C5CA34201D1002BF8D1D8B2E1B2401A23
:1003D00010BD30B505460020034600E05B1C93428B
:1003E00005D2EC5CC85C201A01D1002CF6D130BDDE
:1003F0000FB400B58DB010A909900B9000914FF08B
:10040000FF300A9000200C900548069005480790A0
:100410006A4609A80F9900F0F1FB0DB05DF814FBD6
:10042000190C0008370C00082DE9FF5FD2E901A77D
:100430004FF00008916999461446DDF838B04646F9
:1004400001988847054659EA0B0005D009E0A169E3
:10045000761C019888470546216A28468847002867
:10046000F5D1681C03D05FEACA7005D015E04FF0E3
:10047000FF3004B000F048B82068011D2160D0F8BA
:1004800000800AE05FEACA7001D108F8015BA16947
:10049000761C7F1E019888470546002F1ADD681CD0
:1004A00018D0B9F1000F0DD0E81705EBD06042115C
:1004B00020F01F0059F822102A1A01209040014212
:1004C000E0D107E0BBF1000FDCD1216A2846884764
:1004D0000028D7D0E16901988847BBF1000F07D108
:1004E000002E05DD5FEACA7002D1002188F80010F5
:1004F000A068B84203DDBBF1000F03D017B16FF065
:100500000100B6E73046B4E730BCBDE8C09F00004C
:100510002DE9FF4F087883B09946FF2805D0491C84
:100520002D2804D00024002008E000200BE0012446
:10053000F9E700EB800003EB4000491C0B78FF2B30
:10054000F7D104B1404200230293147819461D46A6
:100550002D2C01D02B2C04D1521C2D2C13D0002477
:100560000294AA461478FF2C0FD00A25A3FB057825
:1005700001FB05814FF0000C03FB0C11521CE31929
:100580004AEB0101EEE70124EAE7814453EA010066
:1005900002D019F5C87F06DA03980021C0E90011DE
:1005A00007B000F065B90025AE4E2F46DFF8B882DF
:1005B000184600F0E2FCCDE90001B9F1000002DAD2
:1005C000C9F1000400E004460023A74A1AEB030B1C
:1005D00042EB045A12E0E00707D02A463346384679
:1005E000414600F048F9074688462A4633461046F9
:1005F000194600F040F905460E466410002CEAD179
:10060000DDE90001B9F1000F5A46534606DA00F061
:10061000A7F93A46434600F0A3F905E000F02BF9AC
:100620003A46434600F027F9029A0AB181F00041A8
:10063000039AC2E90001B3E72DE9FF4F1F468DB0D1
:10064000D7E901464FF0FF382E2045464FF000090C
:100650000B90B9696D1C0E988847396A82468847A5
:100660000028F6D1BAF1FF3F0AD024F4D064002E5E
:1006700011DDBAF12B0F08D0BAF12D0F0BD102E02A
:10068000404611B08DE744F48064B9696D1C0E9842
:1006900088478246761E6946600501D52D2000E018
:1006A0002B208DF8000001F1010B0DF1200809E06D
:1006B000B9696D1C0E98884782460F9844F40074FF
:1006C000761E0560002E02DDBAF1300FF0D00B99D6
:1006D0008A453ED144F0800406E00F99681CA9F1D8
:1006E000010944F400740860B9696D1C761E0E9807
:1006F000884782463028F0D02BE00B998A4505D1F7
:10070000200603D444F08004761E18E0504606F01C
:10071000B8FD08B30DF11301761E44F400748B4547
:1007200008D2AAF130000BF8010B200607D5A9F179
:10073000010003E0200602D409F101008146A00572
:1007400002D50F99681C0860B9696D1C0E9888471E
:100750008246002ED1DC53E0002E51DDBAF1650F48
:1007600002D0BAF1450F4BD1A00549D5B9696D1C2E
:1007700024F44074761E0E9888478246002E0CDDC5
:100780002B2804D0BAF12D0F07D144F48074B96935
:100790006D1C0E9888478246761EE00501D52D21F6
:1007A00000E02B2108F8011BCDF82C8021E00DF191
:1007B0002901761E44F4007488450CD2AAF1300059
:1007C00010F0FF0088F8000002D10B99884509D984
:1007D00008F1010806E0E00501D5244801E042F2F5
:1007E0000F708146B9696D1C0E98884782460F9834
:1007F0000560002E04DD504606F043FD0028D6D1EA
:10080000F9690E988847FF208BF8000088F80000EF
:100810000020069007904B466A4608A906A8FFF7F5
:1008200077FEA00502D46FF001002AE714F0240F30
:100830000AD0E00714D1DDE906123868031D3B60D9
:100840000068C0E900120BE0DDE9060100F07EF966
:100850000146E00704D13868021D3A600068016073
:1008600028460EE7000014400000F03FF1D8FFFFDB
:1008700030BCBDE8C08F2DE9FE4F81EA030404F0CF
:10088000004421F0004100944FF0000B23F000439E
:1008900050EA01045ED052EA03045BD0C3F30A5469
:1008A000C1F30A552C44A4F2F3340194A0FB025482
:1008B000C1F3130141F48011C3F3130343F4801314
:1008C00001FB024400FB034E840A970A44EA815468
:1008D00047EA8357A4FB076802958D0A05FB078545
:1008E0004FEA932C04FB0C542705029D4FEA06584F
:1008F00047EA1637B5EB08056EEB070C870E920E2C
:1009000047EA811742EA8312A7FB0201B6EB0B010B
:1009100064EB00042B0D43EA0C335E1844EB1C50CF
:10092000DA465146E7FB0201C5F313044FEA0B33E5
:1009300043EA14534FEA0432019C43EA0603A4F14C
:100940000C040294009CCDE900B400F019FA03B045
:1009500000F003B800200146F9E730BCBDE8C08FC5
:100960002DE9F04D81EA030404F0004B21F000452D
:1009700014464FF0000A23F0004150EA050220D04F
:1009800054EA01021DD0C5F30A570246C5F313030A
:10099000C1F31300C1F30A5640F4801543F48013E9
:1009A000A7EB0608101BD64608F2FD3873EB0500CE
:1009B00002D308F1010801E092185B41B8F1000F81
:1009C00003DA00200146BDE8F08D00204FF48011CD
:1009D000064684460EE0171B73EB050705D3121B72
:1009E00063EB050306434CEA010C49084FEA30006B
:1009F00092185B4150EA0107EDD152EA030012D090
:100A000082EA040083EA0501084305D0101BAB41CC
:100A100006D20122002306E000224FF0004302E04C
:100A20006FF0010253101AEB06004CEB085110EB6B
:100A30000A0041EB0B01BDE8F04D00F092B90EB594
:100A4000C10F80EAE0700844CA07002140F2334336
:100A50008DE80E000A460B4600F092F903B000BD87
:100A60000EB540F2334102910021CDE900110A4652
:100A70000B4600F085F903B000BD70B5C1F30A5212
:100A800001F000450024C1F3130140F2FF3341F4AB
:100A900080119A4201DA002070BD40F233439A423D
:100AA000A2F2334203DC524200F091F800E09040A1
:100AB0002C43F1D0404270BDC1F30A5210B5C1F3CE
:100AC000130140F2FF3341F480119A4201DA002011
:100AD00010BD40F233439A42A2F2334203DC524249
:100AE00000F075F810BD904010BD000030B5041E38
:100AF00071F1000404DB4FF00044404264EB01015B
:100B0000141E73F1000405DB1C464FF000435242F3
:100B100063EB04038B4208BF824230BD30B5041E34
:100B200071F1000404DB4FF00044404264EB01012A
:100B3000141E73F1000405DB1C464FF000435242C3
:100B400063EB0403994208BF904230BD01F00043BB
:100B500030B421F0004150EA010206D00A0DA2F59E
:100B60006072C1F31301002A02DC30BC0020704720
:100B7000440F44EAC104C100E01830BC00EBC2508D
:100B800000F0B8B830B50B46014600202022012401
:100B900009E021FA02F59D4205D303FA02F5491B4B
:100BA00004FA02F52844151EA2F10102F1DC30BD61
:100BB000202A04DB203A00FA02F10020704791401D
:100BC000C2F1200320FA03F3194390407047202A12
:100BD00004DB203A21FA02F00021704721FA02F3E7
:100BE000D040C2F1200291400843194670470000EE
:100BF000026811441378016018467047D1600449B7
:100C000051610449116200211161114600F004BADA
:100C1000F10B00080D100008426842B1016811F89C
:100C2000013B23B1521EC0E9001218467047012152
:100C3000C160881E704742685AB1C368016843B9F1
:100C400083688B4205D0491E521CC0E90012002067
:100C500070474FF0FF3070470FB4002300B589B0E4
:100C60000CA900910B996FF00042CB601E4B0693CC
:100C70001E4B07930423CDE901321D4A0892024618
:100C80006B460020FFF7D8FC09B05DF814FB70B587
:100C900086B006464FF0FF300091CDE901010020FB
:100CA00015460C4604903246694604A8FFF7D4FF67
:100CB00002460498211825B108B1084600E02046F4
:100CC0002860049800280DD0002A02DD0098884290
:100CD00008D0081B0094CDE901043246694604A8F7
:100CE000FFF7BAFF06B070BD190C0008370C0008FA
:100CF0000D1000080029A8BF7047401C490008BF1C
:100D000020F00100704710B4B0FA80FC00FA0CF03B
:100D100050EA010404BF10BC704749B1CCF1200473
:100D200021FA04F411FA0CF118BF01212143084300
:100D3000A3EB0C01CB1D4FEA00614FEA102042BF2C
:100D4000002010BC704700EBC35010440029A4BF22
:100D500010BC7047401C490008BF20F0010010BCC7
:100D6000704710B5141E73F1000408DA401C41F1FD
:100D7000000192185B411A4301D120F0010010BD1F
:100D80002DE9F04D92469B4611B1B1FA81F202E095
:100D9000B0FA80F220329046FFF70AFF04460F4671
:100DA00040EA0A0041EA0B0153465A46084313D071
:100DB000114653EA010019D0C8F140025046FFF72E
:100DC00006FF05460E46504659464246FFF7F0FEDE
:100DD000084305D0012004E020463946BDE8F08DE7
:100DE0000020054346EAE0762C4337430A98630522
:100DF000E40AA0EB08000022FD0A44EA47540A3046
:100E000002D500200146E9E7010510196941DDE935
:100E1000084500196941BDE8F04DA2E72DE9FE4FF4
:100E2000804681EA0300C00F0C46009021F000418B
:100E300023F00045B8EB0200A94105D24046214607
:100E400090461C460B46024623F00040104347D014
:100E5000270DC7F30A00C3F30A510290401A01900C
:100E600040286BDAC3F3130040F4801B00989246CD
:100E700020B10023D2EB030A63EB0B0B0198594618
:100E8000C0F140025046FFF793FE06460D4650461D
:100E90005946019A00F0A8F810EB080061410024BF
:100EA00087EA115284EAE7731A4340D0009A62B38A
:100EB000019A012A4FEA075215DC001B61EB02017F
:100EC0004FF0004202EA0752CDE90042001C41F512
:100ED000801132462B46FFF753FF03B000F045B8B0
:100EE00040462146F9E7001B61EB0201001C41F579
:100EF000801300185B412018A2F5001747EB03018F
:100F000040EAD570B6196D4111E06D084FEA36061A
:100F100045EAC0754FEA0752001B61EB0201001C55
:100F200041F5801149084FEA30000019514132461D
:100F30002B4603B000F01CB8FFF713BF0098012246
:100F400040000023D0EB020263EBE07300982146DF
:100F50004FEAE074B8EB000061EB0401E9E783F0CD
:100F600000435BE781F0004158E730BCBDE8C08F2B
:100F700030BCBDE8C04FFFF7DFBF0EB540F23342D3
:100F800002920022CDE900221346FFF7F9FE03B0DA
:100F900000BDC1F30A52C1F3130140F2FF3341F423
:100FA00080119A4202DA00200146704740F2334332
:100FB0009A42A2F2334202DC5242FFF708BEFFF728
:100FC000F7BD0000064C074D06E0E06840F0010365
:100FD00094E8070098471034AC42F6D3FFF7DAF8EC
:100FE000CC3D0108EC3D0108202A06DBCB17203A56
:100FF00041FA02F043EAE07306E041FA02F3D0401E
:10100000C2F120029140084319467047C0B24FF424
:10101000F05100F09BB900002DE9F34F8BB04FF079
:10102000000801F10C000C464FF0010B46460DF193
:10103000080A01906269012101989047051E2DD090
:10104000252D2CD0216A8847C0B162690121019801
:101050009047216A88470028F7D1411E62690198AC
:10106000904700E0761CA1690B988847216A884761
:101070000028F7D1E1690B988847DBE7A1690B9855
:1010800088470746A84201D1761CD3E7E1690B984F
:1010900088477F1C02D1B8F1000F6FD046E10027CE
:1010A00062693D463946019890472A2804D1626911
:1010B0000121019890470125DFF88492626901219E
:1010C00001989047A0F130010A290AD24F45E5DC8A
:1010D00007EB870100EB4107303FDFD445F01005F7
:1010E000ECE7E90601D46FF000476C280AD04C28E1
:1010F00014D0682815D06A280DD074281CD07A28FE
:101100001AD01DE062690121019890476C2802D035
:1011100045F0040514E045F002050DE045F020051A
:101120000AE06269012101989047682802D045F0E1
:10113000080505E045F400656269012101989047C2
:10114000C4E9015765283DD019DC58287AD00CDC59
:10115000452837D004DC252826D0412831D131E07C
:1011600046282FD047282CD12CE05B2877D0612847
:1011700028D063287CD0642823D15AE0D0E06F289F
:1011800048D008DC66281DD067281BD0692821D0EC
:101190006E2816D127E0702845D0732868D07528AE
:1011A00047D078280DD14DE0A1690B9888470546B6
:1011B00025283FF469AFE1690B9888476D1C3FF41F
:1011C0006AAFB3E023466A466FF001000B99FFF760
:1011D00033FA9EE045F040006060A80723464FF0D8
:1011E000000236D43EE0E8077FF447AF2068011DD7
:1011F00021600068290501D506701BE7290701D584
:10120000068017E7A90703D5F117C0E9006111E7C8
:1012100006600FE745F040006060A80723464FF0E6
:10122000080216D41EE040F60E0125EA01006060B7
:1012300016E045F040006060A80723464FF00A0220
:1012400007D40FE045F040006060A80708D52346AA
:1012500010226FF001000B99AFF3008059E007E016
:10126000234610226FF001000B99AFF3008050E08D
:101270004FF000094F464B46632802D05B2806D04A
:1012800040E0E80601D40120A06001273AE062694D
:101290000121019890475E2805D14FF0010962694C
:1012A000494601989047216939B900210A465346B9
:1012B00043F82120491C0829FADBB0B3216969B938
:1012C000C11700EBD16253110AEB830122F01F0218
:1012D000821A01200B68904003430B606269012170
:1012E000019890475D28E8D1B9F1000F09D000209E
:1012F000514651F82020D24341F82020401C0828B4
:10130000F7DB02AB224600976FF001000B99FFF765
:101310008BF800280CDA401C08D1BBF1000F05D077
:101320004FF0FF300DB000F00DB8FFE74046F9E791
:10133000E90701D108F1010806444FF0000B79E6F6
:10134000CCCCCC0C30BCBDE8C08F00007F2801D9CC
:10135000002208E0064A02EB5002C007127800D1D2
:10136000120902F00F02012090400840704700006F
:101370004C3B01081CB501200190FF20012301AA6C
:1013800046210090014800F08BFE1CBDDC1B0020B4
:1013900000BFFEE7704710B5022000F0ADFC10BDA5
:1013A00010B5042000F0A8FC10BD10B5082000F016
:1013B000A3FC10BD704700002DE9F84F05460C4610
:1013C0004FF0000A00200090FE49E068884200D0FB
:1013D00000E000BF00BF95F85000012802D10220B4
:1013E00000F050BA012085F8500000BF286803F0D3
:1013F00021FE002872D1606805281AD8606802288A
:1014000006D0032807D0042808D005280DD108E00D
:101410000C2060600CE01220606009E01820606021
:1014200006E04FF48070606002E00620606000BF5C
:1014300000BF2968D4E9002001F1300CC0F3012B72
:101440000CEB8B03D3F800C000F01F0E4FF01F0B06
:101450000BFA0EFB2CEA0B0C00F01F0BC2F3846E90
:101460000EFA0BFE4CEA0E0CC3F800C000BF286851
:1014700003F0E0FD8146286803F0CDFD8046B9F118
:10148000000F2AD1B8F1000FFBD1A26821682868AB
:1014900003F0D5FD60692968C968C1F3C10149003D
:1014A00000FA01F72069042819D028682268216908
:1014B00000F1600C0CEB8103D3F800C0DFF808B337
:1014C0000CEA0B0C02F0F84B4BF0004B4BEA070B0D
:1014D0004CEA0B0CC3F800C000BFA8E0B8E1002143
:1014E000286803F08FFDC0F3120030B9002128688E
:1014F00003F088FDC0F3846007E00021286803F052
:1015000081FD90FAA0F0B0FA80F02168C1F31201D9
:1015100019B92168C1F3846104E0216891FAA1F14D
:10152000B1FA81F1884204D100221146286803F003
:10153000A0FD0121286803F065FDC0F3120030B959
:101540000121286803F05EFDC0F3846007E00121FB
:10155000286803F057FD90FAA0F0B0FA80F02168F7
:10156000C1F3120119B92168C1F3846104E0216853
:1015700091FAA1F1B1FA81F1884204D1002201214E
:10158000286803F076FD0221286803F03BFDC0F3D4
:10159000120030B90221286803F034FDC0F38460E2
:1015A00007E00221286803F02DFD90FAA0F0B0FAC0
:1015B00080F02168C1F3120119B92168C1F3846177
:1015C00004E0216891FAA1F1B1FA81F1884204D1D5
:1015D00000220221286803F04CFD0321286803F053
:1015E00011FDC0F3120030B90321286803F00AFD91
:1015F000C0F3846007E00321286803F003FD90FA3C
:10160000A0F0B0FA80F02168C1F3120119B9216885
:10161000C1F3846104E0216891FAA1F1B1FA81F18A
:10162000884204D100220321286803F022FD2868A3
:1016300003F0F6FC002870D12868E2682168D0F831
:10164000B0C0C1F312032CEA030C02F0180B5F4B7D
:1016500023FA0BF30B404CEA030CC0F8B0C000BFF8
:101660005849E068884258D12368C3F312031BB974
:101670002368C3F3846304E0236893FAA3F3B3FA03
:1016800083F35B1C03F01F03092B3ED82368C3F3CD
:1016900012031BB92368C3F3846304E0236893FA3D
:1016A000A3F3B3FA83F35B1C03F01F034FF0010CA9
:1016B0000CFA03FC2368C3F312031BB92368C3F3BA
:1016C000846304E0236893FAA3F3B3FA83F35B1C07
:1016D00003F01F034CEA836C2368C3F312031BB9A6
:1016E0002368C3F3846304E0236893FAA3F3B3FA93
:1016F00083F35B1C03F01F0303EB43034FF0000B6A
:101700004BEA03534CEA03033FE02368C3F312039D
:1017100023B92368C3F3846305E03BE0236893FAAD
:10172000A3F3B3FA83F35B1C03F01F034FF0010C28
:101730000CFA03FC2368C3F312031BB92368C3F339
:10174000846304E0236893FAA3F3B3FA83F35B1C86
:1017500003F01F034CEA836C2368C3F312031BB925
:101760002368C3F3846304E0236893FAA3F3B3FA12
:1017700083F35B1C03F01F030A3B03EB43034FF0AF
:10178000007B4BEA03534CEA03031946A26828681E
:1017900003F055FC0E492068084078B300BF0D489F
:1017A000806800F0E07600BF0B49206888422DD1A8
:1017B00006F4000050BB0949286888424ED146F41F
:1017C00000010DE000007F4000F0FF03FFFF070075
:1017D0000000088000030450000052C700000450BD
:1017E000224803F040FC224800682249B0FBF1F097
:1017F000401C00EB40008000009003E016E00098E1
:10180000401E009000980028F9D127E01A4920686E
:1018100088420CD106F0807048B91849286888427F
:101820001CD146F08071114803F01DFC16E01449EC
:101830002068884212D106F4800078B90F492868E0
:1018400088420BD146F48001084803F00CFC05E007
:10185000686D40F0200068654FF0010A00BF00206D
:1018600085F8500000BF5046BAE500000003045060
:1018700024000020400D0300000084CB0000045031
:101880000100008018BCBDE8E08F00002DE9F8439E
:1018900004464FF000090020009014B90120BDE873
:1018A000F883206920B12020005D012800D100BF0D
:1018B000606D30B9204600F0E9F80020A06584F89A
:1018C000500020688168C1F3407131B1206881689F
:1018D000674A1140816000BF00BF206803F0A5FB8C
:1018E000B0B920688168634A114041F0805181603D
:1018F00000BF614800686149B0FBF1F0401C400046
:10190000009002E00098401E009000980028F9D155
:10191000206803F08AFB48B9606D40F010006065F4
:10192000A06D40F00100A0654FF00109206803F0B0
:1019300081FB0646606D00F0100000287ED1002E6D
:10194000FCD1606D20F4807040F00200606520687A
:1019500003F066FB68B94A4803F062FB48B9606867
:101960004849896821F47C110143464A916000BFCF
:1019700000BF607E616B41EA4030E1680843A168C6
:1019800008432021095D40EA01452020005D01282F
:1019900003D1A08C401E45EA4045A06A28B1208DA5
:1019A00000F47070E16A084305432068C068364956
:1019B000084028432168C860206803F03BFB80464C
:1019C000206803F028FB0746B8F1000F2CD127BB95
:1019D000207E002141EA803194F8300041EA400540
:1019E0002068C06844F20201884328432168C86027
:1019F00094F83800012811D1E06B40F00101206C0F
:101A00000843616C0843A16C08432168096940F2EE
:101A1000FC72914308432168086105E02068006971
:101A200020F0010021680861206901280BD120689D
:101A3000006B20F00F00E169491E00E010E0084350
:101A40002168086305E02068006B20F00F00216822
:101A50000863606D20F0020040F00100606505E061
:101A6000606D40F0100060654FF00109484616E7D0
:101A7000C0FFFF5FC0FFFF7F24000020400D030078
:101A8000000004500003045007C0F0FF10B586B0FA
:101A90000446142101A8FEF75EFC1549206888421F
:101AA00024D100BF1348C06C40F400501149C864F1
:101AB0000846C06C00F40050009000BF00BF00BF9B
:101AC0000846C06C40F00400C8640846C06C00F0D2
:101AD0000400009000BF00BF042001900B20029082
:101AE0000020039001A9044800F014F906B010BDCD
:101AF0000000045000100240000800480146002287
:101B000091F82500022808D00420C86300BF0020F7
:101B100081F8240000BF012070470868006820F0A9
:101B20000E000B6818600868006820F001000B6860
:101B3000186091F8440000F01C03012098400B6CE1
:101B40005860012081F8250000BF002081F82400A2
:101B500000BF1046E0E770B50446002594F8250064
:101B6000022803D00420E063012520E020680068FB
:101B700020F00E00216808602068006820F0010055
:101B80002168086094F8440000F01C01012088409E
:101B9000216C4860012084F8250000BF002084F8F3
:101BA000240000BFA06B10B12046A16B88472846D7
:101BB00070BD000070B5044600F0A0F90646254649
:101BC000681C10B104480078054400BF00F096F985
:101BD000801BA842FAD370BD20000020F0B50B4650
:101BE000002176E001258D4005EA0302002A6FD02E
:101BF0003A4D8E0855F826408D072E0F0F25B5401B
:101C00002C40B0F1904F01D1002514E0344DA84292
:101C100001D101250FE0334DA84201D102250AE090
:101C2000314DA84201D1032505E0304DA84201D134
:101C3000042500E007258E07360FB540A54221D1C7
:101C40002B4D2D6895432A4E3560351D2D689543E3
:101C5000361D3560351D2D689543361D3560351DA3
:101C60002D689543361D35608D072E0F0F2505FA1B
:101C700006F41A4D8E0855F82650A543174E8F08C6
:101C800046F8275005684F000326BE4035430560DF
:101C9000CE0800F1200555F826504E07F70E0F2606
:101CA000BE40B543CF0800F1200646F827508568AE
:101CB0004F000326BE40B5438560466801258D4030
:101CC000AE434660C5684F000326BE40B543C560BD
:101CD000491C23FA01F5002D84D1F0BD0800014014
:101CE0000004004800080048000C004800100048AC
:101CF000000401407047000010B504460448006825
:101D0000204020B1024804602046FFF7F3FF10BDD9
:101D10001404014078B503460022CBE0012696402A
:101D20000D6805EA0604002C72D04D68012D08D01C
:101D30004D68022D05D04D68112D02D04D68122D31
:101D400013D1986856000325B540A8435600CD68C6
:101D5000B54028439860586801259540A8430D79FF
:101D6000C5F30015954028435860D86856000325F0
:101D7000B540A84356008D68B5402843D8604D68EB
:101D8000022D02D04D68122D13D1D60803F1200583
:101D900055F826005507EE0E0F25B540A843560707
:101DA000F60E0D69B5402843D60803F1200545F825
:101DB0002600186856000325B540A8430D7905F0A4
:101DC00003055600B540284318604D6805F080555E
:101DD000B5F1805F6DD100BF394D2D6E45F0010525
:101DE000374E356635462D6E05F00105009500BF6E
:101DF00000BF4FEAB635960855F8260095072E0F16
:101E00000F25B540A843B3F1904F02D1002515E04E
:101E10004FE02C4DAB4201D101250FE02A4DAB42E2
:101E200001D102250AE0294DAB4201D1032505E08D
:101E3000274DAB4201D1042500E007259607360F58
:101E4000B5402843234D960845F82600224D2868C2
:101E5000A0434D6805F48035B5F5803F00D120439F
:101E60001D4D28602D1D2868A0434D6805F40035E0
:101E7000B5F5003F00D12043174D2D1D28602D1DC5
:101E80002868A0434D6805F48015B5F5801F00D182
:101E90002043114D083528602D1D2868A0434D684A
:101EA00005F40015B5F5001F00D120430A4D0C358F
:101EB0002860521C0D68D540002D7FF42FAF78BDEF
:101EC000001002400004004800080048000C0048D0
:101ED00000100048080001400004014010B54269AC
:101EE00021EA020302EA010443EA0443836110BDCC
:101EF0000AB1816100E0816270470000014800681A
:101F00007047000018000020024692F84100202887
:101F10002DD100BF92F84000012801D10220704766
:101F2000012082F8400000BF242082F841001068A0
:101F3000006820F00100136818601068006820F441
:101F400080501368186010680068084313681860B0
:101F50001068006840F0010013681860202082F8C3
:101F6000410000BF002082F8400000BFD7E70220F8
:101F7000D5E710B502460B4692F8410020282AD139
:101F800000BF92F84000012801D1022010BD0120BD
:101F900082F8400000BF242082F8410010680068E9
:101FA00020F00100146820601068016821F470615D
:101FB00041EA0321106801601068006840F00100E8
:101FC00014682060202082F8410000BF002082F8C1
:101FD000400000BFDAE70220D8E7000010B5044651
:101FE0000CB9012010BD94F8410028B9002084F8F4
:101FF0004000204600F004F9242084F841002068C5
:10200000006820F0010021680860606820F07060BE
:10201000216808612068806820F400402168886099
:10202000E068012805D1A06840F40040216888607C
:1020300004E0A06840F4044021688860E068022859
:1020400002D1800221684860206840681349084333
:10205000216848602068C06820F400402168C8609A
:10206000D4E904010843A16940EA01202168C8605D
:10207000D4E907010843216808602068006840F03F
:1020800001002168086000206064202084F841007D
:102090000020206384F8420000BFA3E70080000214
:1020A0002DE9F8430446894616461F46DDF8208090
:1020B00094F84100202871D100BF94F84000012815
:1020C00002D10220BDE8F883012084F8400000BF5F
:1020D000FFF714FF054619230122D103204600957E
:1020E00002F00CFC08B10120ECE7212084F841004B
:1020F000102084F842000020606466626785606397
:10210000608DFF280BD9FF2020853B48009094F874
:102110002820C3024946204602F0D6FB0AE0608D23
:1021200020853548009094F828200303494620462E
:1021300002F0CAFB3FE02A464146204602F038FC46
:1021400008B10120BEE7606A007821688862606A91
:10215000401C6062608D401E6085208D401E208581
:10216000608D40B3208D30BB434600228021204645
:10217000009502F0C3FB08B10120A3E7608DFF28A2
:102180000DD9FF2020850020009094F828204FF0E2
:1021900080734946204602F097FB0CE02AE0608DF0
:1021A00020850020009094F828204FF000734946C5
:1021B000204602F089FB608D0028BCD12A464146AA
:1021C000204602F0CAFB08B101207BE720202168ED
:1021D000C86120684068094908402168486020209B
:1021E00084F84100002084F8420000BF84F84000D9
:1021F00000BF67E7022065E70020008000E800FEDE
:1022000010B586B00446142101A8FEF7A4F81849B9
:102210002068884229D100BF1648C06C40F00200F7
:102220001449C8640846C06C00F00200009000BF6A
:1022300000BFC020019012200290012003900320D3
:1022400004900420059001A90B48FFF763FD00BF2F
:102250000848806D40F40010064988650846806D86
:1022600000F40010009000BF00BF06B010BD0000D9
:102270000054004000100240000400480348006879
:102280000349097808440149086070471800002094
:102290002000002010B50024032000F0CBF800201F
:1022A00000F008F808B1012401E000F02FF8204602
:1022B00010BD000070B50446002511480078D8B163
:1022C0000F4800784FF47A71B1FBF0F00D490968BE
:1022D000B1FBF0F6304601F041FA58B9102C07D2A4
:1022E00000222146501E00F063F80748046004E015
:1022F000012502E0012500E00125284670BD00000F
:1023000020000020240000201C00002008B500BF91
:102310000D48006E40F001000B4908660846006E4B
:1023200000F00100009000BF00BF00BF0846806DB4
:1023300040F0805088650846806D00F08050009025
:1023400000BF00BF08BD00000010024010B50146EC
:102350000846002817DB00F01F0301229A400B4BB0
:10236000440943F8242000BF00BF00BFBFF34F8FD4
:1023700000BF00BF00BF00BF00BF00BFBFF36F8F33
:1023800000BF00BF00BF00BF10BD000080E100E043
:1023900001460846002809DB00F01F0301229A408D
:1023A00043099B0003F1E023C3F8002100BF7047FD
:1023B0002DE9F05F80460D461646002704F036FEF4
:1023C000074639462A46334601F00700C0F1070A9E
:1023D000BAF1040F02D94FF0040A01E0C0F1070A74
:1023E000D14600F1040ABAF1070F02D24FF0000AF9
:1023F00001E0A0F1030AD4464FF0010A0AFA09FAF3
:10240000AAF1010A0AEA020A0AFA0CFA4FF0010BD1
:102410000BFA0CFBABF1010B0BEA030B4AEA0B04C2
:102420002146404604F00AFE00F000B830BCBDE88A
:10243000C09F000000BF00F00702064B19684FF66E
:10244000FF031940044B0B4343EA0221014B19607F
:1024500000BF70470CED00E00000FA050246B2F53F
:10246000007F2AD11D48006800F4C060B0F5007FED
:1024700032D01A48006820F4C06040F40070174B56
:1024800018601748006832235843164BB0FBF3F02E
:10249000411C00E0491E1148406900F48060B0F51D
:1024A000806F01D10029F5D10C48406900F48060AB
:1024B000B0F5806F10D1032070470848006800F421
:1024C000C060B0F5806F07D00448006820F4C06099
:1024D00040F48060014B18600020EDE70070004080
:1024E0002400002040420F000248006800F4C06051
:1024F00070470000007000400348006840F480709E
:1025000001490860704700000070004003480068FF
:1025100040F00400014908607047000000100240CC
:102520002DE9F84304460025A846208800F4006001
:10253000B0F5006F26D1606C68B1B0F5000F03D024
:10254000B0F5400F0ED10CE0D548C06840F48030A3
:10255000D349C86008E00021201D03F0A3FC054614
:1025600002E001E0012500BF00BF55B9CC4888302A
:10257000006820F44000616C0843C949C1F8880034
:1025800000E0A846206800F40030B0F5003F75D1A7
:102590004FF00009C248806D012121EA107078B126
:1025A00000BFBF48806D40F08050BD498865084637
:1025B000806D00F08050009000BF00BF4FF0010917
:1025C000B848006840F48070B6490860FFF796FC90
:1025D000074606E0FFF792FCC01B022801D903253D
:1025E00005E0B048006800F480700028F2D000BF19
:1025F0007DBBAB489030006800F44076CEB1A06D52
:10260000B04216D0A6489030006820F44076A44826
:10261000D0F8900040F48030A149C1F890000846FD
:10262000D0F8900020F48030C1F890000846C0F83F
:10263000906006F00100A8B1FFF760FC074609E0D2
:10264000FFF75CFCC01B41F28831884202D90325A8
:1026500007E016E092489030006800F00200002881
:10266000EED000BF5DB98E489030006820F4407015
:10267000A16D08438A49C1F8900003E00CE0A84628
:1026800000E0A846B9F1010F05D18548806D20F022
:1026900080508349886500BF207800F0010048B170
:1026A0007F488830006820F00300216A08437C4995
:1026B000C1F88800207800F00200022809D178488B
:1026C0008830006820F00C00616A08437449C1F842
:1026D0008800207800F00400042809D17048883070
:1026E000006820F03000A16A08436D49C1F88800F5
:1026F000207800F02000202809D16948883000683F
:1027000020F44060E16A08436549C1F888002088E8
:1027100000F40070B0F5007F09D16148883000688E
:1027200020F44020E16B08435D49C1F8880020880F
:1027300000F48060B0F5806F09D159488830006896
:1027400020F44010216C08435549C1F888002078D6
:1027500000F04000402809D151488830006820F43A
:102760004050216B08434E49C1F88800207800F0A2
:102770008000802809D14A488830006820F4404011
:10278000616B08434649C1F88800208800F48070D6
:10279000B0F5807F09D142488830006820F440308D
:1027A000A16B08433E49C1F88800206800F400206E
:1027B000B0F5002F1FD13A488830006820F0406003
:1027C000A16C0843364988310860A06CB0F1006FF5
:1027D00006D13348C06840F480103149C8600AE02F
:1027E000A06CB0F1806F06D10121201D03F05AFBCF
:1027F000054605B1A846206800F48020B0F5802F7A
:102800001FD127488830006820F04060E16C084301
:10281000234988310860E06CB0F1006F06D1204890
:10282000C06840F480101E49C8600AE0E06CB0F156
:10283000806F06D10121201D03F034FB054605B150
:10284000A846208800F48040B0F5804F14D1144889
:102850008830006820F04050216D084310498831CD
:102860000860206DB0F1805F06D10221201D03F0C9
:1028700019FB054605B1A846208800F40040B0F5D4
:10288000004F09D106488830006820F08040616D13
:1028900008430349C1F888004046BDE8F8830000BA
:1028A00000100240007000402DE9F04104460D4642
:1028B00014B90120BDE8F0815548006800F0070018
:1028C000A8420ED25248006820F007002843504921
:1028D00008600846006800F00700A84201D0012007
:1028E000E8E7207800F00100002840D06068032865
:1028F00006D14848006800F00070D8B90120D9E737
:102900006068022806D14348006800F4003088B9A6
:102910000120CFE7606830B93E48006800F002004F
:1029200040B90120C6E73B48006800F4806008B960
:102930000120BFE73748806820F003006168084342
:1029400034498860FFF7DAFA064608E0FFF7D6FA5E
:10295000801B41F28831884201D90320AAE72D4823
:10296000806800F00C006168B0EB810FEED1207838
:1029700000F00200022807D12648806820F0F0000D
:10298000A1680843234988602148006800F00700D7
:10299000A8420ED91E48006820F0070028431C49B1
:1029A00008600846006800F00700A84201D0012036
:1029B00080E7207800F00400042807D115488068DB
:1029C00020F4E060E168084312498860207800F054
:1029D0000800082808D10F48806820F46050216959
:1029E00040EAC1000B49886000F046F8094989684F
:1029F000C1F30311084A515C01F01F01C8400749A7
:102A0000086007480068FFF755FC0746384651E75D
:102A100000200240001002407CEC0008240000204E
:102A20001C000020014800687047000024000020BE
:102A300000B5FFF7F7FF05498968C1F30221044A91
:102A4000515C01F01F01C84000BD000000100240B1
:102A50008CEC000800B5FFF7E5FF05498968C1F374
:102A6000C221044A515C01F01F01C84000BD0000B2
:102A7000001002408CEC0008F0B500230020DFF8C5
:102A8000D4C0DCF808C00CF00C01DFF8C8C0DCF8DA
:102A90000CC00CF0030719B10C291ED1012F1CD159
:102AA000DFF8B0C0DCF800C00CF0080CBCF1000F7F
:102AB00006D1DFF8A0C0DCF894C0CCF3032305E016
:102AC000DFF890C0DCF800C0CCF30313DFF888C057
:102AD0005CF8233041B9184606E0042901D11F48AB
:102AE00002E0082900D11E480C2932D1DFF864C069
:102AF000DCF80CC00CF00304012C09D0022C02D02D
:102B0000032C04D101E0154A04E0154A02E000BF9D
:102B10001A4600BF00BFDFF83CC0DCF80CC0CCF3A5
:102B2000021C0CF10106DFF82CC0DCF80CC0CCF361
:102B3000062C0CFB02FCBCFBF6F2DFF818C0DCF83C
:102B40000CC0CCF3416C0CF1010C4FEA4C05B2FB0C
:102B5000F5F0F0BD0010024094EC00080024F400F1
:102B600000127A002DE9F843044614B90120BDE8AB
:102B7000F883F948806800F00C06F748C06800F058
:102B80000307207800F01000102877D11EB10C2E1A
:102B900076D1012F74D1F048006800F0020018B11E
:102BA000A06908B90120E2E7EB48216A006800F05B
:102BB000080020B1E848006800F0F00005E0E648B1
:102BC0009430006800F47060000981421FD9206AC7
:102BD00003F02CFA08B10120C9E700BFDE48006805
:102BE00040F00800DC4908600846006820F0F0006A
:102BF000216A0843D849086000BF0846406820F4AD
:102C00007F40E16940EA0120D34948601FE000BFEE
:102C1000D148006840F00800CF49086008460068C5
:102C200020F0F000216A0843CB49086000BF084645
:102C3000406820F47F40E16940EA0120C6494860CD
:102C40002EB9206A03F0F2F908B101208FE7FFF7EF
:102C500013FFC1498968C1F30311C04A515C01F0F7
:102C60001F01C840BE490860BE480068FFF722FB4C
:102C70008046B8F1000F4ED0404678E74BE0FFE7C2
:102C8000A06980B3B448006840F00100B249086010
:102C9000FFF734F9054606E0FFF730F9401B02283C
:102CA00001D9032063E7AC48006800F00200002867
:102CB000F2D000BFA848006840F00800A6490860AC
:102CC0000846006820F0F000216A0843A249086025
:102CD00000BF0846406820F47F40E16940EA0120D7
:102CE0009D49486017E0FFE79B48006820F001001D
:102CF00099490860FFF702F9054606E0FFF7FEF87C
:102D0000401B022801D9032031E79348006800F0F6
:102D100002000028F2D1207800F0010000285CD0E9
:102D2000082E03D00C2E0AD1032F08D18A48006840
:102D300000F4003088B3606878BB012017E700BF5B
:102D40006068B0F5803F06D18348006840F4803069
:102D5000814908601AE06068B0F5A02F0BD17E4869
:102D6000006840F480207C4908600846006840F410
:102D7000803008600AE07848006820F480307649A6
:102D800008600846006820F48020086000BF606882
:102D900090B1FFF7B3F8054607E01EE0FFF7AEF885
:102DA000401B642801D90320E1E66B48006800F469
:102DB00000300028F2D010E0FFF7A0F8054606E04A
:102DC000FFF79CF8401B642801D90320CFE6624836
:102DD000006800F400300028F2D1207800F00200F2
:102DE000022852D1042E03D00C2E14D1022F12D15E
:102DF0005948006800F4806018B1E06808B9012003
:102E0000B5E65548406820F0F850217C40EA016062
:102E10005149486039E0E06800B34F48006840F429
:102E200080704D490860FFF769F8054606E0FFF736
:102E300065F8401B022801D9032098E6464800683F
:102E400000F480600028F2D04348406820F0F85039
:102E5000217C40EA01604049486016E03E48006835
:102E600020F480703C490860FFF748F8054606E00A
:102E7000FFF744F8401B022801D9032077E63648C3
:102E8000006800F480600028F2D1207800F008008B
:102E9000082836D16069D0B12F489430006840F0DE
:102EA00001002D49C1F89400FFF728F8054606E017
:102EB000FFF724F8401B022801D9032057E62648D3
:102EC0009430006800F002000028F1D019E0224898
:102ED0009430006820F001001F49C1F89400FFF70A
:102EE0000DF8054606E0FFF709F8401B022801D956
:102EF00003203CE618489430006800F002000028E7
:102F0000F1D1207800F00400042872D14FF00009BC
:102F10001148806D00F0805078B900BF0E48806D78
:102F200040F080500C4988650846806D00F0805064
:102F3000009000BF00BF4FF001090B48006800F48B
:102F4000807000BB0848006840F480700649086043
:102F5000FEF7D4FF054610E0001002407CEC0008AC
:102F6000240000201C00002000700040FEF7C6FF77
:102F7000401B022801D90320F9E5D048006800F47D
:102F800080700028F2D000BFA068012808D1CC488A
:102F9000006840F00100CA499039C1F8900021E072
:102FA000A06805280FD1C648006840F00400C44955
:102FB0009039C1F890000846D0F8900040F0010028
:102FC000C1F890000EE0BE48006820F00100BC4946
:102FD0009039C1F890000846D0F8900020F0040025
:102FE000C1F8900000BFA068A0B1FEF787FF0546BA
:102FF00009E02EE0FEF782FF401B41F28831884253
:1030000001D90320B3E5AE48006800F002000028B3
:10301000F0D012E0FEF772FF054608E0FEF76EFF03
:10302000401B41F28831884201D903209FE5A44822
:10303000006800F002000028F0D1B9F1010F07D1BB
:103040009F489038806D20F080509D499039886568
:1030500000BF207800F02000202838D1606AD8B165
:1030600097480830006840F0010095499039C1F850
:103070009800FEF743FF054606E0FEF73FFF401BC2
:10308000022801D9032072E58D480830006800F05D
:1030900002000028F1D01AE089480830006820F0CA
:1030A000010087499039C1F89800FEF727FF0546CF
:1030B00006E0FEF723FF401B022801D9032056E556
:1030C0007F480830006800F002000028F1D1A06AB3
:1030D00000287DD0A06A02287BD179489038C76843
:1030E00007F00301E06A814225D107F07001206BEF
:1030F000401EB1EB001F1ED107F4FE41606BB1EB27
:10310000002F18D107F078413820005DB1EBC06F77
:1031100011D107F4C001A08F0122C2EB5000B1EB26
:10312000405F08D107F0C0614020005DC2EB500055
:10313000B1EB406F66D00C2E62D0614890380068C9
:1031400000F0806008B1012011E55D48903800680A
:1031500020F080705A4990390860FEF7CFFE05468E
:1031600006E0FEF7CBFE401B022801D90320FEE457
:1031700053489038006800F000700028F1D1D4E97D
:103180000B10401E41EA0011606B41EA0021A08F44
:103190000122C2EB500041EA40514020005DC2EBE9
:1031A000500041EA40613820005D41EAC060444976
:1031B0009039C968434A1140084341499039C86071
:1031C0000846006840F0807008600846C06801E06A
:1031D0005BE03DE040F08070C860FEF78FFE054682
:1031E00006E0FEF78BFE401B022801D90320BEE457
:1031F00033489038006800F000700028F1D05AE0A1
:103200000120B4E42E489038006800F00070E0BB64
:103210002B489038006840F0807029499039086048
:103220000846C06840F08070C860FEF767FE05463B
:1032300006E0FEF763FE401B022801D9032096E456
:103240001F489038006800F000700028F1D032E08C
:103250000C2E2ED01A489038006820F08070184943
:10326000903908600846006800F0006020B9084600
:10327000C06820F00300C86011489038C068124947
:1032800008400F499039C86000E014E0FEF736FEB0
:10329000054606E0FEF732FE401B022801D9032056
:1032A00065E407489038006800F000700028F1D10C
:1032B00001E001205BE4002059E4000000700040C0
:1032C000901002408C809D01FFFFEEFE70B5044619
:1032D0000CB9012070BD606A38B96068B0F5827FB2
:1032E00000D105E00021E16102E00021216161617E
:1032F0000021A16294F85D0028B9002084F85C00E8
:10330000204600F05BF8022084F85D002068006829
:1033100020F0400021680860E068B0F5E06F01D956
:10332000002501E04FF48055E068B0F5706F05D0DE
:10333000E068B0F5E06F01D00021A162A08800F440
:103340008270218901F404410843217C01F00201CB
:103350000843217D01F001010843218B01F4007134
:103360000843217F01F0380108432021095D01F065
:1033700080010843218D01F4005108432168086051
:103380000421A06901EA104094F8241001F0100112
:10339000084394F8341001F008010843A18901F4AE
:1033A0007061084305F4805108432168486000209B
:1033B0002066012084F85D0000208BE710B586B000
:1033C0000446142101A8FCF7C6FF62492068884220
:1033D0002BD100BF6048006E40F480505E49086603
:1033E0000846006E00F48050009000BF00BF00BF90
:1033F0000846C06C40F00100C8640846C06C00F08C
:103400000100009000BF00BF41F252000190022075
:10341000029000200390032004900520059001A94C
:103420004FF09040FEF776FC92E04C4920688842CD
:1034300045D100BF4848806D40F4804046498865CA
:103440000846806D00F48040009000BF00BF00BFC0
:103450000846C06C40F00400C8640846C06C00F028
:103460000400009000BF00BF00BF0846C06C40F0E1
:103470000200C8640846C06C00F00200009000BF63
:1034800000BF08200190022002900020039003203A
:1034900004900520059001A93148FEF73BFC4FF44C
:1034A000005001900220029000200390032004901D
:1034B0000520059001A92B48FEF72CFC48E02A497D
:1034C0002068884244D100BF2348806D40F400400A
:1034D000214988650846806D00F40040009000BFD7
:1034E00000BF00BF0846C06C40F00400C864084636
:1034F000C06C00F00400009000BF00BF00BF084691
:10350000C06C40F00200C8640846C06C00F00200C5
:10351000009000BF00BF4FF4406001900220029075
:1035200000200390032004900620059001A90C4878
:10353000FEF7F0FB20200190022002900020039073
:10354000032004900620059001A90648FEF7E2FB3F
:1035500006B010BD003001400010024000380040AD
:103560000008004800040048003C00402DE9F84FE6
:103570000446884616461D464FF0000A00BF94F8E0
:103580005C00012802D1022000F0E5B8012084F897
:103590005C0000BFFEF7B2FC0746B14694F85D0040
:1035A000012802D04FF0020ACBE0B8F1000F00D0A2
:1035B00016B94FF0010AC4E0032084F85D00002032
:1035C0002066C4F83880A687E6872064A4F8440003
:1035D000A4F846002065E064A068B0F5004F0BD168
:1035E0002068006820F040002168086020680068BA
:1035F00040F48040216808602068006800F04000C6
:10360000402805D02068006840F04000216808602C
:10361000E068B0F5E06F2FD9606810B1B9F1010F23
:1036200009D1A06B00882168C860A06B801CA063D2
:10363000E08F401EE0871BE02068806800F00200F9
:1036400002280AD1A06B00882168C860A06B801C8A
:10365000A063E08F401EE0870AE0FEF74FFCC01B2E
:10366000A84201D3681C00B915B94FF0030A68E0FD
:10367000E08F0028E0D14AE0606810B1B9F1010F95
:1036800017D1E08F01280AD9A06B00882168C86093
:10369000A06B801CA063E08F801EE08709E0A06B18
:1036A000007821680873A06B401CA063E08F401E67
:1036B000E08729E02068806800F00200022818D125
:1036C000E08F01280AD9A06B00882168C860A06B30
:1036D000801CA063E08F801EE08715E0A06B00785F
:1036E00021680873A06B401CA063E08F401EE08738
:1036F0000AE0FEF703FCC01BA84201D3681C00B916
:1037000015B94FF0030A1CE0E08F0028D2D13A46E9
:103710002946204602F0D8FC08B120202066A06887
:1037200050B900BF002000902068C0680090206859
:103730008068009000BF00BF206E08B14FF0010A02
:1037400000BF012084F85D0000BF002084F85C0009
:1037500000BF504618E718BCBDE8E08F70B50446BE
:103760002546681EB0F1807F01D301200FE0681E5E
:103770004FF0E02148610F214FF0FF3003F05EFC75
:1037800000204FF0E021886107200861002070BD13
:1037900010B50346002200BF93F83C00012801D178
:1037A000022010BD012083F83C0000BF22F0FF0082
:1037B000CC6840EA040222F440708C6840EA0402BB
:1037C00022F480604C6840EA040222F400600C6835
:1037D00040EA040222F480500C6940EA040222F418
:1037E00000504C6940EA040222F480408C6A40EAAE
:1037F000040222F470200C8B40EA04420D4C18683D
:10380000A0420ED122F470008C8C40EA045222F0C7
:103810008070CC6940EA040222F000700C6A40EA31
:1038200004021868426400BF002083F83C0000BF17
:1038300000BFB6E7002C014030B502460B4600BF82
:1038400092F83C00012801D1022030BD012082F80D
:103850003C0000BF022082F83D00106841681068FB
:103860008468154D1068A84203D121F4700158688E
:10387000014321F0700118680143106841600E4D4A
:103880001068A84207D01068B0F1804F03D00B4DEC
:103890001068A84205D124F0800498680443106899
:1038A0008460012082F83D0000BF002082F83C00C7
:1038B00000BF00BFC9E70000002C014000400140EC
:1038C00010B504460CB9012010BD94F83D0028B98C
:1038D000002084F83C00204600F02AF8022084F8FA
:1038E0003D00211D206802F0BBFD012084F8480046
:1038F00000BF84F83E0001213F20015540200155C2
:1039000041200155422001554320015500BF00BF11
:10391000012084F8440045200155462001554720E8
:10392000015500BF012084F83D000020CCE70000D5
:1039300038B504463149206888420DD100BF30486F
:10394000006E40F400602E4908660846006E00F4E0
:103950000060009000BF50E02068B0F1804F16D1A9
:1039600000BF2748806D40F0010025498865084662
:10397000806D00F00100009000BF00BF0022052113
:103980001C20FEF715FD1C20FEF702FD35E01D4949
:10399000206888420DD100BF1948806D40F01000AA
:1039A000174988650846806D00F01000009000BF40
:1039B00023E01549206888420DD100BF1048806D72
:1039C00040F020000E4988650846806D00F0200018
:1039D000009000BF11E00D49206888420DD100BF62
:1039E0000748006E40F40030054908660846006E3E
:1039F00000F40030009000BF00BF38BD002C014033
:103A0000001002400010004000140040004401403B
:103A1000014691F83D00012801D0012070470220A5
:103A200081F83D00124B0868984207D00868B0F151
:103A3000804F03D00F4B0868984210D10868806807
:103A40000D4B00EA0302062A0FD0B2F5803F0CD0DE
:103A50000868006840F001000B68186005E008681D
:103A6000006840F001000B6818600020D6E70000F5
:103A7000002C01400040014007000100014691F880
:103A80003D00012801D001207047022081F83D004F
:103A90000868C06840F001000B68D860124B0868E5
:103AA000984207D00868B0F1804F03D00F4B0868E8
:103AB000984210D1086880680D4B00EA0302062A7C
:103AC0000FD0B2F5803F0CD00868006840F00100CC
:103AD0000B68186005E00868006840F001000B689A
:103AE00018600020D0E70000002C01400040014099
:103AF000070001002DE9F04104460D4600BF94F88F
:103B00003C00012802D10220BDE8F081012084F8A8
:103B10003C0000BF022084F83D00206886683748DA
:103B2000064026F47F46206886602868502833D0F7
:103B30000CDC202850D004DC00284BD0102851D1B8
:103B400049E0302849D040284CD139E060282DD0B8
:103B5000702807D0B0F5805F03D0B0F5005F41D189
:103B60000DE040E0D5E902136A68206802F0C3FC6A
:103B70002068866846F077062068866033E0D5E9DD
:103B800002136A68206802F0B6FC2068806840F47E
:103B900080402168886026E0EA686968206802F051
:103BA0001FFE5021206802F0B1FC1CE0EA68696841
:103BB000206802F028FE6021206802F0A7FC12E0D5
:103BC000EA686968206802F00BFE4021206802F074
:103BD0009DFC08E000BF00BF00BF2968206802F01C
:103BE00095FC00E000BF00BF012084F83D0000BF4D
:103BF000002084F83C0000BF00BF85E788FFFEFF7F
:103C000010B586B00446142101A8FCF7A4FB434973
:103C1000206888421DD100BF4148C06C40F00100BF
:103C20003F49C8640846C06C00F00100009000BF26
:103C300000BF4FF41060019002200290002003901A
:103C400004900120059001A94FF09040FEF762F822
:103C500061E02068B0F1804F1CD100BF3048C06CDB
:103C600040F001002E49C8640846C06C00F0010015
:103C7000009000BF00BF0F200190022002900020A2
:103C8000039004900120059001A94FF09040FEF7A9
:103C900041F840E02349206888421CD100BF2048F9
:103CA000C06C40F002001E49C8640846C06C00F0B9
:103CB0000200009000BF00BF4FF48040019002203E
:103CC00002900020039004900E20059001A9164850
:103CD000FEF720F81FE01549206888421BD100BF7D
:103CE0000F48C06C40F001000D49C8640846C06C24
:103CF00000F00100009000BF00BF402001900220B2
:103D000002900020039004900E20059001A94FF02E
:103D10009040FDF7FFFF06B010BD0000002C0140F1
:103D200000100240004001400004004800440140EF
:103D300070B504460D46164600BF94F83C000128B5
:103D400001D1022070BD012084F83C0000BF0C2E80
:103D500051D005DC4EB1042E1ED0082E7AD133E0AE
:103D6000102E60D0142EF9D175E02946206802F09B
:103D7000D7FB2068806940F00800216888612068CE
:103D8000806920F0040021688861206880692969C1
:103D900008432168886177E02946206802F004FC26
:103DA0002068806940F4006021688861206880692B
:103DB00020F480602168886120688069296940EA70
:103DC0000120216888615FE02946206802F034FC08
:103DD0002068C06940F008002168C8612068C06997
:103DE00020F004002168C8612068C069296908437F
:103DF0002168C86148E02946206802F065FC206817
:103E0000C06940F400602168C8612068C06920F47E
:103E100080602168C8612068C069296940EA012082
:103E20002168C86130E02946206802F07DFC2068E6
:103E3000406D40F00800216848652068406D20F022
:103E40000400216848652068406D2969084321689D
:103E5000486519E017E02946206802F093FC2068C5
:103E6000406D40F40060216848652068406D20F492
:103E70008060216848652068406D296940EA01201A
:103E80002168486500E000BF00BF00BF002084F843
:103E90003C0000BF00BF55E710B504460CB9012037
:103EA00010BD94F83D0028B9002084F83C0020465D
:103EB00000F02AF8022084F83D00211D206802F05D
:103EC000CFFA012084F8480000BF84F83E000121A9
:103ED0003F20015540200155412001554220015508
:103EE0004320015500BF00BF012084F84400452055
:103EF0000155462001554720015500BF012084F897
:103F00003D000020CCE7000010B586B00446142127
:103F100001A8FCF720FA17492068884228D100BF81
:103F20001548006E40F48030134908660846006E5C
:103F300000F48030009000BF00BF00BF0846C06C96
:103F400040F00200C8640846C06C00F00200009017
:103F500000BF00BF4FF400400190022002900020FB
:103F6000039004900E20059001A90448FDF7D2FEAD
:103F700006B010BD0040014000100240000400489F
:103F800070B504460D4615B994F83E0015E0042DB1
:103F900002D13F20005D10E0082D02D14020005DDD
:103FA0000BE00C2D02D14120005D06E0102D02D166
:103FB0004220005D01E04320005D012801D0012086
:103FC00070BD1DB9022084F83E001AE0042D03D113
:103FD00002213F20015514E0082D03D10221402089
:103FE00001550EE00C2D03D102214120015508E0BE
:103FF000102D03D102214220015502E0022143206D
:10400000015501222946206802F064FA1D49206802
:10401000884207D01C492068884203D01B49206889
:10402000884201D1012000E0002028B12068406CC6
:1040300040F400402168486412492068884207D053
:104040002068B0F1804F03D00F492068884210D11A
:10405000206880680E4900EA0106062E0FD0B6F5EA
:10406000803F0CD02068006840F0010021680860A3
:1040700005E02068006840F0010021680860002029
:104080009EE70000002C0140004001400044014038
:10409000070001007047704710B504460CB90120B5
:1040A00010BD2420A0672068006820F0010021686E
:1040B00008600020216808602168486021688860E5
:1040C000204600F0A7F90020C4F88000A067E06750
:1040D000206600BF84F8740000BF00BFE0E77047AF
:1040E0002DE9F04704462068C56920680668206805
:1040F000876840F60F0005EA0009B9F1000F0CD1FE
:1041000005F0200048B106F0200030B1606E10B11B
:104110002046616E8847BDE8F087B9F1000F7DD079
:1041200007F0010018B99C4830400028F7D005F08E
:10413000010058B106F4807040B101202168086286
:10414000D4F8800040F00100C4F8800005F00200BF
:1041500058B107F0010040B1022021680862D4F88C
:10416000800040F00400C4F8800005F0040058B15D
:1041700007F0010040B1042021680862D4F88000F3
:1041800040F00200C4F8800005F0080070B106F0AD
:10419000200010B907F0010040B108202168086232
:1041A000D4F8800040F00800C4F8800005F40060F6
:1041B00060B106F0806048B14FF400602168086289
:1041C000D4F8800040F02000C4F88000D4F88000CB
:1041D00090B305F0200038B106F0200020B1606EE9
:1041E00010B12046616E8847D4F880A020688068AE
:1041F00000F04000402802D00AF0280028B32046F2
:1042000002F0D6FB2068806800F04000402818D1FA
:104210002068806820F04000216800E01CE0886091
:10422000206F50B15D48216F8863206FFDF793FCCC
:1042300010B1206F816B88470DE02046FFF74FFFDC
:1042400009E02046FFF74BFF05E02046FFF747FF58
:104250000020C4F880005EE7206E012876D105F0CA
:104260001000002872D006F0100000286ED0102038
:10427000216808622068806800F0400040283CD136
:10428000206F006840681FFA80F8B8F1000F33D043
:10429000B4F8580040452FDDA4F85A80206F00681C
:1042A000006800F02000F0B92068006820F48070F9
:1042B000216808602068806820F00100216888601B
:1042C0002068806820F04000216888602020E06736
:1042D000002020662068006820F010002168086037
:1042E000206FFDF70BFCB4F85800B4F85A20801A80
:1042F00081B22046FFF7CEFE0DE734F8580F6188F3
:10430000401A1FFA80F86088583CE8B1B8F1000FF5
:104310001AD02068006820F4907021680860206836
:10432000806820F00100216888602020E06700207C
:10433000206660662068006820F010002168086030
:1043400041462046FFF7A6FEE5E6FFE705F48010AC
:1043500050B107F4800038B14FF480102168086232
:104360002046FFF798FED6E605F0800040B106F043
:10437000800028B1A06E10B12046A16E8847CAE621
:1043800005F0400030B106F0400018B1204602F0C0
:104390002AFBC0E600BFBEE62001000499690008C0
:1043A00010B504460CB9012010BDA06900B100E0B1
:1043B00000BFA06F28B9002084F87400204600F0E8
:1043C0007FF82420A0672068006820F001002168A1
:1043D0000860204602F0A2FB012800D1E4E7606AF1
:1043E00010B1204602F023FA2068406820F4904083
:1043F000216848602068806820F02A002168886071
:104400002068006840F0010021680860204602F042
:104410008AFAC9E710B504462349206888420DD1BD
:104420002248C06D20F001002049C86503212048C2
:10443000FDF7D4FB4620FDF789FF34E01D492068D5
:1044400088420CD11948006E20F480401749086654
:104450004FF4C0614FF09040FDF7C0FB23E01649D8
:10446000206888420ED11148806D20F400300F4939
:1044700088650C214FF09040FDF7B0FB2620FDF73A
:1044800065FF10E00D49206888420CD10748806D17
:1044900020F480200549886530210548FDF79EFB02
:1044A0002720FDF753FF10BD0080004000100240A0
:1044B0000008004800380140004400400048004027
:1044C00010B586B00446142101A8FBF744FF6A49E1
:1044D0002068884231D100BF6848C06D40F00100BB
:1044E0006649C8650846C06D00F00100009000BF35
:1044F00000BF00BF0846C06C40F00400C864084616
:10450000C06C00F00400009000BF00BF03200190C9
:1045100002200290002003900320049008200590C0
:1045200001A95748FDF7F6FB002211464620FDF78A
:104530003FFF4620FDF72CFF9BE052492068884250
:104540002BD100BF4D48006E40F480404B490866B7
:104550000846006E00F48040009000BF00BF00BF1E
:104560000846C06C40F00100C8640846C06C00F00A
:104570000100009000BF00BF4FF4C0600190022016
:10458000029000200390032004900720059001A9C9
:104590004FF09040FDF7BEFB6BE03B49206888423E
:1045A00032D100BF3548806D40F400303349886512
:1045B0000846806D00F40030009000BF00BF00BFCF
:1045C0000846C06C40F00100C8640846C06C00F0AA
:1045D0000100009000BF00BF0C200190022002905B
:1045E00000200390032004900720059001A94FF0BC
:1045F0009040FDF78FFB002211462620FDF7D8FEE4
:104600002620FDF7C5FE34E020492068884230D1DD
:1046100000BF1A48806D40F480201849886508461C
:10462000806D00F48020009000BF00BF00BF0846EE
:10463000C06C40F00400C8640846C06C00F0040080
:10464000009000BF00BF30200190022002900020A7
:104650000390032004900720059001A90848FDF766
:1046600059FB002211462720FDF7A2FE2720FDF767
:104670008FFE06B010BD0000008000400010024018
:104680000008004800380140004400400048004055
:1046900070B504460D461646E06F202825D105B1B9
:1046A0000EB9012070BD00BF94F87400012801D13B
:1046B0000220F7E7012084F8740000BF0020206684
:1046C0000B49206888420AD02068406800F4000046
:1046D00028B12068006840F0806021680860324698
:1046E0002946204602F098FBDCE70220DAE70000CA
:1046F0000080004010B5044607492068884209D16F
:10470000012206490648FFF7C3FF0448017805481F
:1047100008F032FC10BD00000080004000000020C6
:1047200068190020E8B300202DE9F84F04460E4632
:1047300017469946A06F20285DD106B117B9012010
:1047400000F05BB800BF94F87400012801D102208A
:10475000F6E7012084F8740000BF00205034206385
:104760002120A062FDF7CAFB824627806780503C6B
:10477000A068B0F5805F04D1206910B90025B0466B
:1047800002E035464FF0000800BF002084F87400B6
:1047900000BF1DE05346002280212046CDF8009046
:1047A00002F098FB08B10320CAE745B9B8F8000049
:1047B000C0F308002168088508F1020803E02878A2
:1047C000216808856D1CB4F85200401EA4F8520000
:1047D000B4F852000028DDD1534600224021204683
:1047E000CDF8009002F076FB08B10320A8E7202066
:1047F000A0670020A4E70220A2E718BCBDE8E08F74
:10480000704700BFFEE701688969C1F3400111B13B
:104810000021026891620168896901F0010129B9EA
:104820000168896941F001010268916170470000E7
:1048300070B504460D46164620688069C0F3001026
:1048400000283DD017E0681CA8B1FDF757FB801B7E
:10485000A84200D87DB9606C40F020006064202040
:1048600084F84100002084F8420000BF84F8400032
:1048700000BF012070BD20688069C0F3401000288F
:10488000E1D010202168C86120202168C86120463D
:10489000FFF7B9FF206840680A490840216848606E
:1048A000606C40F004006064202084F84100002027
:1048B00084F8420000BF84F8400000BF0120D9E71F
:1048C0000020D7E700E800FEF0B5059C05686D689C
:1048D0004FF4806606EA545666F0FC2646F4C0465D
:1048E000B543C1F309064FF47F0707EA02473E4389
:1048F0001E432643354306687560F0BD2DE9F0413F
:1049000004460E4617461D46DDF8188019E0681C5F
:10491000B8B1FDF7F3FAA0EB0800A84200D885B9BA
:10492000606C40F020006064202084F8410000208A
:1049300084F8420000BF84F8400000BF0120BDE8B9
:10494000F081206880693040B04201D1012000E050
:104950000020B842DBD00020F1E770B504460D46D8
:1049600016461DE0324629462046FFF761FF08B192
:10497000012070BDFDF7C2FA801BA84200D87DB9A6
:10498000606C40F020006064202084F8410000202A
:1049900084F8420000BF84F8400000BF0120E8E72F
:1049A00020688069C0F340100028DBD00020E0E7D9
:1049B00070B504460D4616461FE03246294620468D
:1049C000FFF736FF08B1012070BD681CA8B1FDF7E4
:1049D00095FA801BA84200D87DB9606C40F0200099
:1049E0006064202084F84100002084F8420000BF69
:1049F00084F8400000BF0120E6E720688069C0F32A
:104A000040000028D9D00020DEE72DE9F04104461F
:104A10000D4616461F462A2000F0D8FA201200F054
:104A2000E3FAE0B200F0E0FA301200F0DDFAF0B2A2
:104A300000F0DAFA2B2000F0C9FA281200F0D4FABC
:104A4000E8B200F0D1FA381200F0CEFAF8B200F075
:104A5000CBFA2C2000F0BAFABDE8F081F8B5054693
:104A60000020009028128DF80000E8B28DF80100B7
:104A7000EF231A4600210846FFF7C7FF00240DE088
:104A80009DF800000F4901F814009DF80100012174
:104A900001EB44010B4A5054601C84B2B4F5107F02
:104AA000EEDB012240210848FDF722FA002606E04D
:104AB0004FF49061034800F047F9701C86B2642EF1
:104AC000F6DBF8BDFE1F00200008004800B587B0E7
:104AD000142102A8FBF73FFC00BF3048C06C40F037
:104AE00004002E49C8640846C06C00F00400019020
:104AF00000BF00BF00BF0846C06C40F08000C86423
:104B00000846C06C00F08000019000BF00BF00BFED
:104B10000846C06C40F00200C8640846C06C00F053
:104B20000200019000BF00BF00224FF400411C486A
:104B3000FDF7DEF90022C0211A48FDF7D9F94FF43C
:104B4000004002900120039000200490059002A9EB
:104B50001348FDF7DFF8C0200290012003900020E9
:104B60000490059002A90F48FDF7D4F800224FF4F5
:104B700000410B48FDF7BCF9002280210948FDF7F0
:104B8000B7F96420FDF716F8012280210548FDF7EA
:104B9000AFF900F051FF07B000BD00000010024067
:104BA000000400480008004810B5FFF78FFF782088
:104BB000FDF700F8112000F009FA7820FCF7FAFF61
:104BC000362000F003FA002000F00EFA3A2000F040
:104BD000FDF9652000F008FAB22000F0F7F90C208A
:104BE00000F002FA0C2000F0FFF9002000F0FCF9C0
:104BF000332000F0F9F9332000F0F6F9B72000F087
:104C0000E5F9722000F0F0F9BB2000F0DFF93D205B
:104C100000F0EAF9C02000F0D9F92C2000F0E4F906
:104C2000C22000F0D3F9012000F0DEF9C32000F02B
:104C3000CDF9192000F0D8F9C42000F0C7F92020E0
:104C400000F0D2F9C62000F0C1F90F2000F0CCF935
:104C5000D02000F0BBF9A42000F0C6F9A12000F09C
:104C6000C3F9E02000F0B2F9D02000F0BDF9042033
:104C700000F0BAF90D2000F0B7F9112000F0B4F9F6
:104C8000132000F0B1F92B2000F0AEF93F2000F026
:104C9000ABF9542000F0A8F94C2000F0A5F9182039
:104CA00000F0A2F90D2000F09FF90B2000F09CF914
:104CB0001F2000F099F9232000F096F9E12000F080
:104CC00085F9D02000F090F9042000F08DF90C2037
:104CD00000F08AF9112000F087F9132000F084F920
:104CE0002C2000F081F93F2000F07EF9442000F0F4
:104CF0007BF9512000F078F92F2000F075F91F2082
:104D000000F072F91F2000F06FF9202000F06CF91C
:104D1000232000F069F9212000F058F9292000F043
:104D200055F9EF231A4600210846FFF76EFE4FF6AD
:104D3000FF70FFF793FE0122D1030248FDF7D8F878
:104D400010BD00000004004870B504460D46294619
:104D5000204601F0D3FA70BD2DE9FF4F83B08146A4
:104D60008A461646119C00250027A846AB4600201F
:104D7000029004EBD4714910C1F1F001494503DB05
:104D8000C4F1F001514502DA07B000F0E3B804EBDA
:104D9000D47009EB6000401E82B20AEB0400401E92
:104DA00083B2514648460194FFF72FFEA6F120003A
:104DB000C6B2102C01D0202C49D12046E31704EBB9
:104DC0005373DB1021464FEAE47C04EB5C7C4FEA32
:104DD000EC0CA4EBCC0CBCF1000F02D04FF0010C9A
:104DE00001E04FF0000C6344224604EBD27C4FEA12
:104DF0006C0C03FB0CF303F0FF0B002524E0102CDC
:104E000005D1504800EB061010F8058008E0202C72
:104E100005D14D4800EBC61010F8058000E0B3E75F
:104E200000270EE008F0800018B1109800F0B8F8E4
:104E300002E0069800F0B4F84FEA48604FEA1068C4
:104E40007F1C082FEEDB6D1C5D45D8DB77E00C2C5A
:104E50003FD12046E31704EB5373DB1021464FEAA2
:104E6000E47C04EB5C7C4FEAEC0CA4EBCC0CBCF1D6
:104E7000000F02D04FF0010C01E04FF0000C634432
:104E8000224604EBD27C4FEA6C0C03FB0CF303F0DC
:104E9000FF0B00251AE006EB46002C4901EB8000D1
:104EA00010F8058000270EE008F0800018B1109877
:104EB00000F076F802E0069800F072F84FEA4860D9
:104EC0004FEA10687F1C062FEEDB6D1C5D45E2DBB0
:104ED00035E0182C32D12001C11700EB5171C1F31C
:104EE000C70B002527E006EB4600194901EB00102F
:104EF00010F80580284605EBD0714910A5EB41015B
:104F000011B90820029001E00420029000270EE071
:104F100008F0800018B1109800F042F802E00698FE
:104F200000F03EF84FEA48604FEA10687F1C029894
:104F30008742EDDB6D1C5D45D5DB00E024E700BF5B
:104F400022E7000038F10008F8080108C4EC000866
:104F500028F7000830BCBDE8C08F2DE9FC470646A5
:104F60000F4614469846DDE90A950EE0CDE9009516
:104F70002278434639463046FFF7EEFE284605EBD9
:104F8000D07106EB61018EB2641C20787E2802DCB1
:104F900020782028EADA00F000B80CBCBDE8F087E1
:104FA00038B504460020009020128DF80000E0B2D1
:104FB0008DF80100012240210348FCF799FF0221EE
:104FC0006846FFF7C1FE38BD0008004801B5002261
:104FD00040210448FCF78CFF01216846FFF7B4FE2E
:104FE00008BD00000008004801B501224021044826
:104FF000FCF77EFF01216846FFF7A6FE08BD000012
:1050000000080048024602F1600000EB81031868C6
:1050100000F0F840704701468868C0F3C000704750
:105020000146886800F00100704701468868C0F3B7
:105030000070704701468868C0F38000704770B503
:1050400000F11404C1F3406504EB85031C68C1F34F
:1050500004560725B540AC43C1F3045502FA05F5E3
:105060002C431C6070BD826822F0E0720A438260AB
:10507000704710B500F1600404EB81031C6824F054
:10508000004414431C6010BD10B508F067F90348D4
:10509000FFF726F808F07AF910BD00006819002023
:1050A0002DE9FE4F04460D4616461F46DDF830A09A
:1050B0000020029001978046814601A806F087FFF4
:1050C0008DF808000298C0F3C00028700298C0F361
:1050D000031020706946019800F03CF9814601995F
:1050E00008440190DDE9001000EB01080198A8EBED
:1050F0000000022800DA06E001A806F06FFF308009
:105100004FF0010900BF484600F000B81EBCBDE8E2
:10511000E08F2DE9FF4704460D46164699460020CC
:105120000390029600278046009002A806F04FFFE9
:105130008DF80C000398C0F30310022800D01FE084
:1051400001A9029800F006F98046029908440290ED
:10515000DDE9011047180298381A022800DA0FE03A
:1051600002A806F034FF8DF80000009800F001005E
:10517000207002A806F02BFF28704FF0010800BF36
:10518000404604B0BDE8F0872DE9FF5F06460C46B7
:1051900017469846DDE90FABDDF838900020039004
:1051A00011980290002500200190009002A806F0BE
:1051B0000EFF8DF80C000398C0F30310032800D0F5
:1051C00032E00398C0F3C00030700398C0F3410090
:1051D0002060039800F0010038706946029800F0E2
:1051E000B9F8019002990844029000990298451874
:1051F0002A4602A9484606F0FEFE10B10298281A77
:1052000000D511E02068002804DD02A806F0E6FEC3
:10521000A8F800000298281ACBF800000298CAF8F3
:1052200000000120019000BF019804B000F000B818
:1052300030BCBDE8C09F2DE9FE4F05460E46144622
:105240001F46DDE90C9B00200290CDF804908046BB
:10525000824601A806F0BBFE8DF808000298C0F354
:105260000310092800D02CE06946019800F072F87C
:105270008246019908440190DDE9001000EB010825
:105280000198A8EB0000022800DA1AE001A806F055
:10529000A5FE2880002020600DE02068B04202DDDD
:1052A0004FF0FF3A0DE001A806F091FE2268511C74
:1052B000216047F8220001984045EED34FF0010AE3
:1052C00000BF504600F000B81EBCBDE8E08FFEB540
:1052D00004460D46164600200290019000272B46FA
:1052E000224601A902A80096FFF7DAFE07469DF8BC
:1052F00008000B2800D101273846FEBD2DE9F843F0
:1053000005460C46012600270020206000BF4FF014
:10531000FF38781C0746042801DD00BF17E0012193
:105320006846A8478046B8F1010F00D00FE09DF80D
:10533000001001F07F01206801FB06002060F601EB
:105340009DF8000000F080000028E0D100BF384642
:10535000BDE8F88370B504460D460348046029464D
:105360000248FFF7CBFF70BDC00000203983000862
:1053700030B50246002300BF0846CD1701EB556546
:10538000ED11A1EBC515ECB2CD1701EB5565E91197
:10539000002901DD44F0800418465B1C14540029E8
:1053A000EADC184630BD2DE9F04104460E460027E0
:1053B000B846206828B125682068FAF7F5FF074647
:1053C00001E0A56867683046FAF7EEFF804647457A
:1053D00008D13A4631462846FAF7FBFF10B90120BA
:1053E000BDE8F0810020FBE7401C802801DA401C6A
:1053F0000AE0B0F5804F01DA801C05E003498842DD
:1054000001DAC01C00E0001D70470000FFFF1F0014
:105410002DE9FC4704460E4615461F46DDF8288058
:105420000020019081460094042E02DA6FF00109F9
:1054300024E0019865F307100190019867F3C30019
:105440000190062D01D1012100E00021019861F3B6
:10545000420001909DF80410684609F0C9FB022142
:105460000098FFF785FF0099084400904146684680
:1054700009F0C4FB0098A0EB040900BF484600F007
:1054800000B80CBCBDE8F0872DE9FE4305460E468A
:105490001446029500200190009000274FF0FF383D
:1054A000204600F0A8F807468146FFF79DFFB0426E
:1054B00002DD6FF001088FE000208DF804000198F4
:1054C00020F0F000103001909DF8041002A809F0BF
:1054D0008FFB39460298FFF74BFF02990844029070
:1054E000207A042808D13EA102A809F06DFB04210E
:1054F00002A809F07DFB07E03BA102A809F064FBCC
:10550000032102A809F074FB00208DF80000A17EA1
:10551000009861F341000090E07E08B1012100E0B5
:105520000021009861F3820000900098C0F3800091
:1055300058B194F83D10009861F3C400009094F8BD
:105540003C10009861F345100090206C08B9A06CE5
:1055500020B1009820F0800080300090E06C08B905
:10556000606D20B1009820F04000403000909DF820
:10557000001002A809F03CFB218B02A809F03EFBB9
:1055800002A8D4E90423E16809F050FBE07E58B199
:1055900002A8D4E90A23616A09F048FB02A8D4E909
:1055A0000D23216B09F042FB0098C0F3C01028B115
:1055B00002A8D4E91123216C09F038FB0098C0F34C
:1055C000801028B102A8D4E91423E16C09F02EFB65
:1055D0000298A0EB050800BF404600F009B80000A3
:1055E0004D515454000000004D5149736470000047
:1055F00006BCBDE8F88370B504460025207A032870
:1056000001D10C2503E0207A042800D10A25D4E931
:105610000412E06800F0CBF8801C0544E07E68B11D
:10562000D4E90A12606A00F0C2F8861CD4E90D12AF
:10563000206B00F0BCF83044801C0544206C08B995
:10564000A06C30B1D4E91112206C00F0B0F8801CCD
:105650000544E06C08B9606D30B1D4E91412E06C17
:1056600000F0A5F8801C0544284670BD70B50446BE
:105670000D460C222946204600F073F870BD2DE936
:10568000FF5F05460E4617469846DDE90E9A0395DC
:10569000002002900190009000245146484600F0FE
:1056A00049F883460190FFF79FFEB04202DDA01E3D
:1056B000009038E000208DF80800029820F0F000FB
:1056C00080300290029867F3C3000290029820F0A5
:1056D0000600801C02909DF8081003A809F088FAC3
:1056E00001990398FFF744FE03990844039041464B
:1056F00003A809F083FA00240FE004EB44000AEB4E
:10570000800C03A89CE80E0009F090FA109810F89D
:10571000241003A809F06CFA641C4C45EDDB0398D7
:10572000401B009000BF009804B000F000B830BCEF
:10573000BDE8C09F2DE9F04105460E460227002432
:105740000AE004EB440006EB800393E8070000F056
:105750002EF8C01C0744641CAC42F2DB3846BDE89E
:10576000F0812DE9FC4104460D46164600200190CB
:10577000471E0094022D01DA871E15E000208DF8E7
:105780000400019866F3071001909DF80410684624
:1057900009F02EFA00210098FFF7EAFD009908446D
:1057A00000900098071B00BF3846BDE8FC8137B564
:1057B0000024009820B10098FAF7F6FD044600E0B6
:1057C000019C20463EBD000000B587B0182101A80D
:1057D000FAF7C1FD1A481B49086000204860002103
:1057E00018488160C1600161042141610021017696
:1057F00041760121C161002180F820108162C162DF
:1058000080F83010416380F83810FCF73FF808B199
:10581000FBF7D0FD0C480190062002900020039079
:105820007F200490042005900020069001A90548DF
:10583000FBF7C2FD08B1FBF7BDFD07B000BD0000DE
:1058400000000450781B00200800900C00B587B0C1
:10585000142102A8FAF77FFD00BF3648C06C40F063
:1058600004003449C8640846C06C00F0040001908C
:1058700000BF00BF00BF0846C06C40F08000C86495
:105880000846C06C00F08000019000BF00BF00BF60
:105890000846C06C40F00100C8640846C06C00F0C7
:1058A0000100019000BF00BF00BF0846C06C40F07F
:1058B0000200C8640846C06C00F00200019000BFFE
:1058C00000BF00224FF403511B48FCF711FB0022DC
:1058D00048F208011948FCF70BFB4FF40350029003
:1058E0000120039000200490059002A91248FCF7C3
:1058F00011FA04200290124803900020049002A99B
:105900000E48FCF707FA48F2083002900120039095
:1059100000200490059002A90848FCF7FBF900223A
:1059200011460820FCF744FD0820FCF731FD07B0C4
:1059300000BD0000001002400008004800040048BC
:105940000000111010B51248124908601248486052
:105950000021104881600121C16000210161416185
:105960008161C1610162FCF739FB08B1FBF722FDDF
:1059700000210848FCF7C8FA08B1FBF71BFD00211D
:105980000448FCF7F6FA08B1FBF714FD10BD00005F
:1059900000540040DC1B0020EC9C901010B50F4818
:1059A0000F4908604FF4E130486000210C488160E5
:1059B000C16001610C21416100218161016200200F
:1059C000074948620846FEF7EBFC08B1FBF7F2FC1A
:1059D000012204490248FEF75BFE10BD0080004032
:1059E000681900200000002010B511481149086016
:1059F0004FF48270486000210E4881604FF440717E
:105A0000C1600021016141614FF480218161002169
:105A1000C1610162416281620721C16200210163AB
:105A200008214163FDF752FC08B1FBF7C3FC10BD30
:105A300000300140281C002010B5114811490860B1
:105A40004FF48270486000210E4881604FF4E0619D
:105A5000C16002210161012141614902816100218E
:105A6000C1610162416281620721C162002101635B
:105A70004163FDF72BFC08B1FBF79CFC10BD000057
:105A8000003800408C1C002010B5114811490860F6
:105A90004FF48270486000210E4881604FF44071DD
:105AA000C1600021016141614FF4007181610021F9
:105AB000C1610162416281620721C162002101630B
:105AC00008214163FDF702FC08B1FBF773FC10BD30
:105AD000003C0040F01C002070B592B004460E4619
